:100000009000000000000000D2010000D2010000BA
:1000100000000000000000000000000000000000E0
:1000200000000000000000000000000000000000D0
:1000300000000000000000000000000000000000C0
:10004000D2010000D2010000D2010000D201000064
:10005000D2010000D2010000D2010000D201000054
:10006000D2010000D2010000D2010000D201000044
:10007000D2010000D2010000D2010000D201000034
:10008000D2010000D2010000D2010000D201000024
:10009000971100009381419417610020130181762C
:1000A0001305401D970500209385C5F51706002010
:1000B000130646F563FAC5008322050023A0550008
:1000C00011059105E3EAC5FE17050020130585F328
:1000D00097050020938505F36377B500232005007D
:0C00E0001105E36DB5FEAD2801A0000085
:1000EC008567938707773305F50241112AC6B24716
:1000FC001387F7FF3AC699E3410182800100C5BF1F
:10010C00B71700409387070C9843411106C63D9BD7
:10011C0098C3B71700409387870C984329451367FA
:10012C00070198C3753FB717004003A5070DB240F0
:10013C0011810589134515004101828073700430CB
:10014C00B7E700E023A4070485679C430F10000069
:10015C00828701A0411106C622C426C24AC04D376F
:10016C0085679C4337F70600938707809387078042
:10017C006364F70011E1D937B71700409387070A7A
:10018C009843371400401304040B1367071098C3EB
:10019C00856437F906001C401305800C93E70710A3
:1001AC001CC03D3F1C401305800C93F7F7EF1CC09F
:1001BC00053F9C409387078093870780E36DF9FC8C
:0801CC00813771F94DBF01A05C
:040000030000009069
:101000009010000000000000943B0000182F00002A
:1010100000000000000000000000000000000000D0
:1010200000000000000000000000000000000000C0
:10103000943B000000000000942F0000000000001E
:101040003C000020000000201C0000209C27000025
:10105000943B0000943B0000943B0000943B000054
:10106000943B0000943B00006001002090010020B0
:10107000943B0000943B00009E270000943B00003E
:10108000F6010020943B0000943B0000943B0000DC
:1010900097A10000938101BC1751002013018176B4
:1010A000179500001305053B97F5FF1F9385C5278E
:1010B00017F6FF1F1306864463FAC5008322050056
:1010C00023A0550011059105E3EAC5FE17F5FF1FA2
:1010D0001305C54797050020938585616377B500A3
:1010E000232005001105E36DB5FEEF20D02A17354A
:1010F00000001305A5AA19C1EF20102AEF10306EC9
:0411000001A000004A
:1011040041113AC6376700403EC45C53C207C183ED
:101114005CD33247A24741017300203041113EC4E1
:10112400B7670040938707103AC6D85342074183F4
:10113400D8D33247A2474101730020305D713AD6BB
:10114400372700403ED45C4B86C696C49AC29EC0E4
:101154002ADE2EDC32DA36D842D246D072CE76CCB3
:101164007ACA7EC8858BF1CB85475CCB37170020C4
:101174008327476C1306400685072322F76C8327D1
:10118400476CB3F7C702D5EBB71700209387875492
:1011940083C647F4DDC28326476C03A787F3930510
:1011A400803E3387E6403AC663F7E50403A707F4B5
:1011B4006C000D45050723A0E7F4B70700209387CB
:1011C400874F03C6C70037C7ADDE1307F7EE98CBCA
:1011D4007977130707D190D311462396E704B4C750
:1011E400972000E0E78040FB99673717004093871A
:1011F40057AA1CCB01A09305401F63F1E50203A786
:1012040007F4050723A0E7F4914763F8E702996719
:1012140037170040938757AA1CCB01A0637FE600D1
:1012240037160020032746668567938787383387F8
:10123400E64063F4E7002322D666B640A64216438E
:1012440086437255E2555256C2563257A257125827
:101254008258724EE24E524FC24F61617300203089
:1012640041113EC4B7270040938707403AC6D84B84
:10127400058B11CB0547D8CB37170020832707668A
:1012840085072320F7663247A247410173002030C7
:1012940039713ECCB7370040938707803ACED84B9C
:1012A40006DE16DC1ADA1ED82AD62ED432D236D06E
:1012B40042CA46C872C676C47AC27EC0058B09CBC0
:1012C4000547D8CBB717002083A7076A91C3829735
:1012D400F250E2525253C2533255A255125682561C
:1012E4007247E2475248C248324EA24E124F824FD2
:1012F40021617300203039713ACE37C700403ECCAB
:101304007C4306DE16DC1ADA1ED82AD62ED432D254
:1013140036D042CA46C872C676C47AC27EC07CC37E
:10132400898BA5C7371800208347B865054537C79B
:1013340000401D8DB7C600401375F50F8145130796
:10134400870293864602930800041C43A18BADC315
:10135400B7C700409C5F371600200547230DF6648D
:10136400B7170020A38CB764A30DA864B717002097
:10137400238CE764371800208347C867A9EFB717A1
:10138400002003A7876811C3D1E1F250E2525253FF
:10139400C2533255A255125682567247E2475248FA
:1013A400C248324EA24E124F824F21617300203048
:1013B40003AE0600E38B15F9B7170020131665007A
:1013C40093878754B297AE97138315002384C7F588
:1013D4009375F30F9DBF3707002013078754834786
:1013E4009732D1DFB7C6004081479386060211A821
:1013F400B308F70083C8C864850793F7F70F23A0E1
:1014040016018348C867E3E517FF95BF0346A66541
:10141400B7170020938707491A05620661863E952F
:041424000297A5B7CF
:10142800032E850037D3EB85B7B8B2C22968814649
:101438001303B3A6938858E31308C890B387D5005D
:10144800C207C183B347FE0013D70701B98FB3871B
:10145800670213D7D700B98FB387170313D70701CC
:10146800B98FBD8BC29703C6070093573600AA975A
:1014780083C7073113777600B3D7E74013F7F60F22
:101488005D173337E000F98F8506CDFB3285828002
:10149800B78700402380070203C727021377C70FC7
:1014A8002381E7028280B717002083C7B76613F548
:1014B800F70F99C7B717002003C59766134515009E
:1014C800828037A700405C47858BF5FF82803717FD
:1014D80000208326476C8327476C958F63E3A7001A
:1014E800828073005010C5BFC167056E7D738D681B
:1014F80075781566ED76296FAA8E01471385F7FF73
:10150800130EFEF01303030F938838331308C8CC67
:10151800130656559386A6AA130FCF91B387EE00EC
:1015280083C707000507A98F13F5F70F939F0701D6
:1015380093D78F0122055D8DB377C501337565009B
:1015480011819207C98F33F51701B3F70701898312
:101558000A055D8DB377C500758D86070581B3EFE4
:10156800A70093D78F008607FA9783D707001395AC
:101578008F003D8D931F050193F7F70F13D58F014A
:10158800A207C98F33F5C701B3F767001205918326
:10159800C98F33F51701B3F7070189830A055D8DF4
:1015A800B377C500758D860705815D8D9317070193
:1015B800C183E3E5B7F68280B717002003A7476C1D
:1015C80093170701B98F13D717013D8FB7D75AED76
:1015D8009387B74B3307F7029357B700B98F37276D
:1015E8004CAC130717B5B387E70213D5F7003D8D49
:1015F800828037C700401C43D59B93E747001CC334
:10160800828037C700401C43CD9B93E727001CC34B
:101618008280914763EDB706A967938707868A0595
:10162800BE959841B7670040028798431345F5FF78
:10163800698F98C3984B698F98CBD84B798DC8CB55
:10164800828094431347F5FFF98E94C3944BC98E57
:1016580094CBD44B758FD8CB828094431347F5FF36
:10166800F98E94C3944B758F98CBD84B498FE5B7B7
:101678009843498F98C3984F1345F5FF798D88CFC4
:1016880082809843498F98C3984F498F98CF82801A
:10169800376700401C47C98F1CC782803307A600E4
:1016A800B787070063E3E70281473307F5008346FE
:1016B80007003387F50085072300D7001397070134
:1016C8004183E364C7FE0145828005458280297114
:1016D800232C8112377407002328211331462A89C5
:1016E800229523225113232E1112AE8A232A9112F6
:1016F800232631132324411323206113232E711130
:10170800232C8111613F03A70A00B7574C539387D5
:10171800D7646318F71283D48A009307407F63E283
:10172800971263870414416C85697D7A296B3109A6
:101738007D1C930B00100C089389F9F0130A0A0F0B
:10174800130BCB91268663F49B0013060010420608
:1017580041823305890032C6913732468D687578E3
:101768001565ED760147938838331308C8CC1305FF
:1017780055559386A6AA0C08B387E50083C70700CA
:101788000507B347FC0013F3F70F139E07019357A0
:101798008E0122033363F300B377330133734301BC
:1017A800135343009207B3E7670033F31701B3F706
:1017B800070189830A033363F300B377A300337304
:1017C800D30086071353130033EE670093578E0038
:1017D8008607DA9783D7070013138E0033C3670091
:1017E800131E030193F7F70F13538E01A207B3E7F4
:1017F800670033F33701B3F747019183120333636B
:10180800F300B3771301337303018A0713532300DB
:10181800B3E7670033FCA700F58F8583060C336CAC
:10182800FC0093170701C183E3E8C7F432993386B4
:10183800C44093140601C18091F483D7AA00638938
:10184800870301458320C113032481138324411393
:10185800032901138329C112032A8112832A411201
:10186800032B0112832BC111032C8111316182805A
:101878000545C9BF37170020B71700200347D76CA5
:1018880083A7476C8D466300D70663EEE60085465E
:10189800630DD70089466301D706B7670040130771
:1018A8000020D8C782809146FDB73717002003472C
:1018B800C76B01C713050020E1BBB716002003A7BB
:1018C800866B1306401F3387E740E37DE6FC371736
:1018D800002023ACF66A8347C76C93C7170023061A
:1018E800F76CE9FB5DBFB716002003A7866B1306EC
:1018F80020033387E740D1BFB716002003A7866BC4
:10190800130640063387E740C9B7011137C70040BF
:1019180006CE9307007D130787021443898AB9E628
:10192800A1E337C7004013070702B306F50083C6D3
:101938000600850714C393F6F70FE3E8B6FED13126
:10194800896737C700409387177111071443858A41
:101958008DEAFD179DC7BD460100FD16F5FEFDB7D2
:10196800FD17BD460100FD16F5FE45BF91CF814725
:101978004DBF904232C632461043098A19E2FD171C
:10198800EDFBF2400561828037C70040B7C60040D2
:101998009307903E1307870293860602F1BFB73775
:1019A800004093870780984B37060008B716002039
:1019B800799B98CB37E700E02320C71809671307FE
:1019C800E7C823A0E66A370700200327C74EB746B3
:1019D8000F00938606243357D7023307A70298C708
:1019E80023A20700054798C3984B1367170098CBA5
:1019F800B7E700E023A0C7108280411122C4370452
:101A0800002006C613048454034704009147630F5B
:101A1800F7048D47228581452300F4002311040033
:101A28000134B717002003A7476C2302A400B72787
:101A38000040DC431306803EBD66B387C702938629
:101A480006A6B24013054006B3D7D7023307C7022C
:101A5800BA972320F42E2244B7170020A3820768E0
:101A6800B717002023820768410115BFB2402244FE
:101A780041018280B7170020371700204111A38643
:101A8800A76C8327476C06C622C48D476304F504F8
:101A980091476300F5128947630EF500B7170020D8
:101AA8000547130500202386E76CDD362244B24043
:101AB800410181B60327476CB717002023A4E76CC0
:101AC80037C70040930750021CC737170020230868
:101AD800F786E9BFB767004093060020D4C73704EC
:101AE8000020B7C7004023A007001304845483478D
:101AF800C4328546FD1793F7F70F63F8F60A832774
:101B0800476C130584341306402481452306D432D8
:101B1800232EF4322320F43423280432232A0432D7
:101B2800A3020434EF10204AB717004013077005CA
:101B38002380E704130780FA2380E70483C6470459
:101B4800094793F6F60E2382D704238007049306E9
:101B5800C458B78700402398D7009306C45C239CD9
:101B6800D7001304C460239E870023860700B1466C
:101B7800A386D7002381E7022382E7022380070098
:101B8800A3810700130790022380E7009D46238165
:101B9800D70037E700E0B70610002320D71003C7A7
:101BA8000700136707022380E700B240224441017F
:101BB8008280B7C7004023A00700C5BF011122CC0F
:101BC8002E844AC839462A898145228506CE26CAE6
:101BD8004EC652C4EF10203F83470900094763836C
:101BE800E70085472300F400B147A300F4008359B8
:101BF8002900930609011D4893D78900A301F40021
:101C08002301340181478545294503C7060011CBC7
:101C18006341F806034744003396F500518F2302C9
:101C2800E400850793868604E391A7FE8544194A54
:101C3800B3859900C205C1814A85EFF06FFEB307ED
:101C48009400A382A7008504E39444FF9D47A3055D
:101C5800F4002285B14549382306A4002181F240C9
:101C6800A306A4006244D2444249B249224A05610B
:101C7800828003465400138787FF3397E500518F0E
:101C8800A302E40079BF7971B71700204AD003A9ED
:101C9800C76806D622D426D24ECE630F0906B726C9
:101CA800004037170020B71900200327476CC042AF
:101CB80083C65968ADEA8A854A850937834749004A
:101CC800130770020A846369F70037C700401CC70E
:101CD800371700202308F7862D32B7C700409C57D6
:101CE800898B85C7B7C700401547F8C337C7004079
:101CF800814713070702B9463306F4000346060076
:101D0800850710C3E39AD7FEED388547A382F968A3
:101D1800B717002023820768B25022549254025900
:101D2800F24945618280B714002003C64468A5467D
:101D380063E6C60C83C7446813078004B387E702C9
:101D4800CA9783C70701C1C76D30371700209307AB
:101D5800076883C63700D1CE83C64468034707683F
:101D6800631BD70883C6170003C72700A381070092
:101D780003C6446883C74468930580040A85B3870B
:101D8800B702930500633E99834789012310B10088
:101D980099458507A301F100A302E100231301007F
:101DA8002301C1002302D100EFF00FF40247B70767
:101DB8000020938787542313A10023A6E7641247C2
:101DC80023A8E764B71700202147238EE7667370BE
:101DD800043083C7446885072382F468736004303D
:101DE800130500192254B25092540259F249456120
:101DF8007DB60147B5BF014781469DBF1306803EAA
:101E08003304C402BD66938606A63354D40233074E
:101E1800C7023A947370043083A6C76803D72600B4
:101E280005072391E6007360043083A4C76883D54F
:101E380024002685EFF0CFDE83A7042E05672382D2
:101E4800A400A3820968B306F44013077738130582
:101E5800800C6368D700056713078738BA973385FE
:101E680087402A9423A0842EB5BF01112E862EC642
:101E7800AA8537150020130545BB06CEEF10401381
:101E88003246B78700402380C70203C7270213776B
:101E9800C70F2381E702F24005618280B716002050
:101EA8009386466703D726000D4693578700638CB1
:101EB800C702636EF60005476385E708094763872D
:101EC800E708B78700403D472381E7028280130770
:101ED80010026383E70813072002E394E7FE2965ED
:101EE8001305C5B525A09377C70FE1FF1377F70F43
:101EF800A967131627009387C790B29703A54727AA
:101F0800A9679387C73F3E978347070003D76600B3
:101F1800011106CEBA8563F3E700BE85C205C1810B
:101F28002EC62AC499372245B245F240B717002079
:101F38002E9523A8A766B717002023970766056183
:101F480082802965C9471305C5B1C9B729659307B3
:101F58009002130505B35DBF2965A547130525B490
:101F680075B7B717002083C7B766A1C7011122CC80
:101F7800371400208347446A06CE85EB2E86AA854F
:101F880037150020130545BF32C6EF1060023246F0
:101F980085472302F46AB7870040A380C70203C7B6
:101FA80037021377C70FA381E702F2406244056145
:101FB80082808280B9CD8347050049476383E70261
:101FC800636AF7004147638CE70045470945638921
:101FD800E7008280130700026387E70082800D45CF
:101FE80051BC0545F5BFB7070602011193870702E3
:101FF8003EC09D472302F100B717002083C7C76B77
:102008000A85C14506CEA302F100A13FF240056151
:1020180082808280411126C2B704002093848454B0
:1020280022C4130600042A8481451385C46006C6A9
:10203800EF00707901CC1307F4FF854663EDE600E5
:10204800E1572396F460FD572387F460B240224499
:102058009244410182800D47AA87631BE400A96569
:1020680013060002938505B93E85EF007074F9BF29
:102078007114E36D87FC260413075004E36887FC9A
:10208800A96513060004938545F8F9BF37130020A6
:102098000347D365B946B7170020B306D70283A80C
:1020A800476CB7070020938787543388D7002316D7
:1020B800186FA308C86E93D8080109822317186FF0
:1020C8002308A86E058A0DCE85CD83D60500231971
:1020D800D86E83D62500231AD86E930720030507E8
:1020E8003367F70293061003A30EE3643717002043
:1020F8008347C76563E5F6008507230EF76482808A
:102108002319086E231A086E231B086E231C086EF9
:10211800E9B7397122DC26DA4AD84ED652D456D2DB
:102128005AD05ECE06DE2A8BAE8B328901447D5AA8
:10213800914AB7A40040894952C63306894063D3FF
:10214800CA0011464206B3858B0041826800EF0041
:102158003066B3078B00DCC0B24711049CC423A0CF
:102168003401EFF00FB693170401C183E3E627FDAE
:10217800F2506254D2544259B259225A925A025BCE
:10218800F24B014521618280197113069004814543
:102198004808A2DCA6DACAD8CED6D2D4D6D286DEF1
:1021A800EF007062B76752009387E7843EC6B7179F
:1021B800002083A7076C37140020130404EF3EC8DF
:1021C8008144A549130AC1001D49A94A0345410193
:1021D80063EFA9028347140095C733052503194601
:1021E8009305240025055295EF00905C8347410133
:1021F800338727038507230AF100130707060A9781
:10220800A30D97FA850413040404E39154FD0147D0
:1022180081476C009306F0043386E5000346060008
:102228000507B18FC207C18313D6F7008607B29797
:10223800E314D7FEA30DF104A183230EF10437A400
:102248000040B77707005CC0854404C0EFF06FA773
:10225800B7770700938707105CC004C0EFF06FA63C
:10226800377507006C001306100541055D35F650FB
:102278006654D6544659B659265A965A09618280E8
:102288005D71B7170020A6C283A4C76886C6A2C41A
:10229800CAC04EDE52DC56DA5AD8638A0414638800
:1022A8000514B147B2892A846398F518A9661306FC
:1022B800B5002A879307F00F938606BB03450700EE
:1022C8000507A98FB69783C70700E319C7FE034719
:1022D800B4006316F71603490400054793576900CD
:1022E8001379F9032308F100A3082101638BE71090
:1022F80009476388E7046394071483171400231AB3
:10230800F10083173400231BF10083175400231CAA
:10231800F10083177400231DF1008347A4000347CD
:102328009400BD8BA2075D8FAD8399C3FD775D8F48
:102338000607231EE1008347A40091838A07230F21
:10234800F100A54763E5270B930780043304F902DE
:10235800269483470401C1CFB717002083A7476C91
:10236800938909F8230034035CCC8347E101296988
:102378002301F40203154101EF7040408325093E13
:10238800EF60F04648D003156101EF70203F8325C8
:10239800093EEF60D04508D403158101EF70003E77
:1023A8008325093EEF60B04448D40315A101EF70BE
:1023B800E03C8325093EEF60904308D80315C1012E
:1023C800930700005CD81CDCEF70403BA96783A52D
:1023D800473EEF60D0418347140148DC81E78547D9
:1023E800A308F40083A78431850723ACF430B640F2
:1023F800264496440649F259625AD25A425B6161B0
:10240800828083471400114693056400A30FF100EE
:102418008347240048102300F10283473400A300B7
:10242800F1028347540003474400A207D98F2311C0
:10243800F102EF00F03731B78547E38AF5FA8347B1
:102448000400130700026385E71C13072002638A50
:10245800E72C4147E39DE7F8D547E3FAB7F8D145BC
:102468002285EFF06F888347540103474401A20790
:10247800D98FE31EF5F603492400A547E3E927F7BA
:10248800130780043307E902269783470701A5D37A
:102498008347870103463400850793F7F70F638E58
:1024A800C71483461701638A061483A6C431B30789
:1024B800F64093F7F70FBE9623AED43003471702C2
:1024C8009D463307D702A946B387D702BA971307A1
:1024D80080043309E9028D83938909F82699A300BA
:1024E800F902B717002083A7476C230CC900230003
:1024F8003903232EF90083472401A9692301F9022E
:1025080083473401A301F90203455400834744007B
:1025180022055D8D42054185EF70402683A5093E61
:10252800EF60F02C2322A90203457400834764005E
:1025380022055D8D42054185EF70402483A5093E43
:10254800EF60F02A2324A9020345940083478400FE
:1025580022055D8D42054185EF70402283A5093E25
:10256800EF60F0282326A9020345B4008347A4009E
:1025780022055D8D42054185EF70402083A5093E07
:10258800A969EF60D0262328A9020345D400834710
:10259800C40022055D8D42054185EF70201E83A58C
:1025A800493EEF60D024232AA9020345F40083475B
:1025B800E40022055D8D42054185EF70201C83A54E
:1025C800493EEF60D022232CA9020345140183471A
:1025D800040122055D8D42054185EF70201A83A50F
:1025E800493EEF60D02083471901232EA902E39BBF
:1025F80007DE8547A308F900F5B393078004B307FE
:10260800F9021D47A69783C71702B387E702C1B52A
:1026180083C70400F917E39C07DC93B5D500E3985A
:1026280005DCAD452285EFE03FEC8347C400034756
:10263800B400A207D98FE31CF5DA7D59138A240167
:102648008149930524004A8BA94A8347EAFF85E319
:102658006316690113998901135989418509130A78
:102668008A04E39459FFFD57631BF90049B31946DF
:1026780052852EC6EF400037B2456DF14E8931467E
:10268800814513059101EF00101485679387173270
:10269800930524001946130521012318F100EF00C2
:1026A8003011B7F7FF1F230C210103C6D77E83C65D
:1026B800E77E03C7F77E03C5977E83C5A77E83C7DA
:1026C800877E230EC100A30ED10093E72700230FB6
:1026D800E100230DA100A30DB100A30CF10083C7F5
:1026E8008400CD450808A30FF10083C79400230098
:1026F800F10283C7A400A300F10283C7B400230139
:10270800F102EFE07FDEA301A10221812302A102F1
:10271800EFE03FEFD5450808EFF02F9FEFE07FEDA2
:10272800F9B183C70400F917E39307CC93B5C50043
:10273800E39F05CAA9452285EFE01FDB8347B40064
:102748000347A400A207D98FE313F5CA83472400DF
:102758002547E36EF7C803479400E31A07C8130731
:1027680080043389E70219469305340013052901CB
:102778002695EF00F003B387240105472398E70067
:10278800238C0700A380070283C7C400BA97238657
:10279800F400B1B982807971B787004006D622D497
:1027A80026D24AD04ECE52CC56CA83C4670003C73D
:1027B800770093F7240095CB9377070305493D8B62
:1027C8006304272F894A6306573519EB130A000259
:1027D80063834727130700036385E7086382072C91
:1027E800B787004009472383E70093F71400A1C384
:1027F800B7870040A3810700B71700202386076624
:10280800B7170020A3850766B7170020238507663A
:10281800B71700202382076A3787004089472301BA
:10282800F702A301F702BA8705472383E7009188D7
:1028380085C0B787004083C75700371700208983B2
:10284800858BA304F766B787004011472383E70009
:10285800B250225492540259F249624AD24A45610E
:102868008280B787004083D507013704002013040E
:10287800845421461305C466252FB78500402A884D
:102888009385250229452380A5000323C466B7182C
:1028980000200346C46623AA686603230467938856
:1028A80048678347D46623A26800937806060357CF
:1028B800E46683560467835924677D8A6396081003
:1028C80049E2A54663E0F602A9668A079386468729
:1028D800B6979C43828723160466894579A0894761
:1028E800631EF700B78700403D472381E702CDBD4F
:1028F8001377F707B71700202386E766EFE05FB97D
:10290800C5B5B717002083C7A7662306F466A9A82C
:10291800B71700202385E76683C7A7663717002007
:10292800B337F000A305F7668347B766E1DBB787DF
:1029380000400947A381E702B71700202382076AEE
:1029480075BF63182603638FA7006369F500C1D7B5
:102958001947E399E7F8EFF06FD459B52D47E38F9E
:10296800E7F849B72306046685454285EFF0EFCFBF
:1029780085BD631E560B8545BD8A6384B7020D4627
:10298800638AC702A5F323160466E398B6F4B787EB
:10299800004083C73702F18FE391C7F42306D4665A
:1029A8002DBF29FFFD16B9FAB78700400947A38153
:1029B800E702A9B7FD16B9F231F3B787004003C79C
:1029C800370213673700E5B7639348076311260793
:1029D800FD1793F7F70FE367F5F0A9668A07938663
:1029E800C689B6979C4382871304000481454285B3
:1029F8002286D12B2A88CE8563733401A285C2052D
:102A0800C181A5B7B717002083C78766FDBD21839D
:102A1800B71700202384E766D5B5B707002083C71A
:102A2800874EE5B5B70700202384E74EC1BDBD47F3
:102A38002380F50075B3371700208347C76699CB05
:102A4800B787004083C637008D0789E60347C76606
:102A58002380E700B719002003D4E9661DC893074F
:102A68000004228963F387003E89371A0020832AED
:102A78000A674209135909015685CA85EFF0EFBE66
:102A880033852A01330424412328AA6623978966BB
:102A980081BBB787004003C727021377370FB1B54B
:102AA800B7870040294791B585C713070002E39906
:102AB800E7D2B71700202382076A37870040834789
:102AC800370293F7C70F93E72700A301F70209BB63
:102AD800B717002003A7476905C7B787004083C712
:102AE80047009306000493F7F70F93F5F70F63F485
:102AF800F60093F5F60F37150020130505440297E5
:102B0800B787004003C737021377370FA381E7025F
:102B1800C1B9639D0732B787004083C747003704B0
:102B280000207D4713F6F70F130484546396E72AB1
:102B38000327C45CB757424393875735631EF7286A
:102B48009305C45C1305A434A521035904358357A0
:102B5800E4340357443542093369F900835724356F
:102B68004207232C24375D8F83479435232EE43680
:102B78009306A00263E2F60AE54663E2F6088D468C
:102B8800638AD70AC9466385D7106381071C9307F0
:102B98005005A304F436930730052305F4362306BD
:102BA800F436935789002307F43693570901A3078E
:102BB800F436935787002309F43693570701930691
:102BC8002004A3062437A308E43613598901A3096E
:102BD800F43661838547A305D43623082437230AAE
:102BE800E436A30AF43635494A8693059436130524
:102BF800C4607D2EB7870040238427039DA89917BA
:102C080093F7F70FC146E3E4F6F8A9668A079386B7
:102C1800868CB6979C4382879306A005E399D7F6DE
:102C28002146814513059438792E99472305F438B0
:102C3800214631A8494681451305943869269307EA
:102C48000007A304F438A9472308F4384946834702
:102C58008438638F070E83274438638B070E032558
:102C68000438EFF02FBBB787004013070004238414
:102C7800E70203C747021377C70F2382E702B78724
:102C8800004003C747021377370F2382E70289BE44
:102C9800A965130640029385C5CB13059438092E00
:102CA800130640026DB78D4723050438A305043881
:102CB80023060438A304F438114651BFB7070002AD
:102CC8009387F707A3040438231504382326F43818
:102CD80023080438B1BF835704360347C43513D6D5
:102CE8008700A2073E968347B43542074206E207AB
:102CF800D98F0347E43541822322C438D98F03474B
:102D0800D43526062207D98F2320F4388547230493
:102D1800F43835BF835704368346C4352304043852
:102D280013D78700A2073E978347B435C2064207E8
:102D3800E207D58F8346E43541832322E438D58FD3
:102D48008346D435A206D58F2320F438014601B72F
:102D580037150020130545B505C29307000463D352
:102D6800C7003E869305943832C699243246B78701
:102D780000402384C702F5BD93075005A304F43629
:102D8800930730052305F4362306F4369357890054
:102D9800A30624372307F4361307200493570901A1
:102DA80013598901A307F436A305E4362308243709
:102DB800A308043623090436A3090436230A043673
:102DC800A30A0436354422869305D5D5D522B7877C
:102DD80000402384870271BD83478438E39107EA62
:102DE80083274438E38D07E803270438FD17232297
:102DF800F43805072320E438E39307E893075005E0
:102E0800A304F436930730052305F4362306F43675
:102E18008327843713072004A305E43613D78700D4
:102E2800A306F4362307E43613D70701E183A30783
:102E3800E4362308F436A308043623090436A30924
:102E48000436230A0436A30A043671BB13070002AA
:102E5800E398E798B70700209387875403C7873814
:102E680049CF03A7473851CB03A507387D1723A2BD
:102E7800E738050523A0A73811CFEFF0AF99B7873A
:102E88000040130700042384E70203C747021377AF
:102E9800C70FE5BB13075005A384E73613073005B2
:102EA8002385E7362386E73603A78737930620046A
:102EB800A385D736354493568700A386E7362387FC
:102EC800D73693859736935607011385C760618374
:102ED8002286A387D7362388E736A388073623892F
:102EE8000736A3890736238A0736A38A0736C920F7
:102EF800B78700402384870249BF3787004083474C
:102F0800470293F7C70F93E727002302F702C9B8D0
:102F1800411106C68A87B705002037C7ADDE9385FD
:102F2800854F1307F7EE98C9371700200327476C1A
:102F3800B8C52147A386E5048DC3984398D1D843E3
:102F4800D8D1984798D5D847D8D5984B98D9D84B41
:102F580098CD984FDC4FD8C9DCD98A87DCCDA147FA
:102F68002382F50023AC050223AE050223A0050445
:102F780023A205041146D1050D45EFF02F9199675D
:102F880037170040938757AA1CCB01A0397106DE7A
:102F980016DC1ADA1ED82AD62ED432D236D03ACE39
:102FA8003ECC42CA46C872C676C47AC27EC08D3745
:102FB8002A8309CA83830500230073007D1605034D
:102FC80085056DFA82802A8311C62300B3007D1619
:102FD800050365FE8280B7879303317137070020A8
:102FE800938707702326F74E06DF4AD952D522DD8C
:102FF80026DB4ED756D35AD15ECF62CD66CB6AC98F
:103008006EC7B7170040194798C33D67B7270040F8
:10301800130707A698C723A20700054923A027017D
:10302800984B6C08371A00203367270198CBB7E70D
:1030380000E0416723A0E710014523220A6CEFE076
:103048000FE905656C1013050580EFE04FE81146A0
:103058006C1037750700EFE06FE43257B7574C53E1
:103068009387D7646305F70437740700B7A4004053
:10307800B7890700C0C023A0240113040410EFE09F
:103088004FC4E31934FFB7574C539387D76411469D
:103098006C10377507003ED6EFF0AF87377507001D
:1030A80009466C1011052316C102EFF08F8637040C
:1030B80000201304844F1840B7574457938777F478
:1030C800631AF7181C4411450146850781452302F8
:1030D800A4001CC4EFE09FFBB717004013070004CF
:1030E80098C3B7574457938777F41CC0B717004065
:1030F80003C787008D451305002013671700238435
:10310800E700EFE00FD185454145EFE08FD00D4452
:1031180013090020B764004013050020EFE04FD7E3
:1031280013054006EFE0AFBA1305400623A62401B5
:103138007D14EFE0CFB96DF03704002013048454F8
:10314800714681451305C432BD3D85679843FD57D7
:103158006309F700056758436305F7008547A3022D
:10316800F4343719002013098954930B899A1306EC
:10317800002881455E85813DB777070037770700CE
:103188007410C1071307170603C6070085078506CD
:10319800A38FC6FEE39AE7FE3257B76752009387BC
:1031A800E784630DF70AEFE02FC1B717002023A0CB
:1031B800A76CEFE07FFD130600328145228521359B
:1031C8003775070029466C1013050530EFE00FCD61
:1031D8003257B7474B4E93879755631AF700A14567
:1031E8006810EFE06FB083574103638AA710EFE0E0
:1031F800AFBC08C4AA8715E983274A6C9394D70003
:10320800BD8C93D71401BD8CB787379E9387979B46
:10321800B384F402EFE04FBAB7C7FECA9387E7ABAF
:103228006384A400B3C7A4001CC437474B4E1307DC
:103238009755A14568103AD63ED8EFE0EFAA231A71
:10324800A1023775070029466C1013050530EFE019
:103258005FEC45A885472302F400BDBD01478147BF
:103268001306F0047410BA9683C606000507B58FD6
:1032780093D6F7008607B697C207C183E314C7FE43
:103288000347C1078346B1072207558FE39DE7F03F
:1032980003474103A94763F4E700230AF1024257B1
:1032A800B71700209309510323A0E76C014BA54DE4
:1032B800054CB71C0020371D002083474103E35C01
:1032C800FBEE83C4690063E99D02939A6400138549
:1032D8002A001946CE855E95E13983A78C69B31417
:1032E8009C00CA9ADD8C8347CD6BA3848A9B23AC50
:1032F8009C688507230EFD6A050B9D097DBFC25793
:103308001CC4A9653146938505CB681055313146F3
:103318006C10130504326939B7C40040054523A071
:103328000400EFE0CF9A454798D8B7574C53094760
:10333800D8D8938727659CC823A404009D47DCC47C
:103348001307100398C0BCC00547B7E700E023A2E5
:10335800E7108967B71600209387872823A4F668A3
:1033680013060028B71700208145130589C623A630
:1033780087682300E4008139130789EEB716002017
:103388002320070023220700232407002326070001
:1033980023A806689307C0F92301F5004105E31D3A
:1033A800A7FEEFE08FE5B7170040130770052380ED
:1033B800E704130780FA2380E70483C6470413074A
:1033C800C466054593F6F60E2382D70423800704C6
:1033D800B78700402398E7001307C46A239AE700D9
:1033E800130789EF239CE700930600FC2386D70088
:1033F80009472381E702A381E70223800700A3810D
:103408000700130790022380E7009D462381D70019
:1034180037E700E0B70610002320D71003C70700DE
:10342800136707022380E70089673717002093870F
:10343800C7FB232AF768EFE0EFE3B717004023A2A2
:10344800070083274A6C232009F41147232CF9F23B
:103458008327C9F38507232EF9F2B717002083C7FE
:10346800D76C6399E700EFE0EFC013054006EFE083
:103478000F86E1B70D476390E7060347C43205CBD3
:103488001306F7FF83264A6C1376F60F854563E427
:10349800C502832704343387F640B7C702009387F1
:1034A80007F263F6E700930740502316F432EFE083
:1034B8006FBC29456DBFE31CF7FE83475434E5DB39
:1034C8001305401FEFE0AF809967371700409387D7
:1034D80057AA1CCB01A0B769004003A74900B7044D
:1034E800002083C6044F418B933A1700631C0734AE
:1034F80099E603274A6CB717002023AEE7682388AC
:10350800544F83244A6CA2899306042DA28713067C
:10351800401F03C7070119CB03C7170101CBD84FB9
:103528003387E4406374E600A38807009387870421
:10353800E391D7FE0347040089476313F704032781
:10354800442E9D67938707533387E44063F4E7006D
:10355800EFE0AFCA8327442E13074006B387F44031
:103568006370F7026C1022852322942EEFE00FE59A
:10357800EFE02F89B9456810EFE02FB9EFE06F87CA
:10358800A96783A7073E5E8CDE843EC4A96C83C707
:1035980009016386072083C719010547A380E40052
:1035A8002380F400638D071E83C7D40383C6890173
:1035B800BA9793F7F70F9854638AD70001CBD05482
:1035C800B387F64093F7F70FB297DCD4296D03ABB6
:1035D800490283A7090383258D3E0507A38ED402DC
:1035E80098D45A853EC6EF50704F83AA890283AD9E
:1035F800C902032D8D3E634BA00003AD0C3F5A85D5
:10360800EA85EF503056634305005A8D296B8325B0
:103618008B3E5685EF50904C032B8B3E634BA0009E
:1036280003AB0C3F5685DA85EF50D0536343050052
:10363800568BA96A83A58A3E6E85EF50304A83AAC5
:103648008A3E634BA00083AA0C3F6E85D685EF5057
:10365800705163430500EE8AA96D83A58D3E3245FE
:10366800EF50D04783AD8D3E634DA000A96D83A573
:103678000D3F3245EF50104F83AD0D3F63430500BA
:10368800B24DA2456A85EF509056EF602009A245D9
:103698002394A4005A85EF509055EF602008A24566
:1036A8002395A4005685EF509054EF602007A2455B
:1036B8002396A4006E85EF509053EF602006296B87
:1036C80083AA49038325CB3E2397A4005685EF5050
:1036D800F04083AD890303ADC903032BCB3E634C94
:1036E800A000A96703AB473F5685DA85EF5090479E
:1036F80063430500568BA96A83A5CA3E6E85EF50C1
:10370800F03D83AACA3E634CA000A96783AA473F3D
:103718006E85D685EF50104563430500EE8AA96D86
:1037280083A5CD3E6A85EF50703B83ADCD3E634D9A
:10373800A000A96D83A54D3F6A85EF50B04283ADC7
:103748004D3F63430500EA8D296D83254D3E5A851B
:10375800EF50F049EF50907C83254D3E2398A4000C
:103768005685EF50D048EF50707B83254D3E239906
:10377800A4006E85EF50B047EF50507A83C72902F6
:10378800239AA400238BF40083C73902A38BF40087
:1037980083C70902238CF40083A7C901DCCCB717BF
:1037A8000020938404049387071793898904E3907E
:1037B80097DE0347C400B7170020238EE76AB717C0
:1037C800002083C6D76C89476397F610B71400208A
:1037D80083C7446BA1E7B737004093870780984BAE
:1037E800799B98CBB7E700E03707000823A0E718D4
:1037F800B717002023A0076A83274A6C2300D40048
:1038080037C700402322F42E930750021CC7230415
:10381800F432EFD01FDE8547238AF46AB7170020F9
:1038280083A7876C03274A6C1D8FBD67938707A6FC
:1038380063ECE708EFE00F849307C05D0100FD1714
:10384800F5FFE5BEE38D06CAB716002083A6C66954
:1038580003274A6C158F8566938686BB63F7E60453
:103868001306002881455E85EFF0EFF5B7170020B5
:1038780023AC0768B7170020238E076A154CEFE0C2
:10388800BF90130B002013050020EFD07FE0130535
:103898004006EFD0DFC31305400623A669017D1C4F
:1038A800EFD0FFC2E3110CFE99B993062003E3F8A9
:1038B800E6C405456396A7000945EFE0AF9B81B1D3
:1038C8000947E39EE7C2D5BFEFE02F930545238A5A
:1038D800046AEFE02F9AB717002083CAD76C854790
:1038E800E39AFAF4371700208326076B83274A6C7C
:1038F800958F9146E3F0F6F483274A6C2328F76AFC
:10390800EFD07FBA05D9B714002083C7446AE39380
:1039180007F2130600048145130589C2EFF0AFEAE8
:1039280037170020032BC76A2A88230459C3569BDC
:1039380093378B02B307F040B377FB002326F76A6F
:10394800371700208329876A01468145D69993B79E
:10395800890CB307F040B3F7F9002324F76A37134B
:103968000020DE871307A9C2130E803E930E40067F
:103978001D4FA948194583C61700C5C28326436C45
:1039880083AFC701B386F6416374DE002380070066
:1039980083AF8702638F0F00D457B386D603B3D69D
:1039A800F60383CFC703B38FEF03FE968D82238E72
:1039B800D7022300B70083C6770183CF0700050627
:1039C800F99AB3E6F601A300D70083968700290782
:1039D8001376F60F93DF1640A586230CF7FFA30C8A
:1039E800D7FE8396A70093DF1640A586230DF7FF21
:1039F800A30DD7FE8396C70093DF1640A586230E36
:103A0800F7FFA30ED7FE83C66701230FD7FE83C631
:103A1800870193864606A30FD7FE850563861501A1
:103A280093870704E319A6F4930500044285A304C9
:103A3800C9C2EFE00FD39307700263E267059307EB
:103A4800700CE3F937DFEFD01FA6E30505DE83C767
:103A5800446AE39107DEE579814D154B93899925F1
:103A6800930C5004414DB71A002083471C00E1E72E
:103A7800850DA947130C0C04E399FDFE65BBEFD037
:103A88009FA255DD83C7446ADDFBDE8D014B8D4C5B
:103A98004D4DB71A002083C71D0081C783C70D008D
:103AA80081EB050BA947938D0D04E316FBFE41BF7F
:103AB80003C77D0102D002D202D4230E9101A30EC6
:103AC80061011376070993754700894719E293D76F
:103AD8002500230FF1001356170093771700860768
:103AE800058AD18F99C193E747001376070119C258
:103AF80093E787001377070219C393E70701414645
:103B08006C081305D102A30FF1002306A103EFF0FF
:103B18002FCA83A74A6CA90703C7446A09C703A722
:103B28004A6CE36BF7FE83C7446AA5FFC545681076
:103B3800EFE02FC3BDB783476C0102CE02D002D29B
:103B480041466C081305D1022302F10202D4A30EE8
:103B5800B101A30F6101231031032301910323064F
:103B6800A103EFF0EFC483A74A6CA90703C7446A0F
:103B780009C703A74A6CE36BF7FE83C7446AE39956
:103B880007EEC5456810EFE0CFBDDDB501A0828026
:103B98008280397122DC26DA4ED652D456D25AD0D7
:103BA80006DE4AD85ECEBA892E8A3284B684C28AA4
:103BB800468B014763580600370700803344E60008
:103BC8001307D0022380E700937BFBFD9307600473
:103BD8008D466388FB009387BBFB93B71700BE94A1
:103BE8008946D6879308C100130881002687D285A5
:103BF8002286EF00502D930770042A896393FB02F5
:103C080093F9190063850906B309950001468146B1
:103C18005285A285EF30905811E14EC61307000374
:103C2800A1A093076006B30995006306FB009307FC
:103C38006004E31DFBFC83470900938707FD81EFC0
:103C4800014681465285A285EF30505509C5854702
:103C5800858F23A0FA0083A70A00BE9945BF9386E3
:103C6800170036C62380E700B247E3EA37FFB247BA
:103C78000647F2506254B38727411CC3D254B25945
:103C8800225A925A025BF24B4A854259216182803C
:103C98002300C5009307B00263D60500B305B04002
:103CA8009307D002A300F500A54763D4B7064111D6
:103CB8001306F100930725003288A948130330063C
:103CC80033E71503B2867D1613070703A38FE6FEB5
:103CD8002E87B3C51503E345E3FE938505031387D4
:103CE800E6FFA30FB6FE3E86BA85636D070101475E
:103CF8006365B80013071101158FBA973385A7407C
:103D0800410182808348070005070506A30F16FFB7
:103D1800E9BF930700032301F50093850503930783
:103D28004500A301B5003385A740828019713ACCBC
:103D380086DEA2DCA6DA2E84B684CED6D2D4E2CC35
:103D4800E6CAEAC8EEC6B28CCAD8D6D2DAD0DECE77
:103D58002A8CEF0030021C413E853E8DEF00300278
:103D6800032A0400624702DC93760A10834984011F
:103D78001C43AA8DF1CA9386470014C39C430810BC
:103D880098433AD0D8433AD298473AD4DC473ED6FB
:103D9800EF40F068AA8A2E89976700009387076624
:103DA80003A847009C43131B19002324540523260A
:103DB80024053E86C286568593551B003ECC42CECE
:103DC800EF40504D41ED6246F246568593551B0033
:103DD800EF3070516354A008014681465685CA8564
:103DE800EF307050635605009307D002A301F40426
:103DF8009307700417690000130989F363E6370114
:103E080017690000130989F2137ABAFF8D47232036
:103E180044011CC8014A2687E6867018A285628577
:103E2800C926FD5A631255177D55F6506654D65467
:103E38004659B659265A965A065BF64B664CD64CE6
:103E4800464DB64D096182809D07E19B93868700A8
:103E580083AA070003A9470014C33DBF5686CA8634
:103E68005685CA85EF40104305C563560900930778
:103E7800D002A301F4049307700417690000130922
:103E8800A9EBE3E337F9176900001309A9EAADBF05
:103E98005C407D5713FBF90D639FE70699475CC0AB
:103EA80013670A4018C03C183EC002C2544093072A
:103EB80031034A86D685CE88130841036285D139F5
:103EC80093077004D2552A89631EFB04F55763C50E
:103ED800F5005C4063D7B708F91993F9F90FFD1598
:103EE8004E86130504052EDA6533625785462A8AFD
:103EF800B307A7001CC863C5E6001840758F19C32F
:103F080085071CC883473103E38707F09307D0026E
:103F1800A301F40409B713077004E313EBF8C9F31A
:103F28008547B5BF93075006E3FB37FB9307600649
:103F3800639BF9025C40635BB0000CC881E71840E2
:103F4800058B09CF8507AE971CC809A889E71840D3
:103F58008546058B19C39386270014C82CCC014AC3
:103F680055B793097006E25763C9F5001C400CC8A1
:103F7800858BEDD793871500C1BF05476344B00013
:103F880009470D8FBA97C9B71C4013F7074015E3C7
:103F980014484A86E68562858294E30755E91C4001
:103FA800898B639D0722F2574844E350F5E83E8524
:103FB800ADBD13075006637B371928446C4401468E
:103FC8008146EF30B01D21E98546176600001306CB
:103FD800E6D6E68562858294E30855E56259D257AC
:103FE80063C527011C40858BDDDBEE866A86E68586
:103FF800628582947D5AE30945E381495299E3D069
:1040080029FB85461306A401E68562858294E30DA3
:1040180045E18509EDB7D2576345F0068546176631
:1040280000001306A6D1E68562858294E30E55DF6B
:10403800625AD257B367FA0081E71C40858BA5D333
:10404800EE866A86E68562858294FD5A8149E30D8B
:1040580055DDD257B307F04063CBF900D2864A86C4
:10406800E68562858294FD57E31BF5F275BB8546AC
:104078001306A401E68562858294E30755DB85096A
:10408800C9BF625A8329840563533A01D2896349B7
:10409800300793C7F9FFFD87014BB3F9F900130601
:1040A800A401FD5B832A8405B3873A416343FB0679
:1040B800D25763CA47071C40858BB5E7D259B30767
:1040C8005A41B3093A4163D33701BE896346300781
:1040D80093C7F9FFFD870149B3F9F9007D5BD25712
:1040E800B307FA40B3873741E35BF9EA854613061D
:1040F800A401E68562858294E30865D30509C5B7FE
:10410800CE864A86E68562858294FD57E313F5F8E4
:1041180021BB8546E685628532CC8294E30675D15B
:104128006246050B41B7EE866A86E685628582940B
:10413800FD57E315F5F8CDB9CE8633065901E68566
:1041480062858294FD57E315F5F8F9B9E259854679
:1041580063C43601F58FB5C385464A86E685628510
:104168008294FD5AE30255CDEE866A86E68562851D
:104178008294E30B55CB28446C4401468146D6997A
:10418800EF30D0010DC9CE8613061900E685628589
:104198008294631E550149B985461306A401E68534
:1041A80062858294E30255C90509E34739FFD2863F
:1041B8001306040575B50149CDBF4A86C1BF8546BA
:1041C80013069401E68562858294E30F45C50509C7
:1041D8005C447257998FE344F9FEF1B301497D5A63
:1041E800C5BF79714ECE9C49BA89984522D44AD028
:1041F8005AC85EC606D626D252CC56CA2A8B2E84F8
:104208003289B68B63D3E700BA872320F9000347C6
:10421800340401C785072320F9001C4093F70702DF
:1042280091C78327090089072320F900044099884A
:1042380091E8130A9401FD5A5C4403270900998FF9
:1042480063CDF4041C408346340493F70702B33665
:10425800D000ADEB13063404DE855A858299FD57EC
:104268006304F5041C4011478144998B639AE70065
:104278008327090044449D8C93C7F4FFFD87FD8C78
:104288001C4418486354F700998FBE940149690487
:104298007D5A63982405014509A885465286DE851E
:1042A8005A858299631E55017D55B2502254925405
:1042B8000259F249624AD24A424BB24B4561828066
:1042C80085049DBF3307D40013060003A301C70468
:1042D8000347540493871600A2978906A381E7042D
:1042E80095BF85462286DE855A858299E30E45FB71
:1042F800050945B7397122DC26DA52D456D206DED2
:104308004AD84ED683C78501B684930680072A8A81
:104318002E84B28A63E2F6029306200613863504D9
:1043280063EFF6006381071C93058005976600001C
:10433800938606A16380B7141309240405A89386FD
:10434800D7F993F6F60FD545E3E8D5FE9765000053
:10435800938585C78A06AE969442AE9682861C439C
:1043680013092404938647009C4314C32301F404CF
:10437800854769AA1C40084393F60708930545003A
:104388008DC21C410CC363D807001307D002B307C2
:10439800F040A301E404976600009386669A2947D3
:1043A80099A093F607041C410CC3F1DEC207C1872C
:1043B800D9BF0C40144313F505089C42910611E53A
:1043C80093F5050499C1C207C18314C383468401C8
:1043D8001307F006639FE60C9766000093864696DF
:1043E8002147A30104044C400CC463C805000840DD
:1043F800DD8D32896D9908C099CD3289B3F5E70210
:104408007D19B69583C505002300B900BE85B3D7CD
:10441800E702E3F5E5FEA147631EF7001C40858B24
:1044280091CB58401C4863C7E70093070003A30FCC
:10443800F9FE7D193306264110C82687D6867008EE
:10444800A2855285793BFD596316350D7D55F2508D
:104458006254D2544259B259225A925A21618280E6
:104468001C4093E707021CC093078007976600006B
:104478009386468EA302F4040C40084313F80508FB
:104488001C4111056318080013F8050463040800AB
:10449800C207C18308C313F7150001C793E50502D6
:1044A8000CC099C3414735BF18401377F7FD18C0B2
:1044B800D5BF976600009386A68829471DB7144084
:1044C8001C434C4813F80608138547006306080088
:1044D80008C39C438CC301A808C393F606049C43F5
:1044E800F5DA2390B700232804003289B9B71C43B2
:1044F800504081459386470014C303A907004A85A5
:10450800A92801C53305254148C05C401CC8A30142
:10451800040425B714484A86D68552858294E30751
:1045280035F31C40898B95E7F2474844E351F5F28F
:104538003E8531BF8546D685528532C68294E307CB
:1045480035F1324605095C447247998FE344F9FE18
:10455800E1BF014913069401FDB793F5F50F2A96BB
:104568006314C5000145828083470500E38DB7FECB
:104578000505FDB717C5FF1F130585E98280AA87C2
:1045880003C7070085076DFF3385A7407D15828027
:10459800011122CC1C49804906CE26CA4AC84EC6FB
:1045A80052C456C263CF87107D1493162400138912
:1045B8004501330AD9009309450183270A00CE969D
:1045C80098428507B354F7026367F7064E83CA8893
:1045D800014E814E03A70800910811031318070123
:1045E80013580801418333089802330797027298D9
:1045F800935708014208135808013E978327C3FFC1
:10460800135E0701420713960701418233060641EC
:1046180076964183C183998F13570641BA9742060C
:1046280093DE07414182C207D18F232EF3FEE37345
:104638001AFB9C42ADCBAA8AEF10004163480504DF
:1046480085044E864A8701450C431C42110713987E
:10465800050193960701C18213580801B3860641E4
:10466800AA96C181C1838D8F93D50641AE97C206A4
:1046780013D50741C182C207D58F1CC21106E37545
:10468800EAFC93172400CE97984315C72685F24075
:104698006244D2444249B249224A924A0561828020
:1046A8009C4289E77D14F116E3ECD9FE00C961B795
:1046B800984309E77D14F117E3ECF9FE23A88A0073
:1046C800F1B70145E9B735712AC2484D22CD26CB4D
:1046D8004AC9EED606CF4EC752C556C35AC1DEDE0A
:1046E800E2DCE6DAEAD83ACA3ED846D0AEC432D4DA
:1046F800AE843284B68D428905ED4145EF00D03B4A
:104708009247C8CF11ED975600009386E66601469A
:104718009305F00E1755000013058567EF10805DAF
:104728002322050023240500232005002326050055
:104738000C4191CD584185471245B397E7009CC578
:10474800D8C1EF00505B9247DC4F23A00700228AB4
:1047580063580406854706042320F900935714007C
:104768003ED43E8AB707F07F3377FA00631DF7041B
:1047780042578967320A9387F770135ACA001CC3D5
:10478800336A9A00E3080A308257975900009389E0
:10479800695E99C7975700009387F75D02571CC356
:1047A800FA406A44DA444A492A4A9A4A0A4BF65B6A
:1047B800665CD65C465DB65D4E85BA490D61828001
:1047C8002320090045B7A25B014681462685DE8580
:1047D800A68A26CE5ECCEF30601C0DE14257854795
:1047E8001CC3825799C702579757000093871755DC
:1047F8001CC397590000938969545DB71245B808DE
:10480800F4085E86A685EF10803D2AC413594A0134
:10481800664B63020912E2473707F03F130919C0D4
:10482800B207B183D98F02DA17670000130787BD73
:10483800104354435685BE85EF3010139767000028
:104848009387C7BC9043D443EF30C03797670000C5
:10485800938747BC9043D443EF20201B2A8A4A857C
:10486800AE8AEF40002D97670000938727BB9043DF
:10487800D443EF3020352A86AE865285D685EF2080
:10488800C018AA892E8AEF40A024AA84014681462E
:104898004E85D285EF302025635C05002685EF40E4
:1048A80040294E86D286EF30600F3335A000898CC0
:1048B8000547D9473AD663E39702139734009757C9
:1048C800000093872779BA979043D4437245E2450D
:1048D800EF30602163530500FD1402D6B3072B4166
:1048E800938BF7FF014B63D60B00054B330BFB4053
:1048F800814B63C30408A69B26D202C6A54763EF73
:10490800B70D9547054963D4B701F11D0149914792
:10491800638BFD0695476387FD0A89476382FD0A15
:104928008D4702C86382FD0A85473EC8FD5C668DD7
:10493800C94702CA85A07649930700025A99130706
:10494800294363D7E70293070004998F331AFA00C3
:1049580093072941B3D7F4003365FA00EF40E02507
:10496800B70710FE0547AA8AAE977D193ADA6DBDDA
:10497800998F3395F400DDB7B3079040330B9B4014
:104988003EC602D2A5BF85473EC8D247635CF00445
:10499800BE8C3E8D12478145544F1147130647017F
:1049A80063F7C7041245CCC2EF00F02AAA8939E19F
:1049B800975600009386864901469305F01A99BBDD
:1049C80002C8E1B785473EC8D247B38CF400138DBF
:1049D8001C00EA87E340A0FD85476DBF0549814D6E
:1049E8004AC8A9B7854C668DE68766CA65B7850546
:1049F80006076DB79247DC4F88C39337FD00638F76
:104A08000710630D09106353902013F7F4000E0785
:104A18009757000093870764BA9713D9444098437F
:104A280083AA470093770901638A071A97570000FA
:104A38009387C75F9053D4537245E2453ADC1379A4
:104A4800F900EF20900C62572A8C2E840D4A1758D3
:104A580000001308A85D631709183A866285D68690
:104A6800A285EF20900A2A872E8CB25763820720EE
:104A7800976600009386069B9042D4423A85E28569
:104A88003ADCEF30400662576354051E63050D1E7D
:104A98006356900997660000938646999042D442DF
:104AA8003A85E285EF3000121384F4FF2A872E8CB2
:104AB800050A668952853ADCEF40A0076256E2860D
:104AC800370AC0FCEF300010976600009386869680
:104AD8009042D442EF1070736257AA8A2E9A631FCD
:104AE800091897660000938666959042D4423A85E5
:104AF800E285EF3060675686D2862ADC2EDEEF200C
:104B080010716349A0586255F255B7070080568660
:104B1800B346FA00EF20307D634E0530F64763C593
:104B2800073813A7F4006301073813973400975721
:104B3800000093872752BA9703AC070083AC47005D
:104B48006345A001D24763C3072C138A19004E9D01
:104B5800176B0000130B8B8D7245E2456286E68663
:104B6800EF20A07AEF30D076AA8AEF30907C628668
:104B7800E686EF3020052A86AE867245E2455289E0
:104B8800EF30805E93870A03A30FFAFE2A86AE866B
:104B9800631C4D2FEF1070676286E6862A8BAE8BFA
:104BA800EF20F066634FA02A6286E6865A85DE8586
:104BB800EF20D05E09E593FA1A0063940A2AA24509
:104BC80012458504EF003013C2572300090084C33F
:104BD8008257E38707BC23A02701D9B6724C6244E9
:104BE800094AB5B59376190091CE032608008326A5
:104BF80048003A85D68542DCEF20D07C6258050A09
:104C08002A87AE8A135919402108B1B5B1CC3309A6
:104C180090401377F9000E07975700009387874352
:104C2800BA979043D4437245E24513594940975A7D
:104C38000000938AAA3FEF20F0782A872E8C094A31
:104C4800E30509E29376190081CE03A60A0083A63C
:104C58004A003A85E285EF20F076050A2A872E8CED
:104C680013591940A10AE9BF7247624C094AF5BBBA
:104C780026846A8981B5268401492DBD1306F9FF6A
:104C8800C2470E06975600009386C63CB2968842E5
:104C9800CC42DDCFAE86975500009385A57A2A864B
:104CA8008841CC413ADCEF2040665686D286EF3008
:104CB800A04B6257B3872901AA8A2E8ABEC04E89A3
:104CC8003A85E2853ADCEF30B060AAC6EF3070660C
:104CD8002A866255AE86E285EF300049B647050957
:104CE800568693870703A30FF9FED2862ADC2EDEA9
:104CF800EF20705F634F050E975700009387877208
:104D08006256F2568843CC43EF3000465686D28628
:104D1800EF20705D634805148647E301F9E0175CEE
:104D28000000130CAC7003260C0083264C0056853B
:104D3800D285EF20306903260C0083264C00AA8A0E
:104D48002E8A6255F255EF20F0672A872E8C8DBF88
:104D58005686D286BAC0EF20F0660647B387290187
:104D68002ADC2EDEBEC6CE8A3A85E285BAC0EF308E
:104D78003056130A0503EF30D05B2A860645AE8607
:104D8800E285EF30603EB647850AAAC0AEC2A38F5F
:104D98004AFF6392FA06175A0000130AAA6A032602
:104DA8000A0083264A006255F2554E99EF10F045E5
:104DB8002A86AE8606459645EF2070456344A00ACC
:104DC8006256F25603250A0083254A00EF30C0399F
:104DD8002A86AE8606459645EF20F050E35005D466
:104DE80013070003CA878346F9FF7D19E38CE6FEA3
:104DF8003E89A284E9B397570000938727639043BD
:104E0800D443EF20305C2A872E8CB9BF63140D027F
:104E180097570000938787629043D4436285E6855D
:104E2800EF20505A2A86AE867245E245EF20B04BF5
:104E38006341A026814A014AD2474E8913C4F7FF2D
:104E4800014B1245D685452DE3050AFA63074B0148
:104E580063050B001245DA85792D1245D285612D3F
:104E680049BF2684CA87930690033E8903C7F7FF84
:104E7800FD176317D700E39AF9FE0504130700032B
:104E880005072380E700B5B703260B0083264B00F0
:104E9800050AEF203053014681462ACE2ECCEF205A
:104EA800F02FE31B05CA21BB42476301071A0547D8
:104EB8006343B71752579387374309E76647930702
:104EC8006003998FB24A5A89124585453E9BBE9B1D
:104ED800EF00407E2A8A630E0900635C7001CA876E
:104EE80063D32B01DE87330BFB403309F940B38BC7
:104EF800FB40B247B1C3C247638E0714224463879D
:104F08000A021245D2855686EF009016AA852246D7
:104F18002A8A1245EF00607D2A84A2451245E12BBA
:104F2800B24722C4B38757413EC699C73246A285C5
:104F38001245EF00F0132AC412458545EF0080772B
:104F48009257AA8A63850736AA8512453E86014C80
:104F5800EF0010128547AA8A63C4B703A647014C1D
:104F680089EFA257B20791EB22579357470193F75E
:104F7800F77F81C7050B850B054C9257054581CFF7
:104F880083A70A018D078A07D697C843A52D9307DB
:104F980000023385A7405E957D8971C56D47F1474D
:104FA800634DA70A898F3E9B3E99BE9B635860015B
:104FB800A24512455A86EF00B0192AC463587001F9
:104FC8001245D6855E86EF00B018AA8AB25799C7EF
:104FD8002245D685EF005027634C05082684EA8CC5
:104FE800634D900B93A73D00CDEBE3970CE412457E
:104FF800D68581461546B12BAA8AAA852245EF0097
:10500800B024E35BA0E293071003138919002380FF
:10501800F900050435B5B247930AFDFF63C9570186
:10502800B38A574163400D025A89EA8771BDB24776
:10503800125756C6B387FA40BA973ED25A89EA87BA
:10504800814A59B53309AB418147BDBDB24A5A8936
:10505800014A51B53246A245E1BDE309F5F493078B
:1050680000023385A74071052A9B2A99AA9B3DBF58
:10507800A245124581462946E929C2472AC4138414
:10508800F4FFB9DF1245D28581462946D9212A8AFB
:1050980081BF2684814A014ABDB7C247638E07167D
:1050A800635820011245D2854A86EF00700A2A8A81
:1050B8005285630F0C0283254A001245692EAA8483
:1050C80011E997560000938666D801469305F02E9D
:1050D8006FF04FE403260A019305CA00310509065B
:1050E8000A06EFD0FFEC12450546A685EF005006EC
:1050F800B3873C013ECAA647528B138C19002A8AF3
:1051080093F417002245D685930CFCFFEFF04FC8A7
:105118002AC6130D05032245DA85EF00F012AA8B83
:105128001245D6855286EF00901554454247AA8508
:1051380099E62ACC2245EF003011E2452A8712452C
:105148003ACC62894D2E6247B366B701C58E89EEA7
:10515800130790036307ED0463557001B247138D7D
:1051680017032380AC01F1B963C80B00B3EBBB0193
:10517800B3EB9B0063980B04E355E0FEA245124590
:105188000546EF00E07CD6852AC4EF00F00B6346A5
:10519800A00061F913771D0069D713079003E31F77
:1051A800EDFA930790032380FC00CA8793069003C7
:1051B8003E890347F9FFFD176306D70C05072380CF
:1051C800E70041B1635BE00013079003E30BEDFCDC
:1051D80093071D002380FC00ADB1D247A30FACFF9D
:1051E800638A8707A2451245814629469D262AC417
:1051F800814612452946DA8563174B01992E2A8B79
:105208002A8A050C01B7B1262A8B1245D285814618
:10521800294681262A8AF5B781442245D685EFF0AA
:105228002FB733879900130D05032300A7018504C1
:1052380063D99401A245124581462946192E2AC4EC
:10524800E9BF0149635490011389FCFF13871900D2
:105258003A99014BA24512450546DD2DD6852AC44B
:10526800EF00807EE343A0F401E593771D0095FFEE
:10527800CA87130700033E8983C6F7FFFD17E38C2F
:10528800E6FEC1B6E396F9F29307100305042380FE
:10529800F90045BE0257975900009389E9AC975722
:1052A80000009387E7AC631B07CE6FF06FCF05450F
:1052B800014CE342B5CF5DB1AA8517B5FF1F0325A1
:1052C8002523B1A8411122C417C4FF1F13040440A9
:1052D8001C4026C24AC006C62A89AE8489E7814591
:1052E800EF00F01D08C0A6854A85EF00501DFD544B
:1052F800631A95007D54B2402285224492440249A3
:1053080041018280130435007198E30685FEB305D8
:10531800A4404A85EF00B01AE31F95FCE1BF0111D4
:1053280026CA93843500F19806CE22CC4AC84EC6C8
:1053380052C4A104B14763F3F400BE8463C40400FB
:1053480063FDB400B1471CC10145F2406244D24438
:105358004249B249224A056182802A8997C9FF1FBA
:1053680093890937E92883A709003E8431E8A6858F
:105378004A85893FFD572A846311F50C03A4090067
:10538800A287C1EF4DC4032A040081454A85229AA9
:10539800EF00F012631DAA081C404A859D8CA68563
:1053A8001537FD576305F5081C40A6971CC083A751
:1053B8000900D84335E797C7FF1F23AB073015A06F
:1053C8001440858E63C806042D47637DD70204C048
:1053D800330794006396870223A0E9005C4014C356
:1053E8005CC34A859D201305B40093074400619966
:1053F8003307F540E30BF5F43A94898F1CC0B1B735
:10540800D8C3E9BF58406395870023A0E900D1BFFE
:10541800D8C3C1BFA287404091BF3E84DC4395B743
:105428003E87DC43E39E87FE232207005DBFB1472A
:105438002320F9004A85112801BF04C15DB717C5AB
:10544800FF1F130525296F00B00A17C5FF1F130595
:1054580065286F00100A411122C4404D26C24AC077
:1054680006C6AA842E891DE84145B935C8CC2A84C8
:1054780011ED975600009386269001469305B006D5
:10548800175500001305C59DEF00D006232205001F
:105498002324050023200500232605005C4495E30A
:1054A8001306100291452685EF007008DC4C48C4AD
:1054B800DC4781EB0145B240224492440249410154
:1054C800828013172900BA97884301C9184198C3E5
:1054D8002328050023260500F9BF854533942501B7
:1054E800130654000A062685EF00700461D52322AE
:1054F800250100C5F1BF5C4D011122CC06CE2A84DE
:1055080085EF41452EC64D3B48CCB24511ED975627
:1055180000009386668601469305F008175500003B
:1055280013050594EF00007D2322050023240500C0
:10553800232005002326050089C95C4CD841DC4797
:105548000A07BA97984398C18CC3F2406244056130
:105558008280011122CC26CA4AC884492E84368901
:1055680006CE938645014EC652C481459C428505A8
:105578001397070141833307C702C183B387C70263
:105588004A971358070142074183C29713D9070165
:10559800C207BA979CC29106E3CA95FC630B09043B
:1055A8001C4463C0F4044C402A8A85056D35AA89D9
:1055B80009ED975600009386668901469305A00B6E
:1055C800175500001305C589352710489305C400F1
:1055D800310509060A06EFD0BF9DA2855285213FF5
:1055E8004E84938744008A07A29723A22701850443
:1055F80004C8F24022856244D2444249B249224A50
:1056080005618280AA874167014563F4E700C20704
:1056180041453707000163F4E7002105A207370772
:10562800001063F4E700110592073707004063F4A0
:10563800E70009058A0763CA070013971700635430
:105648000700050582801305000282801C4113F7BC
:1056580077000DC393F61700014799E613F7270063
:1056680011C785831CC105473A85828089831CC17F
:105678000947DDBF93960701C18299E2C18341477B
:1056880093F6F70F99E22107A18393F6F70099E2C1
:105698001107918393F6370099E20907898393F6F6
:1056A800170081E6858381C705071CC175BF1307ED
:1056B80000025DBF411122C42E84854506C6EFF065
:1056C8009FD909ED974600009386467801469305D1
:1056D8005014174500001305A578292DB24040C97C
:1056E8002244054718C941018280797126D24AD0DF
:1056F8008449032906014ECE06D622D4AE8963C852
:105708002401CA872689BE84B287BE892E861C4694
:105718004C4233049900B3A78700BE9532C6EFF018
:105728009FD3324609ED97460000938626720146BC
:10573800930520161745000013058572652B9308FD
:105748004501131324004693C68763E56704930E47
:105758004601131729007697130E560193854901C0
:1057680013982400333EC7013306C7402E98134EC2
:105778001E002D1663E40503635680008327C3FFCC
:105788007113EDC7B25000C9225492540259F2491C
:105798004561828023A00700910745BF83D3050098
:1057A80063800306C68F768F814483270F0083A208
:1057B8000F00110F93960701C182B3867602C18349
:1057C800139902011359090193D20201910FB3876A
:1057D8007702CA96A696969793D206019697C2061E
:1057E80093D40701C182C207D58F23AEFFFEE36EB3
:1057F800EFFA814763040E009377C6FFC697C4C3C8
:1058080083D325006381030683A70800768FC682A9
:10581800BE8F814483560F0093DF0F01C207B38602
:105828007602C183110F9102A696FE96939F0601F8
:10583800B3E7FF0023AEF2FE8357EFFF83AF02000A
:10584800C182B387770293940F01C180A697B69758
:1058580093D40701E360EFFC814663040E0093765E
:10586800C6FFC696DCC29105910829B77D1429B7F1
:10587800011122CC4EC652C406CE26CA4AC8937716
:1058880036002A8AB2892E8489CFFD17174700006F
:10589800130707798A07BA9790438146EFF07FCBC1
:1058A8002A8493D92940638C09080329CA01631DF6
:1058B80009024145EFF05FA0232EAA002A8909EDCD
:1058C800974600009386464B01469305301B1745C3
:1058D80000001305E5583929232205002324050073
:1058E80023200500232605008324890099E89305D1
:1058F80010275285EFF01FDC2324A900AA84232057
:10590800050093F71900228993D9194089CFA285F8
:1059180026865285EFF07FDD2A84CA855285EFF00E
:105928009FBD638E0900884009E92686A6855285B1
:10593800EFF0BFDB88C023200500AA84D9B7F24066
:1059480022856244D2444249B249224A0561828092
:10595800797122D42E844ECE8329040126D2CC41DB
:10596800935456401C44A69952CC56CA06D64AD0DF
:10597800AA8A138A190063C54703568532C6EFF011
:105988009FAD32462A8905E1974600009386064C6A
:1059980001469305E01D174500001305654C992E37
:1059A80085058607C9BF930645013687814763C1C8
:1059B800970893C7F4FFFD871848FD8C8A04A696BC
:1059C800930744010A077D8A36883E973DC69308A7
:1059D8000002B388C8408145884336839106331551
:1059E800C500C98D2320B3008C439107B3D5150199
:1059F800E3E4E7FE9307540181466366F700018FED
:105A08002D179376C7FF36982322B80091E14E8A66
:105A1800232849015685A285EFF0FFADB2502254E4
:105A28009254F249624AD24A4A85025945618280B3
:105A380023200700850711079DBF8C4391078CC25F
:105A48009106E3ECE7FEE1B714499C492A873385C0
:105A5800F6406395F6028A075107D105B306F700A9
:105A6800BE95F116F11590429C416307F600054575
:105A78006376F6007D558280E365D7FE828001114A
:105A880022CC2E844EC6B285AA89228526CA06CE85
:105A98004AC8B284553F0DED81454E85EFF0BF9B56
:105AA80009ED974600009386663A014693057023F0
:105AB800174500001305C53A352C85471CC9232A0C
:105AC8000500F2406244D2444249B24905618280ED
:105AD800014963560500A28705492684BE844C40C7
:105AE8004E85EFF05F9709E99746000093860636E2
:105AF8000146930550246DBF032804019C485104B6
:105B080093182800138644018A0793054501232624
:105B18002501A298B297AE8E228F014303270F006A
:105B2800032E0600110693160701931F0E01C1826A
:105B380093DF0F01B386F6419A964183135E0E01F7
:105B480013D306413307C7411A97C20613530741B7
:105B5800C1824207D98E23A0DE00110F910EE36F98
:105B6800F6FA93865401014763E6D700858FAD178F
:105B780013F7C7FFB306E400338EE500938E4600A3
:105B8800110E7686818D636316031387160081478D
:105B980063E7E8008D08B388D84193F7C8FFF29708
:105BA800F11798431DCB2328050121BF18421A8FEE
:105BB800B30FB60093170701C1839A97C187135390
:105BC80007017A979A97420713D307414183C2077F
:105BD8005D8F110623A0EF007DB77D18D1B77971CD
:105BE80022D42E84854526D24AD052CC06D64ECE13
:105BF800B28436893A8AEFF01F8609ED974600008D
:105C08009386C62401469305F03017450000130516
:105C18002525CD20370710009307F7FFE58FD180A2
:105C280093F4F47FAA8991C0D98F3EC63DC028005D
:105C380022C4EFF0BFA1A24631C932479307000240
:105C4800898FB317F700D58F3357A70023AAF90018
:105C58003AC6324423AC890033348000050423A8B3
:105C68008900B1C09384D4BCAA942320990013045A
:105C780050033305A440B25022542320AA00925462
:105C88000259624A4E85F2494561828023AAD900A9
:105C9800C9B76800EFF09F9BB2471305050205449A
:105CA80023AAF9006DBF931724001305E5BCCE970E
:105CB8002320A900884B1604EFF0DF945DBF411143
:105CC80022C42A842E8597C7FF1F23A907A006C6CA
:105CD800EF30E02DFD576318F50097C7FF1F83A726
:105CE800E79F91C31CC0B240224441018280828058
:105CF8008280828097A7FF1F83A7877F4111328800
:105D080006C6AA882E87C847368697470000938715
:105D1800E72163170800974700009387E7213E882B
:105D2800C68697450000938565212D2A8522B3B73D
:105D3800C502011106CE22CC3386C50289CBB147F4
:105D48001CC10144F2402285624405618280B2850B
:105D580032C6EFF0CFDC2A8475D532468145EFD0C4
:105D68008FA6CDB7D5C183A7C5FF011122CC06CE1A
:105D78001384C5FF63D307003E942AC6EFF02FECC7
:105D880017C7FF1F1307C7941C43324589EB23220B
:105D9800040000C36244F24005616FF00FEB637DBD
:105DA800F4001040B306C4006396D7009443DC4364
:105DB800B29614C05CC0F1BF3E87DC4399C3E37D53
:105DC800F4FE14433306D700631F86001040B296D2
:105DD80014C33306D700E39FC7FA9043DC43B29657
:105DE80014C35CC345BF6375C400B1471CC15DB72C
:105DF8001040B306C4006396D7009443DC43B296C0
:105E080014C05CC040C379B7828085E141116C0041
:105E1800014511CA795581CA834706009CC10345CB
:105E280006003335A00041018280014519CA795521
:105E380089CA834706009CC1034506003335A00084
:105E48008280828091CD9307F00F63F7C700930794
:105E5800A0081CC17D5582802380C500054582802D
:105E680001458280397132D42E86AA8517A5FF1F75
:105E78000325056836D6341006CE3AD83EDA42DC19
:105E880046DE36C64920F24021618280411119451B
:105E980006C6EF0040780545EF3040151C46FD1753
:105EA8001CC663D90700184E63C5E700938765FFD2
:105EB80091E34DAB1C422E851387170018C223802F
:105EC800B7008280011122CC26CA4AC84EC652C4E5
:105ED80006CEAA892E8A3284B304D6007D5963146B
:105EE8009400014509A88345040052864E857D37F4
:105EF8000504E31625FFF2406244D2444249B24900
:105F0800224A05618280717122D526D34ECF52CDA7
:105F180006D74AD156CB5AC95EC762C566C3AA8995
:105F2800AE843284368A01C51C5191E3FD26FC50AB
:105F3800858B89EB83D7C40093F7072081E7A84CAA
:105F4800EFF01FDB83D7C400A18B99C39C489DEF5A
:105F5800A6854E8545231DC9FC50858B99CF7D5557
:105F6800BA502A549A540A59FA496A4ADA4A4A4BA0
:105F7800BA4B2A4C9A4C4D61828083D7C40093F760
:105F88000720F1FFA84CEFF0DFD6D1BF930700023E
:105F9800A30CF1029307000352CE02DA230DF1029B
:105FA8007D5A174B0000130B6BFC854BA94A228CBA
:105FB80083470C00B33CF0009387B7FDB337F0007C
:105FC800B3FCFC00639B0C08B3068C40630D8C008B
:105FD8002286A6854E8536C6F535630E4519D257F5
:105FE800B246B6973EDA83470C0063860718130457
:105FF8001C0002D002D652D202D4A301010682DCD0
:1060080083450400154617450000130525F6EFE003
:10601800CFD482579306140039E113F7070109C753
:1060280013070002A301E10613F7870009C7130746
:10603800B002A301E106034604001307A0026308A7
:10604800E602B2578146254603470400130707FDB9
:106058006376E60695C63ED625A0050C91BF3305A6
:1060680065413395AB005D8D2AD0368451BF7247A8
:1060780013064700184332CE634B07023AD63684DC
:10608800034704009307E002631CF7040347140066
:106098009307A002631AF702F2470904138747001F
:1060A8009C433ACE63D30700FD573ED215A8330769
:1060B800E04093E727003AD63ED0D1B7B3875703DD
:1060C80005048546BA9749B7050402D28147A54613
:1060D80003470400130707FD63F8E606E3970CFC83
:1060E800834504000D46174500001305A5E8EFE0B9
:1060F800CFC611CD974700009387C7E71D8D8257FC
:10610800130700043317A700D98F05043ED0834531
:106118000400194617450000130505E6230CB102D3
:10612800EFE0AFC325CD97E7FFFF938767C09DE7F3
:106138000257F2471377071011CF91073ECED25777
:106148000504CA973EDAA5B5B38757030504854CFD
:10615800BA97BDBF9D07E19BA107CDB77808970601
:106168000000938666D626860C104E85EFD01FBC9D
:106178002A89E31645FDFC50858B89EB83D7C4003B
:1061880093F7072081E7A84CEFF0BFB683D7C40088
:1061980093F70704E39507DC5255D9B378089706B7
:1061A8000000938666D226860C104E85EFE08F9409
:1061B800C1B7411122C406C62A842316B500231785
:1061C800C5002320050023220500232405002322DF
:1061D800050623280500232A0500232C050021464F
:1061E80081451305C505EFC01FDE9707000093879B
:1061F800C71B5CD0970700009387271E1CD49707FE
:106208000000938767225CD497070000938767256F
:106218001CD817B7FF1F1307672F97B7FF1F938760
:106228006735B307F4403307E44093B717001337D3
:10623800170000D0D98F99E797B7FF1F9387073AC0
:106248006319F400130584052244B24041016FF03C
:106258001FAAB24022444101828017A6FF1F1306DD
:10626800A627970500009385855E17A5FF1F1305D0
:10627800E521D1A84C41411122C406C697B7FF1F9A
:106288009387C7282A846383F500C1230C4497B7F2
:10629800FF1F9387272E6384F50022857D234C44B6
:1062A80097B7FF1F938787336387F50022852244BA
:1062B800B240410159ABB2402244410182804111B0
:1062C800970700009387A7F90146914517B5FF1F67
:1062D8001305C52306C617B7FF1F2323F740D13D73
:1062E8000546A54517B5FF1F1305C528D935B24082
:1062F8000946C94517B5FF1F1305452E41016FF023
:106308005FEB17B5FF1F1305253D6FF07F9E17B58F
:10631800FF1F1305653C6FF0DF9D01112AC606CEED
:10632800CD3732451C5181C7F2400561CDB797077B
:106338000000938767F41CD197B7FF1F83A7473ADC
:10634800E5F7B53FD5B7797122D44AD04ECE52CCB5
:1063580056CA06D626D22A8AAE8A01440549FD596C
:106368000C464442FD1463DE0400104275FAB25034
:106378002285225492540259F249624AD24A45610E
:10638800828083D7C500637DF9008397E500638920
:106398003701528532C62EC4829A3246A245498CAC
:1063A80093858506C1B7411122C42E848395E500E3
:1063B80006C6D12C634905007C48AA977CC8B24020
:1063C8002244410182808357C4007D777D17F98F6D
:1063D8002316F400EDB783D7C500011122CC26CAD5
:1063E8004AC84EC606CE93F70710AA842E8432896F
:1063F800B68991C78395E50089460146992C83574C
:10640800C4007D777D17F98F8315E4002316F40007
:106418006244F240CE864A86B24942492685D24431
:106428000561F9A4411122C42E848395E50006C6AE
:106438000D247D578317C400631DE50013070580ED
:1064480013070780F98F2316F400B2402244410154
:1064580082800567D98F2316F40068C8FDB7839535
:10646800E500C1A2011122CC26CA4EC606CE4AC8F2
:10647800AA84AE89328409C51C5199E3EFF0FFE97B
:106488001C4C1CC48357C400A18B99C31C4891EFB2
:10649800A2852685852011C97D59F2406244D244DF
:1064A800B2494A854249056182801C4808401D8DD1
:1064B8005C486346F500A2852685412E71FD1C4483
:1064C800050513F9F90FFD171CC41C4013871700A5
:1064D80018C0238037015C486389A7008357C4002C
:1064E800858BC5DF930769FFCDFBA2852685B12E75
:1064F8004DD55DB7411126C2AA8417A5FF1F0325F4
:1065080025FF22C406C62E8409C51C5199E3EFF065
:10651800DFE08317C40013F7870031E713F707019B
:1065280009EB254798C093E707042316F4007D5527
:1065380085A813F7470005C74C5891C99307440429
:106548006385F5002685EFF0FF81232A040283572F
:10655800C40018482322040093F7B7FD18C093E736
:1065680087002316F4001C4899EB5C4413070020AD
:1065780093F707286385E700A285268559268317A0
:10658800C40013F7170015C3584823240400330721
:10659800E04018CC1848014501E713F7070841F710
:1065A800B240224492444101828013F72700814679
:1065B80011E3544814C4F9BFFD4763F6B700D9473F
:1065C8001CC17D5582805C5D011122CC06CE2E86D1
:1065D8002A8491C713972500BA97984319EB228507
:1065E80032C62922AA85228562443246F2400561D4
:1065F800E9A00545630FA700FD566318D700D947E2
:106608001CC0F24062440561828023A007002E85E9
:1066180002970145FDB7AA8517A5FF1F032545ED7C
:1066280061BF411122C42A842E8597B7FF1F23A773
:10663800070A06C6EF20B010FD576318F50097B794
:10664800FF1F83A7A70991C31CC0B2402244410180
:106658008280411122C42A842E85B285368697B756
:10666800FF1F23AD070606C6EF207012FD576318FB
:10667800F50097B7FF1F83A7670691C31CC0B240F8
:10668800224441018280411122C42A842E85B28588
:10669800368697B7FF1F23A3070406C6EF203010DE
:1066A800FD576318F50097B7FF1F83A7270391C30A
:1066B8001CC0B240224441018280411122C42A8474
:1066C8002E85B28597B7FF1F23AA070006C6EF20BD
:1066D800100BFD576318F50097B7FF1F83A7070036
:1066E80091C31CC0B2402244410182806F20300710
:1066F800411122C42A842E85B285368697B7FF1F9A
:1067080023AE07FC06C6EF20700DFD576318F50091
:1067180097B7FF1F83A787FC91C31CC0B2402244D0
:10672800410182808397C500011122CC26CA06CE7A
:106738004AC813F78700AA842E8469E3D8416345C1
:10674800E000B841635AE00A58545DC703A9040041
:106758009396370123A0040063DE0606704883572A
:10676800C400918B99C75C401D8E5C5899C33C400E
:106778001D8E5C540C508146268582977D57831761
:10678800C400631DE500944075476361D70A370765
:10679800402005073357D700058B49CB18482322DB
:1067A800040018C01397370163580700FD57631496
:1067B800F5009C4091E368C84C5823A024018DCD76
:1067C800930744046385F5002685EFF0AFD9232AA3
:1067D80004021DA00C500146854626850297FD57E8
:1067E8002A86E31EF5F69C40BDDB138737FE19C3E6
:1067F800A9179DEB23A02401014535A890496DDE1A
:1068080094418D8B90C13389C640014791E3D849A3
:1068180018C4E35320FF1C540C50CA86268532C680
:1068280082973246634FA0008357C40093E707045A
:106838002316F4007D55F2406244D2444249056172
:1068480082802A963309A940E9B79C49411106C6B6
:1068580022C426C281EB8144B24022442685924458
:1068680041018280AA842E8409C51C5199E3EFF066
:10687800DFAA8317C400E5D37850058B19E793F78F
:10688800072081E7284CEFF0AFC62685A285EFF0F8
:106898007FE97C50AA84858BE1F38357C40093F782
:1068A8000720DDFB284CEFF0CFC47DB71971A2DCBF
:1068B8002E848395E500A6DA86DEB28463D10502CC
:1068C8008357C40093F707088DEB13070040F65071
:1068D80066549CC298C00145D6540961828030082C
:1068E80036C64520B246E34D05FCF2473D67F98FB1
