:1010000090100000000000006C740000AA4E000068
:1010100000000000000000000000000000000000D0
:1010200000000000000000000000000000000000C0
:101030006C740000000000002A4F00000000000057
:101040006601002000000020B4000020CA47000014
:101050006C7400006C7400006C7400006C74000010
:101060006C7400006C7400008A020020BA02002038
:101070006C7400006C740000CC4700006C740000BD
:10108000DC0200206C7400006C7400006C740000C2
:1010900097F10000938101231751002013018176FD
:1010A00017F50000130505A297F5FF1F9385053678
:1010B00017F6FF1F1306465363FAC5008322050087
:1010C00023A0550011059105E3EAC5FE17F5FF1FA2
:1010D00013058556971500209385C5D16377B50014
:1010E000232005001105E36DB5FEEF60403817655C
:1010F00000001305253819C1EF608037EF30906785
:0411000001A000004A
:101104001D713ADA376700403ED85C534ED0A2C610
:1011140093990701A6C44AD252CE56CC86CE96CC19
:101124009ACA9EC8AAC2AEC032DE36DC42D646D4C3
:1011340072CA76C87AC67EC493D90901B71400204E
:1011440023223703014437290020938444633D4A12
:10115400854A834769D8636BF4023644F640E64215
:101164005643C643A644164586457256E256525720
:10117400C2573258A25812598259724AE24A524E00
:10118400C24E324FA24F2561730020301317340032
:10119400269783478755636BFA00B397FA00B3F732
:1011A400F90089C78327C75591C38297050413742F
:1011B400F40F45B71D713ED8B767004093870710F9
:1011C400A6C4C453A2C64AD2C2044ED052CE56CCF0
:1011D40086CE96CC9ACA9EC8AAC2AEC032DE36DC8F
:1011E4003ADA42D646D472CA76C87AC67EC4C18078
:1011F40037190020C4D30144B729002013094963D7
:101204003D4A854A83C769D8636BF4023644F64085
:10121400E6425643C643A644164586457256E256F0
:101224005257C2573258A25812598259724AE24A46
:10123400524EC24E324FA24F256173002030131715
:1012440034004A9783478755637BFA00C117B397E5
:10125400FA00E58F89C78327C75591C38297050490
:101264001374F40F45B75D713AD6372700403ED466
:101274005C4B86C696C49AC29EC02ADE2EDC32DA45
:1012840036D842D246D072CE76CC7ACA7EC8858B06
:10129400F1CB85475CCB37270020832787DC1306F7
:1012A400400685072324F7DC832787DCB3F7C702CE
:1012B400D5EBB71700209387476383C6475ADDC22F
:1012C400832687DC03A787599305803E3387E6404E
:1012D4003AC663F7E50403A7075A6C000D450507F2
:1012E40023A0E75AB70700209387475E03C6C700C9
:1012F40037C7ADDE1307F7EE98CB7977130707D11D
:1013040090D311462396E704B4C7973000E0E780F2
:10131400A0119967938757AA371700401CCB01A0E7
:101324009305401F63F1E50203A7075A050723A0AD
:10133400E75A914763F8E7029967938757AA3717E3
:1013440000401CCB01A0637FE60037260020032762
:1013540046D68567938787383387E64063F4E7008A
:101364002322D6D6B640A642164386437255E2558A
:101374005256C2563257A25712588258724EE24EF3
:10138400524FC24F61617300203041113EC4B727F0
:101394000040938707403AC6D84B058B11CB0547CD
:1013A400D8CB37270020832707D685072320F7D6F5
:1013B4003247A24741017300203041113EC4B73780
:1013C4000040938707803AC6D84B058B19C305475D
:1013D400D8CB3247A24741017300203039713ACE4D
:1013E40037C700403ECC7C4306DE16DC1ADA1ED832
:1013F4002AD62ED432D236D042CA46C872C676C451
:101404007AC27EC07CC3898BBDC7372800200347BE
:10141400C8D58547B7C60040998F37C6004093F7B3
:10142400F70F81459386860213064602930800044B
:101434009842218B25C737C70040130787031843F9
:1014440037260020854662076187A30DE6D4372737
:101454000020230DB7D4230EF8D437270020A30C83
:10146400D7D437250020034785D521EF372700201F
:10147400032787D825EFF250E2525253C253325514
:10148400A255125682567247E2475248C248324E1B
:10149400A24E124F824F216173002030032E0600AA
:1014A400E38815F93707002013956700130747638E
:1014B4002A972E9713831500230CC7559375F30FA2
:1014C40085BF370700200347D7634DD3B7C6004015
:1014D40001479386060231A0050723A0060013776F
:1014E400F70F034885D5E36907FF49B7C9D5034614
:1014F400B6D5371500209A0762061305C5B861866C
:081504003E9502978DBF000027
:10150C009307700263E9A700B7C7004088C7B70705
:10151C000020238EA7628280B787004023800702B9
:10152C00B787004003C727021377C70F2381E70251
:10153C008280011122CC2E849305000026CA06CE8F
:10154C004AC84EC652C4AA84EF707022635CA00ACB
:10155C0037050080A685218DEF70E063C16783A5F8
:10156C0087992A84C169EF70902093050000634B22
:10157C000506C16783A5C7992285EF703016634FA6
:10158C00A006A2852285EF70F027C16783A5C78CC2
:10159C00AA84EF703027C16783A5079A2A89228510
:1015AC00EF705026A685EF70F02583A5898CAA8450
:1015BC002285EF706023CA85EF700023A685EF703B
:1015CC00A0222A8A03A5898CA285EF70F051CA85C6
:1015DC00EF708021A685EF703051AA855285EF708F
:1015EC00805BAA8503A5898CEF701050F240624491
:1015FC00D2444249B249224A05618280C16783A51F
:10160C004799CDB713050000D5B7011122CC4EC6B2
:10161C0052C406CE26CA4AC8834445010349550123
:10162C008D472A84AE89139A240063F92701B307E6
:10163C0045018C430849EF70304B08C80C48229A7E
:10164C0023203A014E858504EF70001A8D8808C856
:10165C00230A94008D47AA8963E527010509A30A8B
:10166C00240103455401EF80A00EAA854E85EF702E
:10167C008052F2406244D2444249B249224A056146
:10168C008280011122CC26CA2A84AE840C454841A2
:10169C0006CE4AC84EC652C4EF7000154C442A8977
:1016AC00EF708014AA854A85EF70E04E032A04007F
:1016BC00AA892685D285EF703043CE85EF709014C1
:1016CC00D285EF706012C167AA8408C003A5878C0D
:1016DC00CE85EF707041CA85EF70D01248C0F240D1
:1016EC0062444249B249224A2685D244056182802D
:1016FC0001000100010001000100010001000100D6
:10170C008280B76700409387071098478566558F8E
:10171C0098C78280B76700409387071098478966FF
:10172C00558F98C78280B7470040C8C337470040E1
:10173C001C4B858BF5DF48431375F50F8280B7275B
:10174C00002003A587DCB7270040DC439306803ECE
:10175C003D67B387D702130707A6B3D7E702330554
:10176C00D5023E958280411106C6D13FB7070020B5
:10177C00938747630547A387E72083C6072189E63C
:10178C002388E72023AAA720B24041018280372773
:10179C000020832687DC832787DC958F63E3A700F3
:1017AC00828073005010C5BFBD473305F5020100A0
:1017BC007D1575FD8280C167E9782A8801461385FD
:1017CC00F7FF8508B307C80083C70700A1463D8D06
:1017DC00137715003307E040935715003377170143
:1017EC003D8FFD161315070193F6F60F4181EDF2AF
:1017FC00050693170601C183E3E6B7FC828041110D
:10180C0022C4370400209307446306C626C24AC08C
:10181C0083C7D72209471304446313050000636987
:10182C00F70013972700BD67938747D4BA9788436F
:10183C008347E42291C7C16783A5479AEF60D07AAA
:10184C008347F42291C7C16783A5879AEF60D0794B
:10185C008347042391C7C16783A5878CEF60D07839
:10186C00C16783A5C79AEF603078C16783A5079BD2
:10187C00AA84232EA42203250424EF70A078C16728
:10188C0083A5479B2A892685EF70C077AA854A8550
:10189C00EF609075B2402320A42422449244024964
:1018AC004101828037C700401C43D59B93E747001A
:1018BC001CC3828037C700401C43CD9B93E7270095
:1018CC001CC38280B727002083C797D5054581EBC1
:1018DC00B7C7004088570D811345150005898280D4
:1018EC002D8D13570501B7D7EB85298F9387B7A695
:1018FC003307F7029357D700B98F37B7B2C2130724
:10190C0057E3B387E70213D707013D8FBD673D8BC4
:10191C00938747D4BA9703C5C7008280411106C686
:10192C00393DB71700203168AA859387878881468F
:10193C00FD587D55130340061308383BC14E03C7B1
:10194C00E70015CB03C7F7001306803E11E30146F1
:10195C0003C71700130E401F330767023297D0439B
:10196C003386C5406364C800335E6602729763D4E5
:10197C00E800BA8836858506C107E392D6FDB240E9
:10198C0041018280914763E5B708BD67938787C79C
:10199C008A05BE959C418287B767004098431345E2
:1019AC00F5FF698F98C3984B698F98CBD84B798D7D
:1019BC00C8CB8280B767004094431347F5FFF98E7C
:1019CC0094C3944BC98E94CBD44B758FD8CB828057
:1019DC00B767004094431347F5FFF98E94C3944BBB
:1019EC00758F98CBD84B498FD5B7B76700409843C4
:1019FC00498F98C3984F1345F5FF798D88CF828016
:101A0C00B76700409843498F98C3984F498F98CF38
:101A1C008280376700401C47C98F1CC782804111E8
:101A2C00B7670040414706C622C4D8C713650508EE
:101A3C00DD39B747004023A20700374700401C4B55
:101A4C00858BF5DF40434145E937B2401375F40F00
:101A5C00224441018280914763EFB706BD679387AB
:101A6C00C7C88A05BE959841B76700409387071091
:101A7C00028798431345F5FF698F98C3984B698F7C
:101A8C0098CBD84B798DC8CB828094431347F5FF04
:101A9C00F98E94C3944BC98E94CBD44B758FD8CB01
:101AAC00828094431347F5FFF98E94C3944B758F42
:101ABC0098CBD84B498FE5B79843498F98C3984F2B
:101ACC001345F5FF798D88CF82809843498F98C351
:101ADC00984F498F98CF82808D450565ADBF4111D8
:101AEC0006C622C4D53F376400402139253109315F
:101AFC001304041085675CC4E53E8967B2405CC47E
:101B0C00224441018280411106C6F937B767004073
:101B1C00938707100967D8C70567D8C7D13EDD3E44
:101B2C00C13EC536B2404101E1B6011126CAB764C7
:101B3C00004022CC4AC84EC652C406CE2A84214943
:101B4C00613F93840410056A896993178401E187C6
:101B5C0063D507047D360604613E7D19653E493E1A
:101B6C0023A634011374F40FE31109FE05658545B2
:101B7C00DD35BD3E4536AD3EC04023A63401A93F00
:101B8C00F2401355C400624413451500D244424937
:101B9C00B249224A05890561828023A6440165BFAA
:101BAC00411122C42A8426C24AC006C62E89B28498
:101BBC00060435371375E40F8D3F09E9A9377D55B8
:101BCC00B240224492440249410182804A85B13F8D
:101BDC0075D52685993F7DD13D370145D5B7411146
:101BEC0022C43704002006C69307446383C7C73A50
:101BFC007D55B9C70D4713044463636EF700054761
:101C0C006384E7021306800781457945513F0146FD
:101C1C008945794531A811477D556393E702130631
:101C2C00C00893050006F5B77546A5451305C00217
:101C3C00853F19E585472307F43A8947A306F43A0B
:101C4C00B240224441018280797122D42A8426D266
:101C5C004ECE52CC06D64AD056CA5AC85EC6AE84B0
:101C6C00328AB6890604A53D1375E40F7D3D11ED4E
:101C7C00593D7D55B250225492540259F249624A50
:101C8C00D24A424BB24B456182802685793D6DD15B
:101C9C00B935136514001375F50F413D71D9B7644F
:101CAC0000400149938BF9FF93840410096B85451F
:101CBC0005655533A14A0144B13C1D3CDC4006048A
:101CCC001374F40F13973701635407001364140053
:101CDC0023A66401FD1A293CE3900AFEF53B6357E9
:101CEC0079038567DCC429343534193423A664019F
:101CFC00093CB3072A0105092380870093170901C2
:101D0C00C183E3E637FB01350145ADB7DD3AE1BFF1
:101D1C00375700401C4393E707101CC31C47858BA7
:101D2C00F5DF8280B757004088CB375700401C47FF
:101D3C0093F70708EDDF8280411106C622C426C244
:101D4C00AA84F937B717002003C467A206041375D9
:101D5C00E40FC93F2685F937653F136514001375E9
:101D6C00F50FC937375700401C4393F7F7BF1CC317
:101D7C00B75700409847137707046DDF884B98439B
:101D8C00B24022441367072098C392441375F50F91
:101D9C0041018280411126C2B704002022C406C62C
:101DAC004AC09384446303C7043F85472E8463125F
:101DBC00F702B76700404147D8C7EFF0DF9622859E
:101DCC00EFF07F962244B2409244024941454101D2
:101DDC0089B12A89353F03C5243F06051375E50FE4
:101DEC0091374A8581372285353F375700401C4350
:101DFC00B240224493E707201CC39244024941019C
:101E0C008280B70700209387476303C7373F29C7F2
:101E1C0083C7173F15476368F7000D47636CF700DE
:101E2C00638EE7008280E91793F7F70F0547637B12
:101E3C00F700828081451305E004A9BF8145130595
:101E4C00D007E5BF41118145414506C6A137B240D7
:101E5C00814545454101D5B78280AA95B7870700D2
:101E6C0063E1B702B7A7004085466364B50001453E
:101E7C008280C8C394C3D847058B75FF1305051022
:101E8C00EDB70545828081473307F500834607008F
:101E9C003387F50085072300D7001397070141838B
:101EAC00E364C7FE014582806971232021132A89CE
:101EBC003775070031464A95232C41112326111200
:101ECC002E8A2324811223229112232E3111232AAC
:101EDC005111232861112326711123248111653797
:101EEC0003270A00B7574C539387D764631EF70830
:101EFC0083598A009307407F63E83709638D090A89
:101F0C004164E97A31097D14130B0010B77B07008B
:101F1C00378C0700850ACE8463743B019304001050
:101F2C00C204C18033057901B30795006365FC00D9
:101F3C0026868A85893F8146B307D10083C707006F
:101F4C0021473D8C93771400B307F0400580B3F71D
:101F5C005701A18F7D17139407011377F70F418059
:101F6C0075F3850693970601C183E3E797FC2699E1
:101F7C00B38499409399040193D90901E39D09F81D
:101F8C008357AA006389870201458320C112032469
:101F9C00811283244112032901128329C111032ABE
:101FAC008111832A4111032B0111832BC110032CA6
:101FBC008110556182800545C9BF5D71A2C437048B
:101FCC000020930744635AD803AB474103A78741CA
:101FDC0083A7C741DA855A8586C63AC43EC6A6C2CF
:101FEC00CAC04EDE56DA62D466D252DC5ED66AD0F5
:101FFC006ECEEF702001A245AA84416C2E85EF7045
:10200C006000AA852685EF60207EB245AA84B76A57
:10201C00375F2E85EF60107FAA852685EF60C07C28
:10202C008325CC8C2A8993541900938A6AA8B3848B
:10203C009A40EF60307DA685AA89EF60B07CA685BA
:10204C00EF60507CC16CAA8503A50C94EF70C0297D
:10205C00A685EF60307BAA84AA854E85EF60907AC6
:10206C00A685EF60307AAA8503A50C94EF70C02783
:10207C00A685EF603079CA85EF60D0788325CC8C4B
:10208C00AA84EF60D06E6345054083A50C94268529
:10209C00EF60D064634EA03E130444638326444235
:1020AC00C16703A5878C36C08326C442A685832BC3
:1020BC00044236C2EF60302E032DC4432A8AAA850F
:1020CC005A85EF6030748324C447EA85EF70C021D1
:1020DC00A685EF603073EA85EF600071AA8D232E20
:1020EC00A4422245032B0444D285EF60B071DA85FB
:1020FC00EF70801FA685EF60F070DA85EF60C06E20
:10210C002A8D2320A4443245032B4444D285EF600E
:10211C00706FDA85EF70401DA685EF60B06EDA85C2
:10212C00EF60806C2A8B92452322A44402458329BC
:10213C008442EF60306D2A8ACE855E85EF60906CAC
:10214C00AA855285EF70401AAA85EF60E069824536
:10215C002A895E85EF60106B92452A8A4E85EF6066
:10216C00706AAA855285EF602068AA85EF60C06707
:10217C002AC4DE855E85EF60F06882452A8A2E854A
:10218C00EF605068AA855285EF7000162A8ACE85BA
:10219C004E85EF603067AA855285EF70E01492454A
:1021AC002A8A2E85EF601066AA855285EF60C0637F
:1021BC00AA852AC66A85EF60F064A2452A8A5A85E8
:1021CC00EF605064AA855285EF7000122A8ACA8586
:1021DC005A85EF603063B2452A8B6E85EF60906252
:1021EC00AA855A85EF704010A2452A8B6E85EF6048
:1021FC007061AA8DCA856A85EF60D060AA856E85EC
:10220C00EF70800E2A8DD2855285EF60B05FAA8D5B
:10221C00DA855A85EF60105FAA856E85EF60C05C29
:10222C00AA8DEA856A85EF60F05DAA856E85EF6000
:10223C00A05B8325CC8C2A89935D1900EF60905CA0
:10224C00B38DBA41EE852AC4EF60D05BEE85EF60AA
:10225C00705BAA8503A50C94EF700009EE85EF6006
:10226C00705AAA8DAA852245EF60D059EE85EF6091
:10227C007059AA8503A50C94EF700007EE85EF60EA
:10228C007058CA85EF601058C16783A7C79BAA8D89
:10229C00BE853E89EF6090446354A002EE854A856A
:1022AC00EF60700FAA852685EF60D055C16783ADAE
:1022BC00879BAA84EE85EF60904B63530500EE84F8
:1022CC000245D285EF601054AA8DDA854E85EF60F9
:1022DC007053AA856E85EF602051AA8D1245EA8550
:1022EC00EF605052AA856E85EF600050C16783A5E0
:1022FC00079CEF603051A685EF60D050DE85EF6013
:10230C00A04EAA8DD2855E85EF60D04F2A89EA85D2
:10231C004E85EF60304FAA854A85EF60E04C2A89E4
:10232C001245DA85EF60104EAA854A85EF60D07BA6
:10233C008325CC8CEF60104DA685EF60B04C8245A8
:10234C00EF60804A2AC4DA855E85EF60B04B2A893B
:10235C000245EA85EF60104BAA854A85EF60D0787C
:10236C002A891245D285EF60F049AA854A85EF602B
:10237C00A0478325CC8CEF60F048A685EF60904891
:10238C00CE85EF6060462AC6EA855E85EF60904791
:10239C00AA8B0245DA85EF60F046AA855E85EF6070
:1023AC00A044AA8AD2854E85EF60D045AA85568571
:1023BC00EF6090738325CC8CEF60D044A685EF60E2
:1023CC0070449245EF6040422A89EE856E85EF603D
:1023DC007043A245AA842E85EF60D042AA8526853B
:1023EC00EF608040B245AA842E85EF60B041AA858B
:1023FC002685EF60603FAA84CA854A85EF609040CD
:10240C00AA852685EF60403E8325CC8CAA84EF609C
:10241C00703F93D71400B764375F938464A89D8C86
:10242C00A685AA89EF60103EA685EF60B03DAA850F
:10243C0003A50C94EF60506BA685EF60B03CAA84AA
:10244C00AA854E85EF60103CA685EF60B03BAA854F
:10245C0003A50C94EF605069A685EF60B03AAA848E
:10246C00AA856E85EF60103A2320A4422245A685EA
:10247C00EF6050392322A4423245A685EF60903894
:10248C002324A442A6854A85EF60D0372326A44294
:10249C00B640264496440649F259625AD25A425BD7
:1024AC00B25B225C925C025DF24D616182801D71B7
:1024BC0062DC370C00205EDE930B4C6383A78B47EA
:1024CC00DAC003AB4B4A3EC083A78B4283A50B43B8
:1024DC005A853EC283A7CB4286CEA2CC3EC4A6CAA6
:1024EC00CAC8CEC6D2C4D6C266DA6AD86ED6EF6077
:1024FC00B05F83AA8B4A83A54B432AC65685EF60EF
:10250C00B05E83A9CB4A83A58B432AC84E85EF6066
:10251C00B05D2ACADA855A85EF60D02EAA84D6859A
:10252C005685EF60302EAA852685EF60E02BAA84B5
:10253C00CE854E85EF60102DAA852685EF60C02ACA
:10254C00C16483A5C48CAA8D376A375FEF60902B6A
:10255C0093D61D00130A6AA8330ADA40D2852A845E
:10256C00EF60502AD285EF60F0294169AA850325D6
:10257C00099403AD0B4283AC4B42EF60F056D2850D
:10258C00EF6050282A8AAA852285EF60B027D28571
:10259C00EF605027AA850325099413044C63EF6060
:1025AC00B054D285EF601026EE85EF60B025C16681
:1025BC0083A5069DEF60102583A7CB4103AA4B4151
:1025CC0083AD8B4183CB0B4A3ECEAA8593F71B0080
:1025DC0063890738C16703A5479CC16703AC879C17
:1025EC008327C4463ECCEF60700F6352A038D2856F
:1025FC005285EF6030212A8AEE856E85EF6090203F
:10260C00AA855285EF60401EF2452A8A2E85EF601E
:10261C00701FAA855285EF60201D83A5C48CAA8DDE
:10262C00376A375FEF60101E93D71D00130A6AA834
:10263C00330AFA40D2852ACEEF60D01CD285EF60E7
:10264C00701CAA8503250994EF60104AD285EF60AF
:10265C00701B2A8AAA857245EF60D01AD285EF606A
:10266C00701AAA8503250994EF601048D285EF6093
:10267C007019EE85EF601019C16783A5878CEF6028
:10268C00B046C16783A5479D06050581EF6090178D
:10269C00E285EF60D00D635C052CE2450245EF60EE
:1026AC00A01483A5C48C2326A446EF60300393E7C3
:1026BC001B00635D052EB24537050080232064475F
:1026CC00232254472324344733459501EF6090135C
:1026DC00C2452A8A1245EF60F012AA855285EF6036
:1026EC00B040D2452A8A2245EF60D011AA85528586
:1026FC00EF60903F83A5C48CEF60D0108245EF60F3
:10270C007010EA85EF60400EB245AA8D6A85EF60C5
:10271C00700FD2452A8A1245EF60D00EAA855285D9
:10272C00EF60800CC2452A8A2245EF60B00DAA8565
:10273C005285EF60703B83A5C48CEF60B00C824572
:10274C00EF60500CE685EF60200AC2452A8A6A8544
:10275C00EF60500BD245AA896685EF60B00AAA8556
:10276C004E85EF607038B245AA892245EF6090091A
:10277C00AA854E85EF60400783A5C48CEF60900856
:10278C008245EF6030089245EF600006D2452A8CF6
:10279C006A85EF603007C245AA8B6685EF609006AC
:1027AC00AA855E85EF604004B2452A8B1245EF6026
:1027BC007005AA855A85EF60303383A5C48CEF6011
:1027CC0070048245EF601004A245EF60E001AA8915
:1027DC00EE856E85EF601003AA8AD2855285EF6074
:1027EC007002AA855685EF602000AA8AE285628570
:1027FC00EF605001AA855685EF50107FAA8ACE85CE
:10280C004E85EF603000AA855685EF50F07D83A58C
:10281C00C48CAA8AB764375F93DA1A00938464A8CD
:10282C00EF60407EB3845441A6852A8BEF60807D97
:10283C00A685EF60207DAA8503250994EF60D02A38
:10284C00A685EF60207CAA84AA855A85EF60807BE0
:10285C00A685EF60207BAA8503250994EF60D0281C
:10286C00A685EF60207AAA84AA856E85EF608079B0
:10287C002320A442A6855285EF60C0782322A4426F
:10288C00A6856285EF6000782324A442A6854E8538
:10289C00EF6040772326A442EFF02FF28347044ADF
:1028AC00858B63880710032904430325444AC164BC
:1028BC00CA85EF60702383A5849DEF60A074CA85E0
:1028CC00EF509072032944432328A4420325844AE1
:1028DC00CA85EF60702183A5849DEF60A072CA85C4
:1028EC00EF50907003298443232AA4420325C44A41
:1028FC00CA85EF60701F83A5849DC164EF608070F2
:10290C00CA85EF50706E83A5C49D232CA442032569
:10291C008444EF60206F83A5C49D2324A444032525
:10292C00C444EF60206E2326A44483A5C49D0325D4
:10293C000445EF60206D2328A4448327C449F64046
:10294C00D6448507232EF44866444649B649264AA0
:10295C00964A064BF25B625CD25C425DB25D2561CD
:10296C008280C1670325099403ACC79C95B9624565
:10297C0093050000EF608056E35FA0D282452E8560
:10298C00EF509066AA856245EF6010169305000023
:10299C002A8AEF60C05D634505002326444721BBAE
:1029AC00930700002326F44693F7EBFF2300F44A29
:1029BC0019B383250444032584414169130BC44294
:1029CC00EF609012AA89832544440325C441EF602B
:1029DC00B011AA848325C44303254441EF60D01071
:1029EC008325099EEF60006283254445EF50D05F3C
:1029FC008325099E232AA4444E85EF60A060AA85F6
:102A0C0003258445EF50505EC16783A5479E232C58
:102A1C00A4442685EF60005FAA850325C445930472
:102A2C000442EF50705CC16783A9479BC16703AA3E
:102A3C00879E232EA44483AA4403CE855685EF603B
:102A4C00E049635AA00823AA34039104E3159BFEC2
:102A5C00032A4445C16483A5849B5285EF60805A48
:102A6C00AA8503250443EF5030588329844583A558
:102A7C00849B2328A4424E85EF60C058AA85032569
:102A8C004443EF5070568324C4458325099E232A62
:102A9C00A4422685EF600057AA850325844341692B
:102AAC00EF5090548325C99D232CA4425285EF608E
:102ABC0060558325C99D232AA4444E85EF6080541C
:102ACC00C16783A5C79E232CA4442685EF60805341
:102ADC00232EA4449DB5D2855685EF604049E3561C
:102AEC0005F623AA440395B7411122C437040020EC
:102AFC001304446326C2377507009304044B130672
:102B0C007006A6851305054006C6EFF0CFB7FD5736
:102B1C0015ED8326044B3757455213071744F957C5
:102B2C006396E6028346444B0547F5576390E602ED
:102B3C00930550062685EFE01FC803274451F15733
:102B4C002183420741836313E5008147B24022444D
:102B5C0092443E854101828079714ECEB7C90040C6
:102B6C0022D426D24AD052CC06D62A89AE8413045B
:102B7C00007D938989027D5A83A70900898BB9E767
:102B8C007D146311440537C7004013070702B306D1
:102B9C00F90083C60600850714C393F6F70FE3E824
:102BAC0096FE0964B7C40040EFE0DFD01304147143
:102BBC0091049C40858BA1E37D1415CC0545EFE079
:102BCC00BFBEC5BF0545EFE03FBE7DB7814745FCA5
:102BDC0037C70040B7C600409307903E13078702E3
:102BEC009386060221A0904232C632461043098ACF
:102BFC0019E2FD17EDFBB250225492540259F249DE
:102C0C00624A45618280B727002003A687DCB7277C
:102C1C00002083C707DD1947FD1793F7F70F636B88
:102C2C00F7043D678A07130707CABA979C43828744
:102C3C009307401FB726002003A706DC3307E640A6
:102C4C0063FFE702372700208347E7DC23A0C6DCBD
:102C5C0093C717002307F7DC91CF130500206FE013
:102C6C005FDB93072003F9B793074006E1B793079F
:102C7C00800CC9B7B767004013070020D8C7828003
:102C8C003D67B7270040130707A698C723A2070084
:102C9C00054798C3984B1367170098CBB7E700E02C
:102CAC0093870710416798C3B727002023A407DC3C
:102CBC008280411122C42E862E84AA8537150020CD
:102CCC001305C5B406C6EF20C0271374F40FB787DD
:102CDC00004023808702B787004003C72702137781
:102CEC00C70F2381E702B2402244410182805D710B
:102CFC0086C6A2C4A6C2CAC04EDE52DC56DA5AD868
:102D0C005ED683474501139727002A970CC3850786
:102D1C001547B3E7E7021147230AF500834755012E
:102D2C006365F7008507A30AF50003445501AA85DE
:102D3C00680013162400EF20C0200149130AF4FF89
:102D4C00635B490364008149B30B2A410DA083AA3C
:102D5C00040003AB44005685DA85EF6020186356F7
:102D6C00A00023A0640123A2540185099104E3C0AF
:102D7C0079FF0509F1B705800A049307040233842F
:102D8C0027000325C4FEB640264496440649F25952
:102D9C00625AD25A425BB25B616182804111AA8550
:102DAC0022C42A843705002031461305456306C624
:102DBC00EF202019B7C7004023A007000545EFE01E
:102DCC001F9D83470400034724009207751793F750
:102DDC000703D98F37C700401CDB83463400B7C7C5
:102DEC000040D4DB5840B7C7004098CB0347840061
:102DFC00B7C7004098C703471400B7C70040D8C7EF
:102E0C00054799C21307100283479400B24022442D
:102E1C00B307F040C18BD98F37C700401CC3B7C76D
:102E2C0000401D47B8C3B7E700E09387471005473C
:102E3C0098C301454101828041114AC037290020C5
:102E4C00834799D522C426C206C62E84B284B1CF3C
:102E5C0073700430B72700203727002083C7C7D5ED
:102E6C008346A7D593F7F70F63F6B6000344A7D5AF
:102E7C001374F40FB71500209A079385C5B8BE9547
:102E8C002286EF20000CB727002083C7B7D5A30CF0
:102E9C0009D42380F40073600430A286B24022442B
:102EAC009244024936854101828037C700401C5745
:102EBC00130787028146A18BF5F3B7C600409386B2
:102ECC004602104393F5F70F218A11CA37C7004009
:102EDC00130787031843BE862380E400C1B7E3F7CA
:102EEC0085FE8C423306F50085072300B600D1BF62
:102EFC00B7F7FF1F83C5977E03C6A77E83C6D77E11
:102F0C0003D7E77E9387877E83C70700A300B500AE
:102F1C002301C50093E727002300F500A301D5008A
:102F2C002312E5008280397156D2C16A22DC26DA7E
:102F3C004AD84ED652D45AD05ECE62CC06DEAA897E
:102F4C002E8AB28401447D5B914BFD1A37A9004057
:102F5C00094C5AC63386844063D3CB001146337672
:102F6C005601B3058A006800EF10B07DB387890065
:102F7C002322F900B2472324F90023208901832757
:102F8C00C900858BEDFF110493170401C183E3E2A3
:102F9C0097FCF2506254D2544259B259225A925A66
:102FAC00025BF24B624C014521618280B7574C5356
:102FBC0079719387D7943EC4B707002083C7E75D28
:102FCC00B72500201146938545DC1305D100230657
:102FDC00F10006D6EF10F076B71500203146938538
:102FEC00C5C013051101EF10D07501478147554637
:102FFC003400BA9683C606000507B58F9396170062
:10300C00BD83D58FC207C183E314C7FE3775070094
:10301C00A30EF10093050010A18313050520230FC7
:10302C00F100EFE09FE301E9377507005D462C00E6
:10303C0013050520CD3DB2504561828035C5B727BB
:10304C00002083C7D7D4ADC3411126C2B7240020BA
:10305C0083C7C4D406C622C4B9E3930700042A84E8
:10306C0063F4A7001304000437050020130545631F
:10307C00930545621376F40F1305455EEF10706CE3
:10308C0085472386F4D4B7870040A3808702B7878F
:10309C00004003C737021377C70FA381E702B24082
:1030AC0022449244410182808280011122CC370457
:1030BC00002026CA930444631306400281451385FD
:1030CC00043F06CE4AC84EC652C4EF10F0684145C4
:1030DC00EFE03F948D454145EFE0DF8AB747004074
:1030EC001307000698C3194798C7214798C71305BB
:1030FC00500785472388F43EEFE07F929307900EAC
:10310C00130444636312F504954785454545A308AC
:10311C00F43EEFE03FC82945EFE06FE79945130512
:10312C001002EFE03FC7994513050002EFE09FC680
:10313C00BD451305E004EFE0FFC589451945EFE0F7
:10314C007FC585451D45B5A813055007EFE03F8D9C
:10315C00930770046314F500914745BF01451309AB
:10316C004002EFE0DF8B631625098D47814513057F
:10317C00C007A308F43EEFE0FFC10545EFE02FE1E7
:10318C00814513059005EFE0FFC00545EFE02FE00A
:10319C009305800A13050004EFE0DFBF8545130596
:1031AC001004EFE03FBF9305900A13052004EFE0F5
:1031BC007FBE814513053004EFE0DFBDB945130533
:1031CC00D007EFE03FBDC16783A7079F0145232AC6
:1031DC00F43EC16783A7479F232CF43E8547A30980
:1031EC00F43EF2406244D2444249B249224A05615B
:1031FC0082803D45EFE0BF8293070007631AF5021A
:10320C00994785454945A308F43EEFE0BFB82945E9
:10321C00EFE0EFD7930540044945EFE0BFB79305C6
:10322C0010074145EFE01FB793054007454551BFD7
:10323C003D45EFE0CFFE9307B0066314F5009D47C4
:10324C00C9B713055007EFE08FFD9307F00663171E
:10325C00F500B947A308F43E7D5561B70145EFE091
:10326C000FFC930720026314F500BD47E5B7B76761
:10327C0000409387071098478D668D45558F98C7EA
:10328C000D65EFE04FFD894741692308F43E814409
:10329C00130909A68549114AB387240183C707007E
:1032AC00138787F92309F43E1377F70F63E4E904D6
:1032BC0013055007EFE05FA89307900EE306F5E4C3
:1032CC0093077004E30AF5E89307F006E303F5F8B7
:1032DC000145EFE07FA693072002E308F5F80145CE
:1032EC00EFE09FA593074002E301F5E88504E39521
:1032FC0044FB9DB7938767F993F7F70FE3E8F9FE63
:10330C003D45EFE07FA393070007E30BF5EE930732
:10331C00B006E31DF5FC25B7411126C2B7240020E9
:10332C0022C403C454D83948B727002033080403F7
:10333C003723002003A787DC032303D8B70700201B
:10334C009387476306C633076740B3880701239208
:10335C00E86641832384A8662393E866A384C86641
:10336C001385A8669DC915CAEF10B03D93072003BD
:10337C0005043364F40237270020834747D89306AB
:10338C001003A38284D863E5F60085072302F7D8DF
:10339C00B240224492444101828023100500231143
:1033AC0005002312050023130500C9B7411106C6F9
:1033BC0022C426C2EFE08FD6634A050237040020F0
:1033CC0013044463AA841306000481451305943640
:1033DC00EF10903893974400A29783C74725A30416
:1033EC00943AA304F43685472305F43AB2402244B8
:1033FC00924441018280011126CAB7040020138730
:10340C0044634EC606CE22CC4AC8B2891307472560
:10341C00814793844463C1460346E70045CA03468B
:10342C0007006315A60A139447003387840083476B
:10343C000726BD46B387D702B5CD9387470691873C
:10344C002300F726A3010726814733898400A300B4
:10345C00F926232E3925EFE08FAE83470926232C3E
:10346C00A924930690051307400663F9F60093060A
:10347C00E0051307200363F3F6000147B3878400CC
:10348C001307A717239BE72483D7643663F437010C
:10349C002393343703D64436BD473306F6024E9693
:1034AC0011822392C4366244F240D2444249B2495A
:1034BC000561EDBD91872300F7268547A301F7260B
:1034CC0083471726850793F7F70F41B78507410701
:1034DC00E394D7F4C9BF011122CC3704002052C4A5
:1034EC00130A446326CA4AC84EC62A89AE84B289D6
:1034FC0081451306C00713054A4206CE56C2EF108B
:10350C00B025C16A83A78A8C232C2A479305000017
:10351C002320FA422685EF50701C13044463634544
:10352C00A000C16783A4879FCA852685232894465B
:10353C00232A3447EFD0FFFFC16783A7C79F03A798
:10354C008A8C232EA4462324F4442326F4442328D3
:10355C00F444C16783A7C78C2322E4442320E448A6
:10356C002324F448C16783A707A0232CF4489307AE
:10357C0000F82300F44AF2406244D2444249B24972
:10358C00224A924A05618280411126C2B71400205A
:10359C00938444639387049222C4130600042A8400
:1035AC0081453E8506C6EF10301B01CC1307F4FF96
:1035BC00854663EDE600E1572390F492FD57238195
:1035CC00F492B24022449244410182800D47AA8772
:1035DC00631BE400BD6513060002938505D63E858A
:1035EC00EF103016F9BF7114E36D87FC2604130736
:1035FC005004E36887FCBD65130600049385C55C25
:10360C00F9BF3715002041111306700681451305CB
:10361C0045AE22C406C637240020EF10F013230E4B
:10362C0004DAEFF06FCC01E58547230EF4DAB240F3
:10363C00224441018280411122C43714002013041A
:10364C0044631305049613064024814506C6EF1007
:10365C00B010B7170040130770052380E704130759
:10366C0080FA2380E704371700408346470493F61B
:10367C00F60E2302D70423800704B7170020938784
:10368C00C7B4C207C183B78600402398F6009306DF
:10369C0044BAC20613040492C182B78700404204A4
:1036AC00239CD7004180B7870040239E8700B787B3
:1036BC00004023860700B146B7870040A386D70099
:1036CC008946B78700402381D702B7870040238201
:1036DC00D7023787004023000700B7870040A3813B
:1036EC000700930790022300F7009D46B787004020
:1036FC002381D700B7E700E093870710B7061000C7
:10370C0094C38347070093E707022300F700B240F6
:10371C00224441018280B71700209387476303C777
:10372C0047BE85467D171377F70F63F3E6023727FD
:10373C000020032787DC2382D7BE23A407BE23AA3D
:10374C00E7BE23ACE7BE23A607BEA38E07BEE5B536
:10375C008280B72700202388A7DCB727002083A707
:10376C0087DC7D151375F50F994763EBA70ABD67C9
:10377C009387C7CB0A053E951C41411106C682872B
:10378C00B7270020A38707DCEFE0CF91B2400145BB
:10379C0041016FD0FFD6B240B727002005472387E1
:1037AC00E7DC1305002041016FE0AFA6B7C700406E
:1037BC001307500298C7B240B7070020238EE76268
:1037CC0041016FE02F8EB7170020938747631307D3
:1037DC00000023A4E7C023A2E7C023A0E7C0B727BB
:1037EC000020239607DCB24041018280B76700407D
:1037FC0013070020D8C7EFE0CFE0B7C7004023A0E5
:10380C000700D5B7B767004013070020D8C7EFE013
:10381C004FDFB240B7C7004023A007004101E5BD10
:10382C008280797122D4372400208347D4DB06D6DA
:10383C0026D24AD04ECE52CC56CA5AC85EC662C4A4
:10384C0081CBB727002003C7F7DCA94763FEE70647
:10385C001545013785454145EFE0EF9FB7670040BF
:10386C009387071098531367070198D3D84F1367A2
:10387C000701D8CFB7E700E093870710370704009C
:10388C0098C373005010B7E700E09387071898C3EC
:10389C00EFF00FBFEFF07F81C16703A647A0C167B0
:1038AC0083A5879FC16703A587A035310345D4DB6A
:1038BC002254B25092540259F249624AD24A424BB3
:1038CC00B24B224C456171B5372A0020B727002036
:1038DC008349CADB03A987DC370400203715002095
:1038EC00B71A0020371C002013044463B7050020CE
:1038FC009304C5AF138B0AAF930BCCC06380090C38
:10390C00B727002003A787DB8567938777383307B2
:10391C00E94063E5E70A4146938585401305C5AF49
:10392C00EF10206231469305CCC013850AAFEF101F
:10393C004061232C244B0327C45083470451154565
:10394C002183E207D98F850713D78700A306F4508C
:10395C002307E45013D70701E1832308F450A3078E
:10396C00E450C53B8347343F99CB8347143F1547FD
:10397C006365F70C0D476364F7106383E714056503
:10398C00894513050580EFD0FFFFB76700409453BE
:10399C00056713070780D98E94D3D44F85454145CD
:1039AC00558FD8CFB7E700E0938707103707020091
:1039BC0098C3EFE04F8A73005010F5BFB7574552CC
:1039CC00938717444146938585402685854A23284D
:1039DC00F44A230A544B232C244BEF1080563146C7
:1039EC00DE855A85EF10E055A11493055006268507
:1039FC00EFD07FDCA30AA4502181230BA450377590
:103A0C0007009305001013050540EFE00FC515E105
:103A1C003775070013067006A68513050540EFF0F1
:103A2C008FD001E9B7270020230E5ADB23AC27DB0C
:103A3C0019B7E39209F0F136FDBDE91793F7F70FCB
:103A4C000547E36EF7F28D451305B005EFE08FB433
:103A5C0081451305C005EFE0EFB393050002354532
:103A6C00EFE04FB39305000213058005EFE08FB232
:103A7C00C1454145EFE00FB2814545453DA8930551
:103A8C0020031305A004EFE0EFB09305200313050A
:103A9C00B004EFE02FB0930520031305C004EFE052
:103AAC006FAF8D4513057005EFE0CFAE91455145D5
:103ABC00EFE04FAE89451305E004EFE0AFADC1B5C3
:103ACC00A94513053005EFE0EFAC894513058005DA
:103ADC00EFE04FACE54513059005EFE0AFAB91453A
:103AEC001305D007D9BF638B053801114AC806CE20
:103AFC0022CC26CA4EC652C456C25AC083440500B4
:103B0C002A8993978401E1876359F010370A0020C2
:103B1C0013044A63AE8913060004814513054462FD
:103B2C00EF10804393E704F82302F462930700023A
:103B3C00930A0004130A4A63638EF42863ED970416
:103B4C0041476382E412B717002093874763636D84
:103B5C00970009476383E40A0D47638AE40C8547A1
:103B6C006383F408FD57DDAC4547638AE41C514779
:103B7C00E39AE4FE4167832507A103A507CBEF5029
:103B8C006048EF50F03642054185A302A4622185BE
:103B9C002303A4628DA0930710036384F42C63E9C0
:103BAC00970293072002638BF42693070003638A22
:103BBC00F42693071002E397F4FA13054006EFD0AE
:103BCC001FBD9967938757AA371700401CCB01A0DC
:103BDC00638E542993071004E396F4F82307043AF0
:103BEC00A306043A05AC9307F004A302F46293070E
:103BFC00B0042303F4620D4531A093076020231316
:103C0C00F4621145EFF08FC3B71700209387476319
:103C1C0003A747C8050723A2E7C8F2406244D24471
:103C2C004249B249224A924A024B056182803707C7
:103C3C0000200347E75D1945A302E4623707002023
:103C4C000347D75D2303E462372700200347D7DA05
:103C5C00A303E46203C707C783C797C72304E462BF
:103C6C00A304F46245B7C16483A5C4A00325444AE8
:103C7C00416BEF502039EF50B02783A5C4A0931AA5
:103C8C0005010325844A93DA0A41EF50A037EF501F
:103C9C00302683A5C4A0131A05010325C44A135A60
:103CAC000A41EF502036EF50B02483250BA1931915
:103CBC0005010325444193D90941EF50A034EF503D
:103CCC00302383250BA113190501032584411359B6
:103CDC000941EF502033EF50B02183250BA19314F1
:103CEC0005010325C441C184EF50C031EF50502071
:103CFC0093170501A3025463A3034463A304346321
:103D0C00A305246393DA8A40135A8A4093D98940D5
:103D1C0013598940C1872303546323044463230547
:103D2C00346323062463A3069462A184A307F4627C
:103D3C00A187230794622308F4623545E1B5370A5D
:103D4C000020130A8A40C16A83A54AA103250A00F0
:103D5C00EF50402BEF50D01983A54AA193190501C0
:103D6C0003254A0093D90941EF50C029EF50501850
:103D7C0083A54AA11319050103258A00135909418A
:103D8C00EF504028EF50D01683A54AA1931405019B
:103D9C000325CA00C184EF50E026EF50701593172D
:103DAC000501C187A3023463A303246393D989401B
:103DBC0013598940A3049462A305F462A184A187DA
:103DCC002303346323042463230594622306F462DF
:103DDC0025450DBDB7170020938747631387C7C0D0
:103DEC00232007002322070023240700138787C200
:103DFC00232007002322070023240700138747C32F
:103E0C00232007002322070023240700238807C64A
:103E1C0023AA07C68547A302F462B9A8EFF0BF8FA7
:103E2C00D5BFB7170020138747638546A30CD7C6A9
:103E3C00938747633D476384D90003471900238D5B
:103E4C00E7C689461307200363F7360103472900A9
:103E5C00A9463307D70223AEE7C68547A302FA6209
:103E6C0021A8B7170020A386072A6DB7EFD03FD73C
:103E7C0013351500A302A462094569B382807971D8
:103E8C00B727002022D403A4C7D806D626D24AD0FE
:103E9C004ECE52CC56CA5AC815C0854A63F0BA02E7
:103EAC008347050013071002AA846382E71E63612F
:103EBC00F702FD1793F7F70F63FBFA06B250225483
:103ECC0092540259F249624AD24A424B456182806D
:103EDC0013070003E394E7FE9D47E3F1B7FE994512
:103EEC00EFD07F8D83C7740003C76400A207D98FFE
:103EFC00630BF524372700200347D7D7B7270020BB
:103F0C00938787D7BA9783C7070013077002E367B5
:103F1C00F7FA61473387E702B717002093874763A7
:103F2C00BA9703D747D30507239AE7D241BFB547C2
:103F3C00E3F6B7F8B145EFD01F8883C7D40003C7A9
:103F4C00C400A207D98FE31BF5F603CA340083C75C
:103F5C002400B7290020220A336AFA00231B4401EB
:103F6C00EFD0EFFD83A789DC48CC2A8B37250020C6
:103F7C001CD0154693856400130585D7EF00707C23
:103F8C00B72700203719002013074963A38E07D6E3
:103F9C00B7270020A38B07D6832787CE032607CD10
:103FAC001309496385072324F7CE63FCFA04F977D8
:103FBC009387078F918F338767018567938787383E
:103FCC008966BA979386067163EDF6028326C9CD8E
:103FDC00BD47B387D702930640063307D702BA977B
:103FEC0037177A001307F7206342F70837F785FF76
:103FFC00130717DF63C1E7084147B3C7E702232E56
:10400C00F9CC832709D0232AC9CC232869CD231CBA
:10401C0049CD232009CE99C711464C0045453EC2D7
:10402C00EFF08FAF83A789DC232009D0230E09D0B2
:10403C002322F9D2034704008D476315F7009147FB
:10404C002300F400034714009D4763EBE70283C78A
:10405C004400B3D7E740858BE39207E683474401DE
:10406C00E38E07E4230A04008547D9A8B7A7070005
:10407C009387071269B7B767F8FF938707EE41B7C5
:10408C00BD47E3EDE7FC83C754006117D9B703477D
:10409C0004008947E314F7E2D147E3F1B7E2CD45D9
:1040AC00EFD06FF183C7440103C73401A207D98F46
:1040BC00E316F5E0130924001946CA85138524007C
:1040CC00EF801038E31C05DE83C984001946938504
:1040DC009400A300340113058400EF00906683C79D
:1040EC00040103C7F4001946A207D98F03C71401B2
:1040FC00CA851305710042075D8F83C72401230A0B
:10410C005401E207D98F1CC88567938727A2231215
:10411C00F100A306010023070100A30701002303FC
:10412C003101EF001062A9454800EFD0CFE823170A
:10413C00A100EFD02FF8B1454800EFE0FFA18D476B
:10414C002300F400A5BB03C7240083471400E31726
:10415C00F7D6372700200347D7D7B72700209387F8
:10416C0087D7BA9783C7070037170020A30204022A
:10417C0023030402930670021307476363E5F602F8
:10418C00E146B387D702BA9783D607D3850623981F
:10419C00D7D283D627D385062399D7D283D687D374
:1041AC008506239CD7D2832647CF9D47231307CE62
:1041BC00B387D7029306401F8D83232AF7CE83172C
:1041CC0047CE63D9F6022312D7CE83C74400E387C8
:1041DC0007CE19476385E7021307F00FE384E7E87E
:1041EC000547E39DE7CC8347540493E74700A302BC
:1041FC00F404E9B1E3DB07FC231207CEF9B7230083
:10420C00F400B7C7004023A007004DB91971A2DC18
:10421C0037140020A6DACAD81307446386DECED63C
:10422C00D2D4D6D2DAD0DECEE2CC372900208347E6
:10423C000712832489DC954613044463638CD70AE4
:10424C0063E4F6020D466388C70211466381C70A10
:10425C00F6506654D6544659B659265A965A065BA9
:10426C00F64B664C096182809D46E393D7FE8D47E1
:10427C002300F712F1BFEFD0EFE2EFD0AFE405C1AE
:10428C001306F100930500040808EFE0FFBA635829
:10429C00A0000306F1009375F50F0808CD363727FB
:1042AC000020832747D52945B387F4406370F50276
:1042BC0033D5A4029307803E83250413232A97D475
:1042CC003375F502EFD0CFE1EFD08FA38327041421
:1042DC00056713078738B387F440E37BF7F69947F4
:1042EC002300F412B7C7004023A0070095B72300A2
:1042FC00D712B9BFEFD00FDB8324C413EFD02FC478
:10430C009384A40F637C950AEFD0CFDB05C1130611
:10431C00F100930500040808EFE01FB26358A000F9
:10432C000306F1009375F50F0808913EEFD00FDFEF
:10433C0083491412A947A30DF4CC230D34CDEFD02F
:10434C000FC0832704CD031744CE2A899384471FBB
:10435C00B307F5400325C4CD998C1307401FB32533
:10436C00F50237460F001306062481461309490649
:10437C003385A702B389E902EF5080508967938790
:10438C000771CE94AA9463EA240FEFD04FBB1309A4
:10439C00803E6366950E83475418854691C39146BB
:1043AC00B707002037270020238ED75C832707D53B
:1043BC00850763F3D70E2328F7D459BDB727002000
:1043CC0083C477D7130704C8850493F4F40FA38B25
:1043DC0097D67C5F85077CDF130704D01C438507C9
:1043EC001CC313073006637BF702032784D11146E5
:1043FC000C08050741453EC8232CE4D0EFE0DFF163
:10440C009147032789DC230EF4D02320E4D20547FF
:10441C006394E7048D472300F4121DBD754763793F
:10442C00F700832744D18507232AF4D08D47D1BFC9
:10443C0025476379F700832704D185072328F4D017
:10444C008947C1B709476379F7008327C4D085072B
:10445C002326F4D0854775B7A947E3ED97FA835720
:10446C0064130567130787388507231BF41283270A
:10447C00C413BA97232EF41255BDBE9429B73385B5
:10448C00A4406379A90013054006EFD0EFB1EFD03B
:10449C000FAB01B70100E5BF232807D43709002073
:1044AC00EFD0EFA99307496303A7073623ACA734D2
:1044BC00A38A0734050723A0E736EFE03FEFB727C1
:1044CC00002003C7D7D791461309496363E1E6245B
:1044DC0093061700A38ED7D6B7270020938787D7CC
:1044EC00BA9703C5070083498900230CA412EFD0A7
:1044FC002F8113052003372A0020EFD0EFAA834425
:10450C00BAD54E85EFC0DFFFE204E1849307F0FBE0
:10451C0063C6F406894A930BF0FB054B03478411E1
:10452C00A14419CB834794118507B3E7E702A30C89
:10453C00F410A29783C4070F2685034C8900EFC0A3
:10454C003FFC13052003EFD02FA68349BAD5628513
:10455C00E20993D98941EFC0BFFA63CD7901639F1A
:10456C006A1B83478411638D071A83479411A297A2
:10457C0083C4070F9307F00F6395F41A0345841354
:10458C004169EFC0FFF703458413EFC07FF71305B4
:10459C002003EFD06FA1EFD08F9A832549A1AA8475
:1045AC0003258414EF401026EF508014832549A175
:1045BC00931A05010325C41493DA0A41EF409024A1
:1045CC00EF500013832549A1131A05010325041587
:1045DC00135A0A41EF401023EF508011832549A153
:1045EC00931905010325441593D90941EF409021F6
:1045FC00EF500010C16783A5C7A01319050103254F
:10460C00041613590941EF40F01FEF50600E834719
:10461C0014124205418593F7F7032308F100939791
:10462C000A01C183A1832309F10093170A01C183F5
:10463C00A183230AF10093970901C183A183230B62
:10464C00F10093170901C183A183230CF1000585A7
:10465C00A3085101A3094101A30A3101A30B2101B4
:10466C001307008083464416AA876354E50093071A
:10467C0000801397070141871306F07F6354E6000F
:10468C009307F07FC207C1878982A30CF1003D46D6
:10469C0036876373D6003D47A187BD8B12075D8FAC
:1046AC00230DE10081469307F00FAD4518083697AE
:1046BC00034707002146B98F13978701618763551C
:1046CC0007060607134777009377F70F7D166DF6ED
:1046DC008506E39DB6FCA30DF100EFD0AF9DB1456F
:1046EC000808EFE06FC783474414130A30068507A8
:1046FC002302F414EFD00F9BEFD06F84AA89EFD074
:10470C000F84B30735416375FA020149B1A08325C3
:10471C00041303556413EFD0AF9CF1B3854AFDBB72
:10472C00A144230C941299BD860793F7F70F79BF18
:10473C00EFD04F992A8961D51306F1009305000239
:10474C000808EFE06FEFE35CA0FA0306F100937545
:10475C00F50F0808EFF0AFF2EFC07FFE330695407F
:10476C008545034514126312090483478413130708
:10477C0070026366F7026147B387E702A29703D71B
:10478C0007D305072398E7D203D767D3130717F886
:10479C00239BE7D203D787D30507239CE7D2832734
:1047AC00C4CE814585072326F4CEEFE0DFC437C79E
:1047BC0000401C43E59B93E787001CC351BC8280DF
:1047CC0079714AD006D622D426D24ECE52CC56CAB5
:1047DC00B787004003C76700B78700409D0783C7B2
:1047EC0007001379F70F098B19CF93F7F70F13F70E
:1047FC000703BD8BA5CB8946638ED72AB7870040AC
:10480C0009472383E700937719009DCBB7870040B6
:10481C00A3810700B7270020238B07D6B7170020EA
:10482C00238A07F80947B78700402381E702B78737
:10483C0000402382E702B787004005472383E70047
:10484C001379490063070900B78700401147238398
:10485C00E700B250225492540259F249624AD24AA9
:10486C004561828093070003631AF71CB7870040E9
:10487C00B70400201384446383D507019308845143
:10488C00214646857D2DB787004029472381E702C5
:10489C0003478451B72500200356A451A387E5D6BE
:1048AC0003479451AA88B72600200355C451238787
:1048BC00E6D6372700202316C7D637260020231527
:1048CC00A6D60355E45137260020938727022314DC
:1048DC00A6D603C8F5D63715002093844463137805
:1048EC0008061305C5B4631E081083C6E6D6A54595
:1048FC0093F7F60F63E6D504BD668A07938686CDDB
:10490C00B6979C438287239C04508945EFE06FBA8D
:10491C00F5B58357C7D63727002093F7F707230B36
:10492C00F7D6EFC07FBFD9BD8357C7D68946A183C1
:10493C006388D7088D46638BD70005476388E708E3
:10494C00B78700403D472381E7024DBD0357C7D6CB
:10495C00931707011377C70FC1837DF393F7F70FF5
:10496C003D6793962700130747D43697832407098E
:10497C004167130747A6BA9703C40700835786D627
:10498C0063F68700035486D64204418093070004E3
:10499C00A28963F4870093090004C20993D9090121
:1049AC002685CE85EFE0EFB0B7270020CE9423A864
:1049BC0097D633043441B7270020239A87D63DBDC0
:1049CC00BD6413040002938404DA4DBFBD644944F2
:1049DC00938404DC65B7B717002083C747F9854576
:1049EC00238CF45025B70357C7D6B71700209387ED
:1049FC0047633337E0002380E7960547A380E796AB
:104A0C000DB703C7F5D61306000213770706631E0E
:104A1C00C70003C7E6D61306E00F9376F70F630AB9
:104A2C00C7001307F00FE38EE6EE3D472380E70047
:104A3C00F1B3230C045085454685C9BD930700028C
:104A4C006314F70637270020834767D789CFB787CA
:104A5C00004083C637008D0799E6034767D7137765
:104A6C00F70F2380E700372A002003544AD70DC8DC
:104A7C0093070004A28463F4870093040004B72A0C
:104A8C00002083A90AD7C204C1804E85A685A699A9
:104A9C00058CEFE00FA223A83AD7231A8AD6B9BB0C
:104AAC00B7870040094745B5E31A07D4B7870040DC
:104ABC00294751BD63130732B787004003C747002E
:104ACC0037140020FD47130444636311F72A0327AE
:104ADC0044BAB7574243938757356319F7287D4635
:104AEC00930544BA13052496A929835484968357B5
:104AFC0064960357C496C204DD8C8357A496420770
:104B0C00232894985D8F83471497232AE49893065F
:104B1C00A00263EBF608E54663EBF6068D4663836D
:104B2C00D70AC946638ED70C638A071893075005BA
:104B3C00A300F498930730052301F4982302F4980A
:104B4C0093D784002303F49893D70401A303F49818
:104B5C00935787002305F498935707019306200475
:104B6C00A3029498A304E498E180A305F4986183CC
:104B7C008547A301D498230494982306E498A306AC
:104B8C00F49835469305149813050492D9AA9917ED
:104B9C0093F7F70FC146E3EBF6F8BD668A079386E9
:104BAC0006D0B6979C4382879306A005E390D7F86E
:104BBC00214681451305149A452699472301F49AF9
:104BCC00214631A8494681451305149A712693074D
:104BDC000007A300F49AA9472304F49A4946834793
:104BEC00049AF9CF8327C499E1CF03258499EFE088
:104BFC00BF99B7870040130700042384E702FDA088
:104C0C00BD6513064002938545DE1305149A152ED7
:104C1C0013064002E9B78D472301049AA301049AB5
:104C2C002302049AA300F49A114655BFB707000259
:104C3C009387F707A300049A2311049A2322F49A6A
:104C4C002304049AB5BF835784970347449713965C
:104C5C008700A1835D8E8347349742074206E207A3
:104C6C00D98F034764974182232EC498D98F034769
:104C7C00549726062207D98F232CF49885472300B6
:104C8C00F49AB1BF83578497834644972300049AC0
:104C9C0013978700A1835D8F83473497C206420721
:104CAC00E207D58F834664974183232EE498D58FF2
:104CBC0083465497A206D58F232CF498014605B74A
:104CCC00B7170020138547F539C29307000463D446
:104CDC00C700130600049305149A32C69D2432466D
:104CEC00B78700401376F60F2384C702B7870040BE
:104CFC0003C747021377C70F2382E702B787004029
:104D0C0003C747021377370F2382E702C5BC13078B
:104D1C005005A300E498130730052301E4982302FF
:104D2C00E49813D7840093062004A30294982303D9
:104D3C00E49813D70401E18093051506A301D498D8
:104D4C00A303E49823049498A304049823050498DB
:104D5C00A305049823060498A306049835461385E6
:104D6C0047F5C522B7870040354741BD8347049AB4
:104D7C00D1F78327C499D9D303278499FD17232E00
:104D8C00F4980507232CE498B5FB93075005A30072
:104D9C00F498930730052301F4982302F4988327A1
:104DAC00049913072004A301E49813D78700A302E6
:104DBC00F4982303E49813D70701E183A303E49841
:104DCC002304F498A304049823050498A3050498D9
:104DDC0023060498A30604986DB393070002E31FFF
:104DEC00F7A0B71700209387476303C7079A49CFEB
:104DFC0003A7C79951CB03A587997D1723AEE798D5
:104E0C00050523ACA79805C3EFE00FF8B787004062
:104E1C00130700042384E702B787004003C7470247
:104E2C001377C70FD5B513075005A380E798130761
:104E3C0030052381E7982382E79803A70799930607
:104E4C002004A381D79893568700A382E7982383E5
:104E5C00D79893851798935607011385079261830A
:104E6C0035462384E798A383D798A3840798238592
:104E7C000798A385079823860798A3860798D120BF
:104E8C00B7870040354779B73787004083474702DB
:104E9C0093F7C70F93E727002302F70285B241115E
:104EAC0006C68A87B7050020B7C6ADDE1387455EF8
:104EBC009386F6EE14CBB726002083A686DC93856A
:104ECC00455E34C7A146A306D7048DC3984398D139
:104EDC00D843D8D1984798D5D847D8D5984B98D996
:104EEC00D84B98CD984FDC4FD8C9DCD98A87DCCD0C
:104EFC00A1472382F50023AC050223AE050223A0B3
:104F0C00050423A205041146D1050D45EFE0CFC0E1
:104F1C009967938757AA371700401CCB01A03971AA
:104F2C0006DE16DC1ADA1ED82AD62ED432D236D0A9
:104F3C003ACE3ECC42CA46C872C676C47AC27EC04D
:104F4C00B93F2A8309CA83830500230073007D16A9
:104F5C00050385056DFA82802A8311C62300B300F0
:104F6C007D16050365FE82806971B7170040232604
:104F7C001112194723248112232291122320211369
:104F8C00232E3111232C4111232A51112328611175
:104F9C002326711123248111232291112320A11185
:104FAC00EEDF98C3EFD0DFCD0C110145EFC0DFEF82
:104FBC0005650C1913050580EFC01FEF11460C1980
:104FCC0037750700EFC03FECCA5737544C531304E6
:104FDC00D46463888702856537750700EFC0FFE7E7
:104FEC0011460C193775070022D9EFD0DFF337754E
:104FFC000700894709460C1911052318F10AEFD04F
:10500C009FF237090020130549631306C02B814515
:10501C0013054566EFF05FF4B72D002003A78DDC78
:10502C00B7270020A38207D8B7270020238207D8F0
:10503C000146B72700208145054523A0E7D8EFE0BE
:10504C00AFAD370700209307475E94431307475EC5
:10505C00B7574457938777F43AC41309496363925B
:10506C00F67691472302F7001C47014681458507D8
:10507C0011451CC7EFE04FAAB717004013070004F7
:10508C0098C32247B7574457938777F41CC3B71775
:10509C00004003C787003714002093044463136750
:1050AC0017002384E700EFE0CFD5BD65414693851B
:1050BC0005D80809EFF0FFE893878417614681450E
:1050CC001385C41823A0070023A2070023A40700FC
:1050DC0023A6070023A80700EFF01FE861468145CF
:1050EC001385441AEFF05FE7614681451385C41BB5
:1050FC00EFF09FE6614681451385441DEFF0DFE537
:10510C00614681451385C41EEFF01FE5614681455C
:10511C0013854420EFF05FE4C16783A9878CC167D6
:10512C0003A7879BC16783A7879D138A8416930661
:10513C00000041460C09528523AED42023A2E42260
:10514C0023A6D42223AAE42223AED42223A2E4242D
:10515C0023A4F42223ACF42223A4F42423A0342388
:10516C0023A8342323A03425EFF0BFDD1306C0069B
:10517C0081451385C4C0EFF03FDE83A78DDC130699
:10518C00400481451385C4C823A0F4C423A234C5AC
:10519C0023A434C523A634C5EFF01FDCC16783A755
:1051AC0047A2377507001306000323A8F4CA83A788
:1051BC008DDC0C191305051023ACF4CAEFC0BFCC61
:1051CC00B71700209387077C3EDEB7170020938724
:1051DC00877DBEC0B71700209387077FBEC2B72755
:1051EC00002093878780BEC4B7270020938707824F
:1051FC00BEC6B727002093878783BEC8B717002089
:10520C009387072C3EDA130444636312055C4A57F8
:10521C00B7574554938707D5631BF75A52553146F8
:10522C004C19EFF01FD231468C01130584C9EFF0F5
:10523C005FD13146EC01130544CAEFF09FD0130641
:10524C00400281451305C922EFF01FD193071010BE
:10525C002317F9229D6785449387075323089922C6
:10526C002328F924EFC0AFD9B79704009387073EE2
:10527C002328F924930784C723A00700A3079924A4
:10528C00230C94C6B724002023A4070023A60700F0
:10529C0023A80700130600239307200381451385D9
:1052AC000488232EF4C6EFF03FCBB72700201385DC
:1052BC0007AB130600058145EFF01FCA1306400328
:1052CC0081451305C44CEFF03FC99387048813073D
:1052DC0010F8B7260020A38AE700938606AB9387C5
:1052EC008703E398F6FE83A78DDCB71400203727DD
:1052FC0000201306003F8145138544362324F7DA3A
:10530C00EFF09FC5130704EB938744369306E0FC3C
:10531C0023860700A385D700E107E31BF7FEBD65D5
:10532C004146938545611305040FEFF09FC1C147BA
:10533C00230CF41083A78DDC130640038145130561
:10534C00C4CF232EF410EFF03FC183A78DDC1306DE
:10535C0080158145130549252322F4D2EFF0DFBFD8
:10536C001306C0028145130504CDEFF0FFBE930771
:10537C0040062312F4CE9307045023A2070023A463
:10538C00070023A007002316045085472306F4507A
:10539C0099679387874C1306002281451305C90032
:1053AC002317F450EFF05FBB130640028145130541
:1053BC000451EFF07FBA13064002814513054453A4
:1053CC00EFF09FB937260020834766D8B71400202A
:1053DC001D47938484886368F704139737002297DA
:1053EC00AD46230CD75405658566938626778507CD
:1053FC00854513050580232ED7542303F6D8EFC01B
:10540C006FD8B76700409453056713070780D98E90
:10541C0094D3D44F558FD8CFB7E700E093870710BC
:10542C003707020098C3EFE00FA113064004814533
:10543C001305C93AEFF05FB2C16783A7878C854625
:10544C0010112322F93C2320F93C232EF93AC16791
:10545C0003A7C7A0C16783A707A3B5451305C0025F
:10546C002326E93C232CF93C2328E93C232EF93C48
:10547C00232AE93C2320F93EEFC00FFD11E98347B5
:10548C00010A1307F00F6387E73619476384E73681
:10549C00854610119305F0047945EFC0EFFA19E534
:1054AC000347010A93070004630FF7348D46101964
:1054BC00A9457945EFC04FF91DE10347010B93074F
:1054CC008004631EF7000347110B93074003631816
:1054DC00F7000347210B930730036308F7322316B9
:1054EC00093A8D4513050020EFC0CFC985454145CC
:1054FC00EFC06FD6854513050040EFC0AFC80D4A0D
:10550C00B769004013050020EFC0AFD0130540066B
:10551C00EFC0EFA79307002023A6F9001305400660
:10552C007D1AEFC0CFA6E31F0AFC37250020130518
:10553C0005DBEFD0FF9B71468145130544BEEFF0B0
:10554C00BFA185679C437D57638AE70085679107F8
:10555C009C436385E7008547A30EF4BE93090412B0
:10556C001306800481454E85EFF01F9F130524120E
:10557C00EFD01F98C16783A7878C081902DD2324FD
:10558C00F414B7070402938717703ED9B7574C53DE
:10559C00938727653EDBEFD07F80B717002093877A
:1055AC006775BECA630505261D45EFE08F9AEFD0DF
:1055BC00DFAF01C51D45EFE0CF99C16703A647A03A
:1055CC00C16783A5879FC16703A587A0B724002067
:1055DC00EFD07FF083C7C4DB99E7EFD0EFD055E96C
:1055EC008547238EF4DA8327894B03A78DDC1D8F27
:1055FC00BD67938707A663EEE70803270951834726
:10560C00495141462183E207D98F850713D787007B
:10561C00A308F9502309E9509305894C13D70701C6
:10562C000811E183A309E950230AF950EFF07F91A7
:10563C0031469305C94B0819832A894C032AC94C56
:10564C008329094D8324494DEFF0BF8F83A78DDC4F
:10565C003146B7070020938787400C191305895DE5
:10566C0023A0570123A2470123A43701C4C7EFF09D
:10567C005F8DB7270020238207DAB727002023206D
:10568C00594323224943232439432326994223A0F7
:10569C0007DA377507005D460C1913050520EFC0B6
:1056AC008FFE631705204A57B7574C539387D794EF
:1056BC006310F7200147814755461419BA9683C6E3
:1056CC0006000507B58F93961700BD83D58FC207CB
:1056DC00C183E314C7FE1E472183420741836399AC
:1056EC00E71C0347410BA94763F4E700230A010AAF
:1056FC008349410BB7240020B707002011469305BE
:10570C00510B138544DC238F375DEFF09F833146BB
:10571C009305910B1305895DEFF0BF8237270020AD
:10572C008547A30EF7DA230AF4128D4783A544DCD0
:10573C002300F41283A78DDC01452328B412232007
:10574C00F414A3003413EFC0AF99EFB07FDBEFC0BC
:10575C006F950545EFD0FFFFB7D700403547238144
:10576C00E700B7D7004025472380E700C16783A730
:10577C0087A5BECCC16783A7878CBECEB717004068
:10578C0023A2070083A78DDC22472320045A232C55
:10579C00F4588327C4598507232EF458C147230690
:1057AC00F70083A78DDC1D47B727002083C707DDD3
:1057BC006396E710EFD02FC513054006EFB03FFD01
:1057CC0075BF224785472302F7006FF0FF8AC16738
:1057DC0003A787A2C16783A7C7A2232CE4C8232EE3
:1057EC00E4C82322F4CA2324F4CA2320E4CA2326BF
:1057FC00F4CAB1B485472306F93A8547A306F93AAA
:10580C00EFC0EFBDF9B99147FDB78947EDB7916787
:10581C00372700209387A7E8834A49352324F7D8F4
:10582C00B727002023A637D93D4603471412268AF2
:10583C00A687C1466377560183474413B5E785476E
:10584C00ADA003C6E70019E26F1030360505C1079D
:10585C00E319D5FED5B793065004E3EFF6FC0D46DD
:10586C009305E006130540069306803E8347EA0045
:10587C008DC383471A00639EC70083572A00B387E2
:10588C00B702B3C7A702C207C18363ECF6002311AA
:10589C00FA00410AE31C47FD45B72311AA006F101B
:1058AC00903B2311DA00F5B78D472300F41201B3B6
:1058BC00B7270020A38E07DA0D4569BD1947639001
:1058CC00E706834744BE9DC79386F7FF03A78DDC8D
:1058DC0093F6F60F05466363D602832784BF1D8FAC
:1058EC00B7C70200938707F263F6E70093074050AF
:1058FC002312F4BEEFD02FB12945C9B50D47E39B58
:10590C00E7FE8347D4BFFDD71305401FEFB03FE838
:10591C009967938757AA371700401CCB01A01547EE
:10592C00E38EE7E42247CD472306F70083A78DDCFF
:10593C00EFB0FFE0B726002003A786D985679387D1
:10594C0077383307E54063FFE7728347E92023ACE0
:10595C00A6D8638907728344D9209604CA9483C756
:10596C00840263810772130B494A31469385C40044
:10597C005A85EFF00FDD31469385840113054941BB
:10598C00EFF02FDC8347D920032504CB930B84C97C
:10599C008507BD8BA306F9208347E920FD1793F7F4
:1059AC00F70F2307F920C16783A547A2EF30D01367
:1059BC00AA85AA89EF300065B7170020D25A9387C1
:1059CC0087AD2A8A5ACC3ED283A5CA004E85910A4D
:1059DC00EF30406383A5CAFF110BEF20F06083A565
:1059EC004A01AA845285EF30E061AA852685EF2012
:1059FC00B05F23A6AA02AA850325CBFFEF30D00EF9
:105A0C00232EABFEE3925BFD83474418032C494ADB
:105A1C00832B894A032BC94A638207328325845A14
:105A2C006285EF30700C8325C45AAA8A5E85EF30EC
:105A3C00B00B8325045B2A8A5A85EF30F00A834722
:105A4C00C416AA8495C7930500004E85EF30805B81
:105A5C00AA852AC65685EF303009B245AA8A5285E6
:105A6C00EF309008B2452A8A2685EF30F007AA84D9
:105A7C008347841685C37255D685EFD04FA7AA8A63
:105A8C000645D285EFD0AFA62A8A1645A685EFD05B
:105A9C000FA6AA848347941685C32645D685EFB0F6
:105AAC00DFB6AA8A3645D285EFB03FB62A8A46457C
:105ABC00A685EFB09FB5AA848347A4169DC3D6854F
:105ACC001305C421EFB0FFBBD285AA8A1305C422EB
:105ADC00EFB03FBBA6852A8A1305C423EFB07FBA6B
:105AEC00AA8483274941B7190020938949633ECA88
:105AFC00832789413EC88327C9413EC68347B416D4
:105B0C0063860724D6855685EF30C04FAA8CD28584
:105B1C005285EF30204FAA856685EF20F04CAA8C79
:105B2C00A6852685EF30004EAA856685EF20D04BE2
:105B3C00EF109013D2452A8D2E85EF30A04CC24524
:105B4C00AA8C2E85EF30004CAA856685EF20D049B3
:105B5C00B245AA8C2E85EF30E04AAA856685EF20E7
:105B6C00B048EF107010C16783A547A3AA8C6A8553
:105B7C00EF30E03F372D00206356051CC16783A52D
:105B8C00878C6685EF304076C16783A5479B0605F9
:105B9C000581EF30C03D6357051A83474DD9372730
:105BAC00002091EBB727002083A787DC2328F7D8A8
:105BBC008547230AFDD8B7270020032707D983A7D9
:105BCC0087DC998F1307C05D6372F718C16C83A5CE
:105BDC008C9B5685EF300043AA8503A5895AEF208C
:105BEC00B04083A58C9B23A4A95A5285EF308041E9
:105BFC00AA8503A5C95AEF20303F83A58C9B23A609
:105C0C00A95A2685EF300040AA8503A5095B9304A9
:105C1C000000268AEF20503D854723A8A95AA3826D
:105C2C00F918A68AC167B70C008083A587A3FD1C51
:105C3C0033F54C01EF30A03363540500130A000018
:105C4C00C16783A587A333F59C00EF3040326354C2
:105C5C0005009304000083278418E285628585077C
:105C6C002324F418D2D6A6D8D6D4EF30A039AA84DF
:105C7C00DE855E85EF300039AA852685EF20D0368B
:105C8C00AA84DA855A85EF30E037AA852685EF207D
:105C9C00B035EF10607DD245AA842E85EF3080366A
:105CAC00C2452A8A2E85EF30E035AA855285EF2031
:105CBC00B033B2452A8A2E85EF30C034AA8552857E
:105CCC00EF2090322AD0EF10207AC16783A547A32A
:105CDC002A8A2685EF30A02963570508C16783A55A
:105CEC00479D5285EF304060C16783A5C79C060570
:105CFC000581EF30C02763580506834744C691EBF6
:105D0C00B727002083A787DC2324F4C6854723020A
:105D1C00F4C6C16783A5C7A303A5C9C6EF30802EFF
:105D2C00C16783A5C79B2A8A2685EF30A02DAA853B
:105D3C005285EF20702B23A6A9C605A8DA845E8AAB
:105D4C00E28A3DB3230A0DD8A3020418C16783A5C8
:105D5C0087A313951A000581EF306021E35405ECFD
:105D6C00930A0000C1B5238209C683A5C9C0628508
:105D7C00B70C0020EF30405783A509C193844C63C6
:105D8C0023A2A44A2A8A5E85EF30005683A549C116
:105D9C0023A4A44AAA8B5A85EF30005503CB49C6DD
:105DAC0023A6A44A2A8D63140B38B727002083AA94
:105DBC0087DC03A509C43385AA40EF30D06FC167D7
:105DCC0083A5C7A0EF20305D9305000023A059C523
:105DDC002A8AEF30A0106348A04A03CA09C7631689
:105DEC000B4ED24503A549C4EF30C021C24523AAAE
:105DFC00A44003A589C4EF30E02023ACA440B245F5
:105E0C0003A5C9C4EF30002023AEA44083AB444AA1
:105E1C0003AB844A83AAC44A63040A4E3146938571
:105E2C00C9C0C818EFF0EF9183A5C9C003AC09C174
:105E3C005E85EF30604B03AA49C123A2A44AE285D8
:105E4C005A85EF30604A23A4A44AD2855685EF3098
:105E5C00A04983C7E43A23A6A44A99CB83C7C43A82
:105E6C000D476360F74C05476360F76A6381E74E43
:105E7C0083A5444A03AB844A83AAC44A2E85EF30D7
:105E8C0060182A8ADA855A85EF30C017AA855285A0
:105E9C00EF2090152A8AD6855685EF30A016AA8554
:105EAC005285EF207014B727002003AB87DCC16745
:105EBC0083A5C78CAA8A3E8AEF3040028325CA8C00
:105ECC003325A000938C4C63A388AC225685EF300D
:105EDC00E0006359A06883C7D42223AA642323ACAF
:105EEC00042289CBB717004023840700A386042221
:105EFC00EFB0FF9083C7E422A1E7B717004003C7B8
:105F0C001702130540061377B70FA380E702EFB013
:105F1C00BF89B7070502938717703ED9B7477671CB
:105F2C00938797123EDBB707040393872710081952
:105F3C003EDDEFC0BFE685472387F422EFB03F8CF0
:105F4C0083A74424850723A2F42483C7D4248DC7B4
:105F5C0083C7E42495E31D47B71700402384E7006B
:105F6C008947A386F422EFB09F89B76700401307D7
:105F7C000020D8C723880422B727002003C707DDD9
:105F8C009147631EF76883A5845D03A5444AEF20FF
:105F9C00B00583A509C0EF20300523A0A9C083A5B7
:105FAC00C45D2A8B03A5844AEF20100483A549C045
:105FBC00EF20900323A2A9C083A5045EAA8A03A59F
:105FCC00C44AEF20700283A589C0EF20F001B727E7
:105FDC00002023A4A9C083D9C7DC3727002083263F
:105FEC0007DC8509C20993D90901239637DDB72748
:105FFC00002083A787DC2A8A958F9306200363F6FB
:10600C00F602B727002083A787DC2320F7DC37278D
:10601C0000208347E7DC93C717002307F7DC638A6C
:10602C00075E13050020EFB0DF9E9307301F63FB64
:10603C003705C16983A509A55A85EF20D03583A5FD
:10604C0009A523ACA45C5685EF20F03483A509A5E3
:10605C0023AEA45C5285EF20103403A6444783A5DD
:10606C00044723A0A45E03A58447EFD0CFC6EFC09E
:10607C00FFF3B727002003C5D7DB05051375F50F14
:10608C00EFD02FED83A78DDC83445418B727002065
:10609C00370B0020B72B0020834ADB5D03CA07DDDA
:1060AC0083C7DBDA9A04B7090020DD8C93B74A0169
:1060BC008607DD8C9307CAFF93B717008A07414602
:1060CC009385894013058414DD8CEFE09FE73146FE
:1060DC009305045C13058415EFE0BFE62247C54722
:1060EC0093F4F40F2306F70083A78DDC23025417D7
:1060FC009307FAFFA302941693F7F70FB714002037
:10610C00854A93844463E3E0FA34EFE02F908347AD
:10611C0004121547E393E72EB727002083C707DD4A
:10612C00E398572F0945EFD0CFE26F00702EB727B9
:10613C00002083A787DC03AC89C61307803EB38796
:10614C0087416375F70C83A589C15285EF20C0691F
:10615C0083A5C9C123ACA9C02A8A5E85EF20C0687B
:10616C0083A509C223AEA9C0AA8B6A85EF20C0679C
:10617C0083A749C22A8D23A0A9C21385170023A285
:10618C00A9C29307700C63F3A708EF30D032AA852D
:10619C002ACE5285EF203020F2452AD95E85EF2099
:1061AC00901FF2452ADB6A85EF20F01E4167832B96
:1061BC00879B2ADD938AC9C0014D314A83A70A0007
:1061CC00910A3ECE1C19B386A7018842F245110DE7
:1061DC00EF308011DE85EF20F062F245EF20C060D9
:1061EC0023AEAAFEE31C4DFD938789C123A20700B1
:1061FC0023A4070023A0070083A749C723A209C231
:10620C00850723AAF9C685472388F9C6B727002036
:10621C0083A787DC1307F07CB3878741E377F7B854
:10622C000255EF106024C16783A5C7972A8AEF2017
:10623C00F04AE35CA0B6C16783A507A45285EF20A2
:10624C001053E35405B6C16703A5479DD285138C43
:10625C00C9C0EF205014C16783AB879D2A8A138D68
:10626C0089C1832A8C035285110CD685EF30C00767
:10627C00DE85EF203059D685EF200057232AAC025B
:10628C00E3118DFF1DB6F6455285EF20504EE356B7
:10629C0005B4938AC9C0938B89C183A5CA01528561
:1062AC00910AEF20305683A54A02EF20E053E247D3
:1062BC0023A2AA02AA858843EF300003E24788C3D1
:1062CC0091073ECCE39B5BFD09BEE30C0AB0C167B2
:1062DC0083AA079E938BC9C0014B314C9257D6852C
:1062EC00910BDA978843110BEF20D051AA8503A5A7
:1062FC008B01EF20604F23ACAB00E3118BFFD5B4C7
:10630C0083A5845D5E85EF20307E83A5C45D23A2CA
:10631C00A44A5A85EF20507D83A5045E23A4A44A89
:10632C0035B61147E396E7B499469010930580066D
:10633C007945EFB07F91E31D05B2C16703150106E6
:10634C00831A2106031A410603AB07A21DA0994626
:10635C00901081451305C002EFB01F8FE31A05B0F2
:10636C00C16703150106831A2106031A410603AB04
:10637C0087A1EF30E03DDA85EF20D0482A8C2AC186
:10638C005685EF30E03CDA85EF20D047AA8B2AC344
:10639C005285EF30E03BDA85EF20D04683A5043BF5
:1063AC002A8B2AC56285EF20307483A5C43BEF206D
:1063BC00704583A5443BAA8A5E85EF20F07283A5C5
:1063CC00043CEF20304483A5843B2AC65A85EF2039
:1063DC00B07183A5443CEF20F0422A8B3245D68520
:1063EC00EF106008C16783A547A4EF20B041C167D7
:1063FC0083A587A4EF20207A93050000AA8BEF20B9
:10640C00103763590500C16783A5C7A45E85EF20CB
:10641C00A03DAA8B03C7D43A85472300F10C5EDF5D
:10642C008D476316F704138DC43A014A314C1C0195
:10643C0033874701832B070083250D025E85EF20F0
:10644C0010336354050023207D038325CD025E8524
:10645C00EF20D0286354A00023267D03110A110DD0
:10646C00E3178AFD83A7443E850723A2F43ED68515
:10647C005685EF203039B245AA8B2E85EF20903807
:10648C00AA855E85EF204036AA8BDA855A85EF20E7
:10649C007037AA855E85EF202035EF00F07C83AB4A
:1064AC00843E2A8C930500005E85EF2030236358D0
:1064BC00A00ADE856285EF2030630605DE85058146
:1064CC00EF20606DC16783A5C78CEF203021635529
:1064DC00A00883A7C43E13074006850723A6F43EF5
:1064EC006376F7002387043AA386043AB24705473C
:1064FC0023AA595B23ACF95AB727002023AE695B5A
:10650C00A38AE7D86FF0DF96994690108D457945B0
:10651C00EFB08FF3E31E05948357010613958700A4
:10652C00A1835D8D8357210642054185139A87000F
:10653C00A183336AFA0083574106420A135A0A416F
:10654C00939A8700A183B3EAFA00C20AC16703AB2E
:10655C00C7A193DA0A4131BD23A6043E41BF23A44F
:10656C00843F69B783A74423330BFB4023AC6423DC
:10657C009307400663F2670583C7D42291EB054766
:10658C00B71700402384E700A386E422EFB02FA7BF
:10659C0003A784239307803E63F0E70283C7D422CA
:1065AC000947638BE700B71700409D462384D7004B
:1065BC00A386E422EFB0AFA483C7F424A1C703A73A
:1065CC00842383A7042563FFE70285472386F422EF
:1065DC00B717004003C7170283C617029387170229
:1065EC001377F70F93E626002380D70083C60700A6
:1065FC0093E616002380D700730050102380E70029
:10660C002386042283A78424850723A4F4246FF013
:10661C00DF93B767004013070020D8C739B4B727FA
:10662C00002083C757D96387075C83C7843C638387
:10663C00075CEFB0DFE783A74447930500003E8576
:10664C003ED2EF20B009635DA03283AB495B83A7D8
:10665C00C95B83AA895BDE855E853ECEEF20901AEE
:10666C002A8CD6855685EF20F019AA856285EF20F5
:10667C00A017F2452A8C376A375F2E85EF209018C9
:10668C00AA856285EF204016C16783A5C78CAA8CAA
:10669C0013DC1C00130A6AA8EF20D016330C8A41B5
:1066AC00E2852A8DEF201016E285EF20B015416BA4
:1066BC00AA8503250B94EF203043E285EF2090143C
:1066CC002A8CAA856A85EF20F013E285EF209013BF
:1066DC00AA8503250B94EF203041E285EF20901220
:1066EC00E685EF20301203A704422AD83ACC03A740
:1066FC0044423ACA03A784423AC803A7C4423AC6E2
:10670C0041670327C79BBA853AD6EF2050066349E9
:10671C00052641670325878CC255EF20C047AA8503
:10672C002AD05E85EF20100E82552A8C5685EF20DC
:10673C00700D8255AA8A7245EF20D00C03A78447AE
:10674C00B255AA8B12553AD4EF20D00BA255EFA01C
:10675C005FDE83ACC4482ACE6285E685EF20D03854
:10676C00F245EF20300AE685EF20000803AC04491F
:10677C002A8D23A6A448E2855685EF20F036F245F3
:10678C00EF205008E285EF20200603AC4449AA8A8A
:10679C0023A8A448E2855E85EF201035F245EF2052
:1067AC007006E285EF204004AA852ACE23AAA448CD
:1067BC004245EF203005AA8B3245D685EF20900458
:1067CC00AA855E85EF205032AA85EF20E001AA8BC6
:1067DC003245EA85EF201003F2452A8C5245EF2012
:1067EC007002AA856285EF203030AA85EF10D07F29
:1067FC002A8C5245D685EF20F000AA8C4245EA85BA
:10680C00EF205000AA856685EF20102EAA85EF1088
:10681C00B07DAA8C6245DE85EF20C07EEA85EF1044
:10682C00B07C2A8D4245E685EF20C07DAA856A851D
:10683C00EF10907B2A8D3245E285EF20A07CAA8553
:10684C006A85EF20702A2AD06245E285EF20807B92
:10685C00D685EF107079AA8A3245DE85EF20807AD2
:10686C00AA855685EF105078AA8A5245E685EF2006
:10687C006079AA855685EF2030278255AA8A2E8505
:10688C00EF2040782A8DD6855685EF20A077AA85F3
:10689C006A85EF107075C16783A5C78C2A8DEF20B0
:1068AC00607613571D00330AEA40D2852ADCEF20AC
:1068BC006075D285EF200075AA8503250B94EF2017
:1068CC00B022D285EF2000742A8AAA856255EF2067
:1068DC006073D285EF200073AA8503250B94EF20FB
:1068EC00B020D285EF200072EA85EF20A071B2555E
:1068FC002A8AEF20C067634505086245E685B70C18
:10690C000080EF202070F245FD1CEF10F06D2A8BFB
:10691C005245E285EF20006FAA855A85EF10D06CA6
:10692C002A8B4245DE85EF20E06DAA855A85EF2043
:10693C00B01BC25533F5AC00EF20E02583AB844887
:10694C002A8C930500005E8503CB044AEF2020536C
:10695C0063020510B3F57C016285EF20F018C16766
:10696C0083A5C79C33F5AC00EF2040576354A00EB1
:10697C00136B2B00930700002380644B23ACF4486B
:10698C0083AB044203AB444283AA844203AAC442AD
:10699C00B70700209387874023A0770123A26701C4
:1069AC0023A4570123A64701D2855A85EF20806581
:1069BC002A8CD6855E85EF20E064AA856285EF205F
:1069CC00B012AA85EF105062AA8503A54441EF20AE
:1069DC00B01123A0A95CD2855685EF20A062DA8580
:1069EC002A8C5E85EF200062AA856285EF10D05F4D
:1069FC00AA85EF10705FAA8503A58441EF20D00E05
:106A0C00DE8523A2A95C5E85EF20C05FDA85AA8BA8
:106A1C005A85EF20205FAA855E85EF20F00CD68585
:106A2C002A8B5685EF20005EAA855A85EF20D00B65
:106A3C00AA8AD2855285EF20E05CAA855685EF1094
:106A4C00B05AAA8503A5C441EF20100A23A4A95C5F
:106A5C006FF04FE383A584492255EF10F058C167BE
:106A6C0083A5C79323ACA448EF2040476356A000EE
:106A7C00137BDBFF2380644B83C7044A898BBDE304
:106A8C00025503AB0448D285EF20E010DA85EF20E5
:106A9C00B005C16C83A58C9BEF20C056DA85EF1036
:106AAC00B05403AB444823A0A448D2855685EF20AC
:106ABC00800EDA85EF20500383A58C9BEF20805449
:106ACC00DA85EF10705223A2A448DE856285EF2090
