:101000009010000000000000F67100008A4D000002
:1010100000000000000000000000000000000000D0
:1010200000000000000000000000000000000000C0
:10103000F671000000000000064E000000000000F5
:101040005E01002000000020AC000020CA46000025
:10105000F6710000F6710000F6710000F6710000F4
:10106000F6710000F671000082020020B20200203A
:10107000F6710000F6710000CC460000F671000029
:10108000D4020020F6710000F6710000F671000035
:1010900097010100938101B7175100201301817658
:1010A00017F500001305053697F5FF1F93850535E5
:1010B00017F6FF1F1306465263FAC5008322050088
:1010C00023A0550011059105E3EAC5FE17F5FF1FA2
:1010D0001305855597150020938505D16377B500D5
:1010E000232005001105E36DB5FEEF60E0101765E4
:1010F00000001305C51019C1EF602010EF305055E6
:0411000001A000004A
:101104001D713ED8B7670040A6C4C453A2C64AD2D4
:10111400C2044ED052CE56CC86CE96CC9ACA9EC825
:10112400AAC2AEC032DE36DC3ADA42D646D472CA3D
:1011340076C87AC67EC4C18037190020C4D301445E
:10114400B7290020130949623D4A854A83C7A9D7B4
:10115400636BF4023644F640E6425643C643A64463
:10116400164586457256E2565257C2573258A2580F
:1011740012598259724AE24A524EC24E324FA24F1B
:10118400256173002030131734004A97834787552D
:10119400636AFA00B397FA00E58F89C78327C755B6
:1011A40091C3829705041374F40F4DB71D713ED893
:1011B400B767004093870710A6C4C453A2C64AD297
:1011C400C2044ED052CE56CC86CE96CC9ACA9EC875
:1011D400AAC2AEC032DE36DC3ADA42D646D472CA8D
:1011E40076C87AC67EC4C18037190020C4D30144AE
:1011F400B7290020130949623D4A854A83C7A9D704
:10120400636BF4023644F640E6425643C643A644B2
:10121400164586457256E2565257C2573258A2585E
:1012240012598259724AE24A524EC24E324FA24F6A
:10123400256173002030131734004A97834787557C
:10124400637BFA00C117B397FA00E58F89C7832738
:10125400C75591C3829705041374F40F45B75D71A4
:101264003AD6372700403ED45C4B86C696C49AC211
:101274009EC02ADE2EDC32DA36D842D246D072CE76
:1012840076CC7ACA7EC8858BF1CB85475CCB372771
:1012940000208327C7DB130640068507232EF7DAD1
:1012A4008327C7DBB3F7C702D5EBB71700209387B3
:1012B400476283C6475ADDC28326C7DB03A7875923
:1012C4009305803E3387E6403AC663F7E50403A7F7
:1012D400075A6C000D45050723A0E75AB7070020FD
:1012E4009387475D03C6C70037C7ADDE1307F7EE24
:1012F40098CB7977130707D190D311462396E70447
:10130400B4C7973000E0E7806073996737170040EF
:10131400938757AA1CCB01A09305401F63F1E502F4
:1013240003A7075A050723A0E75A914763F8E70282
:10133400996737170040938757AA1CCB01A0637F96
:10134400E60037260020032746D48567938787382D
:101354003387E64063F4E7002322D6D4B640A6429E
:10136400164386437255E2555256C2563257A25717
:1013740012588258724EE24E524FC24F616173004E
:10138400203041113EC4B7270040938707403AC636
:10139400D84B058B11CB0547D8CB372700208327A3
:1013A40007D485072320F7D43247A24741017300AD
:1013B400203041113EC4B7370040938707803AC6B6
:1013C400D84B058B19C30547D8CB3247A2474101F7
:1013D4007300203039713ACE37C700403ECC7C438D
:1013E40006DE16DC1ADA1ED82AD62ED432D236D02D
:1013F40042CA46C872C676C47AC27EC07CC3898B90
:10140400A5C7372800208347F8D3054537C70040D0
:101414001D8DB7C600401375F50F8145130787026C
:1014240093864602930800041C43A18BADC3B7C73F
:1014340000409C5FB726002005472380F6D6B727D7
:101444000020238FB7D2A30FA8D2B7270020A38EE2
:10145400E7D2372600208347C6D3A9EFB727002059
:1014640003A7C7D711C3A5EDF250E2525253C2539A
:101474003255A255125682567247E2475248C24824
:10148400324EA24E124F824F21617300203003AEC0
:101494000600E38B15F9B707002013166500938740
:1014A4004762B297AE9713831500238CC75D93757B
:1014B400F30F9DBFB707002083C7D762C5D337C7D3
:1014C400004081471307070231A085072320070046
:1014D40093F7F70F0348C6D3E3E907FF41B703C601
:1014E40006D6B71700209387C7BF1A056206618620
:0814F4003E95029795BF000030
:1014FC009307700263E9A700B7C7004088C7B70716
:10150C0000202386A7628280B787004023800702D1
:10151C0003C727021377C70F2381E70282800111CB
:10152C0022CC2E849305000026CA06CE4AC84EC68D
:10153C0052C4AA84EF70D016635CA00A37050080F1
:10154C00A685218DEF702059C16783A5072EAA842B
:10155C004164EF70F01493050000634B0506C167FE
:10156C0083A5472E2685EF70300B634FA006A6850A
:10157C002685EF70901BC16783A54721AA89EF7060
:10158C00D01AC16783A5872E2A892685EF70F0199A
:10159C00CE85EF70901983250421AA892685EF60EA
:1015AC001078CA85EF60B077CE85EF6050772A8AC5
:1015BC0003250421A685EF70104ACA85EF603076AA
:1015CC00CE85EF705049AA855285EF70C050AA8520
:1015DC0003250421EF703048F2406244D244424962
:1015EC00B249224A05618280C16783A5C72DCDB758
:1015FC0013050000D5B71D71A2CC370400201304CD
:10160C0044621C486ED6832DC4003EC45C48EE85F3
:10161C006E8586CE3EC6A6CACAC8CEC6D2C4D6C2AF
:10162C00DAC05EDE62DC66DA6AD8EF701010A245B2
:10163C00AA8441692E85EF70500FAA852685EF602C
:10164C00106EB245AA84376A375F2E85EF70F00DA5
:10165C00AA852685EF60B06C83254921AA8A93D48C
:10166C001A00130A6AA8B3049A40EF70100CA685EE
:10167C002A8BEF70900BA685EF70300BC169AA8591
:10168C0003A58928EF70303DA685EF70100AAA8457
:10169C00AA855A85EF707009A685EF701009AA8586
:1016AC0003A58928EF70303BA685EF701008D6850E
:1016BC00EF70B00783254921AA84EF70607E6347E1
:1016CC00053E83A589282685EF7000756340A03EF2
:1016DC00C16703A50721A685032CC401EF70A03FA9
:1016EC005C58AA852AC86E853ECAEF701004D24594
:1016FC006458032D4402EF701036A685EF70F0028B
:10170C00D245832B8401832C0402EF605061C245C7
:10171C002ACA48D82245832D8403EF701001EE8528
:10172C00EF707033A685EF705000EE85EF60305F80
:10173C00C2452ACC08DC3245832DC403EF70E07E11
:10174C00EE85EF705031A685EF70207EEE85EF6050
:10175C00105D2AC448DCEA856285EF70007DAA8D95
:10176C00E6855E85EF70607CAA856E85EF70B02E85
:10177C00AA85EF60D05A2AC6E2855E85EF70E07AC2
:10178C00AA8DEA856685EF70407AAA856E85EF6032
:10179C001059AA85EF60B0582AC8DE855E85EF70B7
:1017AC00C078AA8DE2856285EF702078AA856E8557
:1017BC00EF70702AAA8DE6856685EF700077AA8592
:1017CC006E85EF705029AA8DEA856A85EF70E075F9
:1017DC00AA856E85EF60B054AA852ACE6245EF705B
:1017EC00C074C245AA8D2245EF702074AA856E85FF
:1017FC00EF707026B245AA8D2245EF700073F2454A
:10180C002AC45245EF706072AA852245EF70B0244D
:10181C00C2452AC45245EF704071B2452AC8624590
:10182C00EF70A070AA854245EF70F0222AC6EE85B3
:10183C006E85EF70806FA2452AC82E85EF70E06E22
:10184C00AA854245EF60B04DB2452AC82E85EF708F
:10185C00C06DAA854245EF60904C832549212AC86A
:10186C00EF70A06CC2472A8B8583330AFA40D2856D
:10187C00EF70A06BD285EF70406BAA8503A5892809
:10188C00EF70701DD285EF70406A2A8AAA855A853E
:10189C00EF70A069D285EF704069AA8503A58928ED
:1018AC00EF70701BD285EF704068C245EF70E06737
:1018BC00C16703AAC72EAA8AD285EF70E05563537D
:1018CC00A002D6855285EF700021A685EF70E065E9
:1018DC00C16783A4072F2A8AA685EF70605C6343D7
:1018EC000500D284EE856285EF702064A2452A8AB9
:1018FC006685EF708063AA855285EF605042B245D1
:10190C002A8A6A85EF706062AA855285EF60304141
:10191C00C16783A5472FEF704061A685EF70E0602B
:10192C00DE85EF60D03FAA8AEE855E85EF70E05FC2
:10193C00B2452A8A6685EF70405FAA855285EF60B2
:10194C00103EA2452A8A6A85EF70205EAA855285D0
:10195C00EF70701083254921EF70205DA685EF7024
:10196C00C05CE285EF60B03BA2452A8B5E85EF70D0
:10197C00C05BB2452A8A6285EF70205BAA855285CE
:10198C00EF70700D2A8AEE856A85EF70005AAA8571
:10199C005285EF60D03883254921EF700059A68518
:1019AC00EF70A058E685EF609037B2452AC85E8587
:1019BC00EF70A057A2452A8A6285EF700057AA855E
:1019CC005285EF60D0352A8AEE856685EF70E0553A
:1019DC00AA855285EF70300883254921EF70E054B9
:1019EC00A685EF708054EA85EF6070332A8AD6851D
:1019FC005685EF708053AA84DA855A85EF70E052D1
:101A0C00AA852685EF60B031C245AA842E85EF7079
:101A1C00C051AA852685EF609030AA84D285528564
:101A2C00EF70A050AA852685EF60702F8325492181
:101A3C00AA84EF70804F93D71400B764375F9384F8
:101A4C0064A89D8CA6852A89EF70204EA685EF7020
:101A5C00C04DAA8503A58928EF70E07FA685EF709D
:101A6C00C04CAA84AA854A85EF70204CA685EF70DD
:101A7C00C04BAA8503A58928EF70E07DA685EF7081
:101A8C00C04AAA84AA855685EF70204A08CCA68540
:101A9C005A85EF70804948CC4245A685EF70E048E6
:101AAC0008D0A6855285EF70404848D0F640664471
:101ABC00D6444649B649264A964A064BF25B625CC6
:101ACC00D25C425DB25D256182801D7162DC370C97
:101ADC000020130C4C62D6C2832ACC0983270C023B
:101AEC0083258C02568586CE3EC0A2CCA6CACAC817
:101AFC00CEC6D2C4DAC05EDE66DA6AD86ED6EF70B5
:101B0C008075032B0C0A8325CC022AC25A85EF70F0
:101B1C008074832B4C0A83250C032AC45E85EF70DA
:101B2C0080732AC6D6855685EF7020402A84DA85C4
:101B3C005A85EF70803FAA852285EF60501E2A845B
:101B4C00DE855E85EF70603EAA852285EF60301DD4
:101B5C004164832544212A8AB769375FEF70E03CE2
:101B6C0093571A00938969A8B389F940CE852AC87E
:101B7C00EF70A03BCE85EF70403BC164AA8503A5F6
:101B8C008428032D0C07832D8C01EF70C06CCE853F
:101B9C00EF70A039AA89AA8542450329CC01832C70
:101BAC004C02EF708038CE85EF702038AA8503A5E3
:101BBC008428EF70406ACE85EF702037D285EF70A5
:101BCC00C036C16783A54730EF702036034A8C09B5
:101BDC00AA8593771A006382073AC167416703A508
:101BEC00872F8329C72F83274C063EC8EF70C0224E
:101BFC00635BA03883270C018325CC003ECA832766
:101C0C004C012E853ECCEF704032D2452ACE2E852B
:101C1C00EF70A031AA857245EF607010E2452ACAB8
:101C2C002E85EF708030AA855245EF60500F8325CA
:101C3C0044212ACCEF70602FE2472ACE13D717002D
:101C4C00B767375F938767A8998F3ECAD245EF7005
:101C5C00C02DD245EF70602DAA8503A58428EF70A6
:101C6C00805FD245EF70602CAA852ACA7245EF704E
:101C7C00C02BD245EF70602BAA8503A58428EF708A
:101C8C00805DD245EF70602AE245EF70002AC16793
:101C9C0083A50721EF70205CC16783A587300605FB
:101CAC000581EF708028CE85EF70801F635D052C59
:101CBC00C2456A85EF60B006832544212322AC0619
:101CCC00EF7080156346050093671A00230CFC081F
:101CDC00924537050080232C5C05232E6C052320B0
:101CEC007C0733452501EF704024A245AA890245A3
:101CFC00EF70A023AA854E85EF70E055B245AA89F6
:101D0C006685EF708022AA854E85EF70C0548325BE
:101D1C004421EF708021EA85EF702021EE85EF6081
:101D2C0010009245AA8B6E85EF702020B245AA89CF
:101D3C000245EF70801FAA854E85EF60407EA2455C
:101D4C00AA896685EF70601EAA854E85EF70A0503B
:101D5C0083254421EF70601DEA85EF70001DCA8554
:101D6C00EF60E07BA2452A8A6E85EF70001CB245BD
:101D7C00AA894A85EF70601BAA854E85EF70A04D2D
:101D8C009245AA896685EF70401AAA854E85EF6048
:101D9C00007983254421EF704019EA85EF70E01833
:101DAC008245EF60C077B245AA896E85EF70E01767
:101DBC00A245AA8A4A85EF704017AA855685EF601E
:101DCC00007692452A890245EF702016AA854A852D
:101DDC00EF70604883254421EF702015EA85EF7081
:101DEC00C014E685EF60A0732A89DE855E85EF70EE
:101DFC00C013AA8AD2855285EF702013AA85568506
:101E0C00EF60E071AA8ACE854E85EF700012AA852C
:101E1C005685EF60C070AA8ACA854A85EF70E010BB
:101E2C00AA855685EF60A06F832544213764375F00
:101E3C00935A1500130464A8EF70200F3304544117
:101E4C00A2852A8BEF70600EA285EF70000EAA851A
:101E5C0003A58428EF702040A285EF70000D2A8422
:101E6C00AA855A85EF70600CA285EF70000CAA85CC
:101E7C0003A58428EF70203EA285EF70000B2A8406
:101E8C00AA855E85EF70600A232CAC00A285528572
:101E9C00EF70A009232EAC00A2854E85EF70E008F0
:101EAC002320AC02A2854A85EF7020082322AC02C5
:101EBC00EFF06FF483478C09032A8C028329CC0240
:101ECC00858B83240C03638207100325CC09D285F0
:101EDC004164EF7040388325C430EF700005D28523
:101EEC00EF60E0632324AC0203250C0ACE85EF706F
:101EFC0080368325C430EF704003CE85EF602062BE
:101F0C002326AC0203254C0AA685EF70C03483252A
:101F1C00C4304164EF706001A685EF60406083259A
:101F2C0004312328AC0203250C04EF700000832538
:101F3C0004312320AC0403254C04EF60107F2322D2
:101F4C00AC048325043103258C04EF60107E23241C
:101F5C00AC0483274C09F64066448507232AFC0809
:101F6C00D6444649B649264A964A064BF25B625C11
:101F7C00D25C425DB25D25618280416703A58428F5
:101F8C00832907308DB1424593050000EF60D0687E
:101F9C00E350A0D4EA856A85EF606058AA85424573
:101FAC00EF70602B93050000AA89EF60706F63459A
:101FBC00050023223C0729BB93070000137AEAFF94
:101FCC002322FC06230C4C0921B383258C03032507
:101FDC000C014169930C4C02EF70E027AA8A83250F
:101FEC00CC0303254C01EF7000272A8483254C0376
:101FFC000325CC00EF70202683254931EF60F07269
:10200C008325CC04EF60A051832549312326AC04F1
:10201C005685EF609071AA8503250C05EF60205062
:10202C00C16783A587312328AC042285EF60F06F4C
:10203C00AA8503254C0513048C01EF60404EC16743
:10204C0083AAC731C16703AB0732232AAC04832BA5
:10205C004403D6855E85EF60305C6354A008232A68
:10206C0054031104E3958CFE832ACC04416483252C
:10207C00042F5685EF60706BD285EF60404A032ABF
:10208C000C058325042F2324AC025285EF60F069E4
:10209C00CE85EF60C04803244C05832549312326A7
:1020AC00AC022285EF607068A685EF604047C16482
:1020BC0083A504312328AC025685EF60106783A5F5
:1020CC0004312326AC045285EF603066C16783A5CA
:1020DC0047322328AC042285EF603065232AAC04F8
:1020EC008DBDDA855E85EF60B05BE35C05F6232A77
:1020FC00640385BF011122CC4EC652C406CE26CA3B
:10210C004AC803494501834455018D472A842E8AC8
:10211C009319290063F99700B30735018C430849DB
:10212C00EF70601308C80C48A29923A0490152858E
:10213C000509EF60C03E1379390008C8230A240151
:10214C008D47AA8963E79700850493F4F40FA30ADB
:10215C0094002685EF702070AA854E85EF60B0172D
:10216C00F2406244D2444249B249224A056182801B
:10217C00011122CC52C42A842E8A0C45484106CE29
:10218C0026CA4AC84EC6EF6080394C442A89EF6093
:10219C000039AA854A85EF6010141C40AA89528523
:1021AC00BE85BE84EF70200BCE85EF601058A685DF
:1021BC00EF60E036C167AA8408C003A50721CE856D
:1021CC00EF706009CA85EF60505648C0F240624417
:1021DC004249B249224A2685D244056182800100D7
:1021EC0001000100010001000100010001008280DA
:1021FC00B76700409387071098478566558F98C737
:10220C008280B76700409387071098478966558F7F
:10221C0098C78280B76700409387071098438566FC
:10222C00558F98C3984FFD76FD16758F98CF828089
:10223C00411106C622C4F93F37640040553FD137DF
:10224C00793F1304041085675CC4513F8967B24021
:10225C005CC4224441018280411106C6653FB767C8
:10226C000040938707100967D8C70567D8C7853F13
:10227C00493FB537B53FB240410195B7011122CC6A
:10228C003764004026CA4AC84EC652C406CEAA8439
:10229C00A149493713040410056A0969939784010D
:1022AC00E18763D00706A9371D3FFD19993F053F0C
:1022BC00232624018604E39309FE1840FD77FD17BD
:1022CC007D8F18C0376400401304041018488566CD
:1022DC00558F18C85848F98F5CC811371D3701370E
:1022EC004440232624013D37F240624413D5C400F8
:1022FC000589D2444249B249224A13451500056169
:10230C008280232644014DB7011122CC06CE2AC669
:10231C002EC43284313F324506051375E50FB93FA3
:10232C0019E51D3F7D55F2406244056182802245CE
:10233C00B13765D9228599376DD5393F0145E5B758
:10234C00411122C43704002006C61304446283479B
:10235C00840A91E77D55B2402244410182800D47A9
:10236C00636EF70005476383E70213068007814518
:10237C007945593F01468945794529A81147E39B81
:10238C00E7FC1306C00893050006FDB77546A54586
:10239C001305C002953F5DFD85472305F40A894767
:1023AC00A304F40A4DBF397122DC2A8456D266CAC2
:1023BC0006DE26DA4AD84ED652D45AD05ECE62CC3D
:1023CC002EC6B28CB68A0604A5351375E40F7D357E
:1023DC0005E159357D55F2506254D2544259B259E7
:1023EC00225A925A025BF24B624CD24C216182808F
:1023FC003245693579DD2D3D136514001375F50FE4
:10240C00B53D61D937640040FD798144138CFAFFE6
:10241C0013040410FD19856B096B1C40214A0149FA
:10242C00B3F737011CC01C48B3E777011CC85C48E4
:10243C00B3F737015CC8F1335D335C400609139781
:10244C0037016354070013691900232664017D1AB0
:10245C007933E3120AFE7D3B63D784032326740190
:10246C00BD3B4533AD3B232664015933B3879C00F8
:10247C0085042380270193970401C183E3EF57F967
:10248C00E13B014589BFAD33E1BFB7470040C8C34D
:10249C00984B058B75DFC8431375F50F8280B727F2
:1024AC00002003A5C7DBB7270040DC439306803E22
:1024BC003D67B387D702130707A6B3D7E7023305E7
:1024CC00D5023E958280411106C6D13FB707002048
:1024DC00938747620547A387E72E83C6072F89E6B4
:1024EC002388E72E23AAA72EB240410182803727EA
:1024FC0000208326C7DB8327C7DB958F63E3A70008
:10250C00828073005010C5BFC167056E7D738D68E6
:10251C0075781566ED763D6FAA8E01471385F7FF2A
:10252C00130EFEF01303030F938838331308C8CC33
:10253C00130656559386A6AA130F0F34B387EE00D5
:10254C0083C707000507A98F13F5F70F939F0701A2
:10255C0093D78F0122055D8DB377C5013375650067
:10256C0011819207C98F33F51701B3F707018983DE
:10257C000A055D8DB377C500758D86070581B3EFB0
:10258C00A70093D78F008607FA9783D70700139578
:10259C008F003D8D931F050193F7F70F13D58F0116
:1025AC00A207C98F33F5C701B3F7670012059183F2
:1025BC00C98F33F51701B3F7070189830A055D8DC0
:1025CC00B377C500758D860705815D8D931707015F
:1025DC00C183E3E5B7F68280411122C437040020A1
:1025EC0006C626C24AC0130444628347D430094746
:1025FC0013050000636AF70013972700BD679387E4
:10260C000734BA9703A507208347E43091C7C16705
:10261C0083A58732EF50B0708347F43091C7C16700
:10262C0083A5C732EF50B06F8347043191C7C167A0
:10263C0083A50721EF50B06EC16783A50733EF5018
:10264C00106EC16783A54733AA84232EA4300325BB
:10265C000432EF60900DC16783A5C7312A892685A6
:10266C00EF60B00CAA854A85EF50706BB240232006
:10267C00A4322244924402494101828037C700406F
:10268C001C43D59B93E747001CC3828037C700408F
:10269C001C43CD9B93E727001CC38280B7270020E7
:1026AC0083C7D7D313F5F70F81EBB7C70040885713
:1026BC000D8105891345150082802D8D1357050159
:1026CC00B7D7EB85298F9387B7A63307F7029357B4
:1026DC00D700B98F37B7B2C2130757E3B387E702F6
:1026EC0013D707013D8FBD673D8B93870734BA978E
:1026FC0003C5C7208280411106C65533B717002089
:10270C00FD553168AA8E9387879501462E859308CF
:10271C0040061308383B414E03C7E70005CF03C7FB
:10272C00170083C6F7001303401F33071703B33694
:10273C00D000B306D04093F6863E3697D443B3868A
:10274C00DE406364D80033D316031A9763D4E500D4
:10275C00BA8532850506C107E310C6FDB2404101BA
:10276C008280914763EDB706BD67938787288A05FA
:10277C00BE959841B7670040028798431345F5FF13
:10278C00698F98C3984B698F98CBD84B798DC8CBF0
:10279C00828094431347F5FFF98E94C3944BC98EF2
:1027AC0094CBD44B758FD8CB828094431347F5FFD1
:1027BC00F98E94C3944B758F98CBD84B498FE5B752
:1027CC009843498F98C3984F1345F5FF798D88CF5F
:1027DC0082809843498F98C3984F498F98CF8280B5
:1027EC00376700401C47C98F1CC782804111B767EF
:1027FC00004006C622C44147D8C71365050871318D
:10280C00B747004023A20700984B058B75DFC043E8
:10281C004145F937B2401375F40F224441018280CF
:10282C00375700401C4393E707101CC31C47858B8C
:10283C00F5DF82803757004008CB1C4793F7070819
:10284C00EDDF8280411106C622C426C2AA84C93F8C
:10285C00B717002003C427AB06041375E40FD93F48
:10286C002685C93F753F136514001375F50FD937CD
:10287C00B757004098431377F7BF98C3984713771F
:10288C0007046DDF884B9843B2402244136707203E
:10289C0098C392441375F50F41018280411122C4F3
:1028AC003704002026C206C64AC0130444620347FC
:1028BC00C4488547AE846310F7024144B7670040B3
:1028CC00C0C7E1362685D13622852244B2409244D7
:1028DC000249410131B72A89A1370345E44806056D
:1028EC001375E50F813F4A85B1372685A1373757D8
:1028FC0000401C43B240224493E707201CC392447F
:10290C00024941018280B70700209387476203C7C1
:10291C00F74829C783C7D74815476368F7000D47A1
:10292C00636CF700638EE7008280E91793F7F70F6B
:10293C000547637BF700828081451305E004B9BF2E
:10294C0081451305D007E5BF41118145414506C6B8
:10295C00B137B240814545454101D5B78280AA9532
:10296C00B787070063E1B702B7A7004085466364E9
:10297C00B50001458280C8C394C3D847058B75FF49
:10298C0013050510EDB70545828081473307F50027
:10299C00834607003387F50085072300D70013977C
:1029AC0007014183E364C7FE014582802971232C12
:1029BC008112377407002328211331462A89229566
:1029CC0023244113232E11122E8A232A91122326FB
:1029DC0031132322511323206113232E7111232C25
:1029EC008111653703270A00B7574C539387D76477
:1029FC00631FF71283548A009307407F63E9971291
:102A0C00638E0414416C8569BD6A31097D1C130BFE
:102A1C000010B78B07000C089389F9F0938A0A34DD
:102A2C00268663749B001306001042064182330510
:102A3C008900B307C50063E6FB0032C6B9373246DE
:102A4C000C087D738D6875781565ED760147130359
:102A5C00030F938838331308C8CC13055555938648
:102A6C00A6AAB387E50083C707000507B347FC0098
:102A7C0013FEF70F939E070193D78E01220E336E30
:102A8C00FE00B3773E01337E6E00135E4E0092075C
:102A9C00B3E7C70133FE1701B3F7070189830A0EA9
:102AAC00336EFE00B377AE00337EDE008607135E16
:102ABC001E00B3EEC70193D78E008607D69783D737
:102ACC000700139E8E0033CEC701931E0E0193F7A1
:102ADC00F70F13DE8E01A207B3E7C70133FE3701F0
:102AEC00B3F767009183120E336EFE00B3771E01AD
:102AFC00337E0E018A07135E2E00B3E7C70133FC49
:102B0C00A700F58F8583060C336CFC009317070127
:102B1C00C183E3E8C7F432993386C44093140601A9
:102B2C00C180E39F04EE8357AA00638987030145A4
:102B3C008320C1130324811383244113032901131C
:102B4C008329C112032A8112832A4112032B0112F9
:102B5C00832BC111032C8111316182800545C9BFC2
:102B6C00411126C237750700B714002022C4130682
:102B7C00700637040020938544AD1305054006C646
:102B8C001304446219358326044B375745521307F7
:102B9C001744F9576397E6028346444B0547F557AC
:102BAC006391E60293055006138544ADB13A0327B1
:102BBC0044519317870013D70701F1576313E500AE
:102BCC008147B240224492443E8541018280B7271E
:102BDC00002003A6C7DBB727002083C747DC1947B3
:102BEC00FD1793F7F70F636AF7043D678A0713071E
:102BFC00C729BA979C4382879307401FB7260020AA
:102C0C0003A746DB3307E64063FEE70237270020C5
:102C1C00834727DC23AAC6DA93C717002301F7DC06
:102C2C0089CF130500206DBE93072003C1BF930706
:102C3C004006E9B79307800CD1B7B767004013077C
:102C4C000020D8C782803D67B7270040130707A62E
:102C5C0098C723A20700054798C3984B1367170022
:102C6C0098CBB7E700E0416723A0E710B727002017
:102C7C0023AE07DA8280011137C7004006CE9307D6
:102C8C00007D130787021443898AB9E6A1E337C78D
:102C9C00004013070702B306F50083C6060085073C
:102CAC0014C393F6F70FE3E8B6FECD32896737C746
:102CBC0000409387177111071443858A8DEAFD171D
:102CCC009DC7BD460100FD16F5FEFDB7FD17BD46BF
:102CDC000100FD16F5FE45BF91CF81474DBF9042D7
:102CEC0032C632461043098A19E2FD17EDFBF24059
:102CFC000561828037C70040B7C600409307903EFD
:102D0C001307870293860602F1BF01112E862EC689
:102D1C00AA85371500201305C5B306CEEF20201069
:102D2C003246B78700402380C70203C727021377B8
:102D3C00C70F2381E702F240056182803DC1B727AE
:102D4C00002083C797D4B1CF411126C2B7240020ED
:102D5C0083C784D406C622C4A1E3930700042A8443
:102D6C0063F3A7003E8437050020130545629305E5
:102D7C0085591376F40F13058555EF20400A8547C6
:102D8C002384F4D4B7870040A380870203C737029B
:102D9C001377C70FA381E702B2402244924441014A
:102DAC00828082801D7186CEA2CCA6CACAC8CEC62D
:102DBC00D2C4D6C2DAC05EDE834745011397270022
:102DCC002A970CC385071547B3E7E702034455015F
:102DDC00230AF500914763E7870005041374F40F89
:102DEC00A30A85001309C101AA85131624004A857C
:102DFC00EF20E0028149930AF4FF63DA5903CA8495
:102E0C00014AB38B3A4105A003AB0400CC405A8570
:102E1C002EC6EF6060006356A000B24523A2640189
:102E2C008CC0050A9104E3417AFF8509F9B7058046
:102E3C000A042299F640664403250900D644464903
:102E4C00B649264A964A064BF25B256182800111EF
:102E5C00AA852AC63705002031461305456206CEE1
:102E6C0022CCEF10D07B37C4004023200400054552
:102E7C00EFF0EFE7B245F240014583C7050003C709
:102E8C0025009207751793F70703D98F1CD883C7B2
:102E9C00350003C795005CD8D441B337F0009607D2
:102EAC0014C883C685001207850714C483C6150091
:102EBC00D98F1D4754C41CC038C06244B7E700E02A
:102ECC00054723A2E7100561828041114AC03729CA
:102EDC0000208347D9D322C406C626C22E84B9CF7C
:102EEC0073700430B72700203727002083C7F7D32F
:102EFC008346E7D393F7F70F63F6B6000344E7D3A3
:102F0C001374F40FB71500209A079385C5BFB284CC
:102F1C00BE952286EF10B070B727002083C707D666
:102F2C00A30E09D22380F400736004302287B240D0
:102F3C002244924402493A8541018280B7C600403E
:102F4C009C56938686020147A18BF5F3B7C50040CA
:102F5C009385450298420D83058B09E713F7F70F0C
:102F6C006369870037C70040185F2300E6003E877F
:102F7C007DBF03A805003307F50085072300070173
:102F8C00D1BFB7F7FF1F83C5977E03C6A77E83C645
:102F9C00D77E03D7E77E83C7877EA300B5002301C6
:102FAC00C50093E727002300F500A301D5002312E9
:102FBC00E5008280397122DC26DA4AD84ED652D40A
:102FCC0056D25AD05ECE06DE2A8BAE8B32890144A5
:102FDC00FD59114AB7A40040894A4EC633068940B0
:102FEC006353CA00114642064182B3858B006800C8
:102FFC00EF10F062B3078B00DCC0B2479CC423A077
:10300C005401DC44858BF5FF110493170401C18333
:10301C00E3E527FDF2506254D2544259B259225A78
:10302C00925A025BF24B014521618280B7574C5397
:10303C0079719387D7943EC4B707002083C7E75CA8
:10304C00B72500201146938585DB1305D100230697
:10305C00F10006D622D4EF10905CB7150020314653
:10306C009385C5C713051101EF10705B01478147AC
:10307C002000D5463306E400034606000507B18F51
:10308C00C207C18313D6F7008607B297E314D7FEA5
:10309C0037750700A30EF10093050010A1831305EB
:1030AC000520230FF100653801E9377507005D46EF
:1030BC00A28513050520FD3DB25022544561828046
:1030CC00411126C2B70400209384446222C4130623
:1030DC0000042A8481451385446606C6EF1090557A
:1030EC0001CC1307F4FF854663EDE600E15723920C
:1030FC00F466FD572383F466B240224492444101A6
:10310C0082800D47AA87631BE400BD65130600028D
:10311C009385C5553E85EF109050F9BF7114E36D42
:10312C0087FC260413075004E36887FCC16513066B
:10313C000004938545F1F9BF411122C437040020E6
:10314C00130444621305446A13064024814506C6E1
:10315C00EF10504EB7170040130770052380E7049B
:10316C00130780FA2380E70483C64704371700202F
:10317C001307C7F093F6F60E2382D70423800704B7
:10318C0093068451B78700402398D700239CE7000F
:10319C0013044466239E870023860700B146A3864A
:1031AC00D70009472381E7022382E7022380070027
:1031BC00A3810700130790022380E7009D4623811B
:1031CC00D70037E700E0B70610002320D71003C75D
:1031DC000700136707022380E700B2402244410135
:1031EC008280B71700209387476203C78792854672
:1031FC007D171377F70F63F3E602372700200327B9
:10320C00C7DB2384D79223A6079223ACE79223AE85
:10321C00E79223A80792A380079439BF8280B7272F
:10322C0000202382A7DCB727002083A7C7DB7D15EE
:10323C001375F50F994763EBA70ABD679387872B27
:10324C000A053E951C41411106C68287B72700200E
:10325C00A38107DCEFF08FC2B240014541016FE062
:10326C002FA9B240B727002005472381E7DC1305BF
:10327C00002041016FF0CFD637C7004093075002B2
:10328C001CC7B240370700202306F76241016FF0DC
:10329C00EFBEB7170020938747621307000023A6E1
:1032AC00E79423A4E79423A2E794B7270020239064
:1032BC0007DCB24041018280B76700401307002051
:1032CC00D8C7EFF04FE4B7C7004023A00700D5B72D
:1032DC00B767004013070020D8C7EFF0CFE2B24029
:1032EC00B7C7004023A007004101E5BD8280638A77
:1032FC000532011106CE22CC26CA4AC84EC652C48B
:10330C0056C25AC08344050093978401E187635EDB
:10331C00F00E3704002013044462130A0004AE8933
:10332C002A895286814513058459EF10B03093E7F2
:10333C0004F8230CF458930700026389F42463EC1B
:10334C0097044147638FE410B717002093874762B7
:10335C00636D970009476384E40C0D456387A40CE7
:10336C0085476382F408FD57A9AC45476383E41A8B
:10337C005147E39AE4FE41678325C73303A5479F72
:10338C00EF50B03AEF602047A30CA4582185230DD1
:10339C00A4580D458DA0930710036387F42663E9A9
:1033AC009702930720026381F42293070003638F33
:1033BC00F42093071002E398F4FA13054006EFF09B
:1033CC000F93996737170040938757AA1CCB01A01E
:1033DC006381442593071004E397F4F82305040A4A
:1033EC00A304040AF1AA9307F004A30CF45893075E
:1033FC00B004230DF4589932B71700209387476215
:10340C0003A7879C050723A4E79CF2406244D2449F
:10341C004249B249224A924A024B05618280930783
:10342C006020231DF4581145F9B7370700200347D6
:10343C00E75C1945A30CE458370700200347D75C19
:10344C00230DE45837270020034717DAA30DE4585F
:10345C0003C7479B83C7D79B230EE458A30EF4588E
:10346C0059BFC16483A584330325C409416BEF5054
:10347C00D02BEF60403883A58433AA8A0325040A35
:10348C00EF50B02AEF60203783A584332A8A0325B6
:10349C00440AEF509029EF6000368325CB33AA897C
:1034AC004844EF509028EF6000358325CB332A89B0
:1034BC000848EF509027EF6000348325CB33AA8463
:1034CC004848EF509026EF600033A30C5459A30DDD
:1034DC004459A30E3459A30F245993DA8A40135A32
:1034EC008A4093D9894013598940230D5459230E8E
:1034FC004459230F34592300245BA300945AA1840C
:10350C00A301A45A21852302A45A2301945A3545B8
:10351C00DDB5B70400209384843FC16A83A50A34C7
:10352C008840EF509020EF60002D83A50A342A8A42
:10353C00C840EF50901FEF60002C83A50A34AA8975
:10354C008844EF50901EEF60002B2A8983A50A3423
:10355C00C844EF50901DEF60002AA30FA458A30C91
:10356C0044592185135A8A40A30D3459A30E24596A
:10357C0093D98940135989402300A45A230D4459E7
:10358C00230E3459230F24592545B5B5B717002000
:10359C009387476223A8079423AA079423AC079424
:1035AC0023A6079623A8079623AA079623AC07966B
:1035BC0023AE079623A00798238A079A23AC079A71
:1035CC008547A30CF458A1A82939DDBFB7170020F3
:1035DC00938747620547A38EE79A639AE9003D47B4
:1035EC00238FE79A1307200323A0E79CD1BF03473F
:1035FC001900238FE79A0947E386E9FE0347290060
:10360C00A9463307D702CDB7B7170020A38007FE12
:10361C0045BFEFE0FFD213351500A30CA4580945A4
:10362C00D9BB8280011122CC3704002013044462E0
:10363C0026CA4EC652C4AA89AE84328A8145130664
:10364C00C0071305C4014AC806CE4169EF10807E3D
:10365C008327092123283407930500001CCC2685D9
:10366C00EF50807B6345A000C16783A44734CE85AF
:10367C00268524D423264407EFD07FEAC16783A78D
:10368C0087340327092168D83CC07CC03CC4C1677F
:10369C0083A7472158DC38DC2320F408C16783A7B3
:1036AC00C7342328F408930700F8230CF408F240DD
:1036BC006244D2444249B249224A056182800111D6
:1036CC0022CC3704002026CA13044462930440021F
:1036DC00268681451305C44806CE4AC84EC652C438
:1036EC00EF1040754145EFF0AF8F8D454145EFF040
:1036FC004F87B74700401307000698C3194798C770
:10370C00214798C705491305500723062449EFF0B4
:10371C00EF8D9307900E6312F5049547854545454B
:10372C00A306F448EFF08F972945EFE05FDC99454D
:10373C0013051002EFF08F96994513050002EFF078
:10374C00EF95BD451305E004EFF04F9589451945FC
:10375C00EFF0CF9485451D45A5A813055007EFF054
:10376C00EF88930770046314F500914745BF01453A
:10377C00EFF0CF87631695088D4781451305C00779
:10378C00A306F448EFF08F910545EFE05FD6814535
:10379C0013059005EFF08F900545EFE05FD593058D
:1037AC00800A13050004EFF06F8F85451305100494
:1037BC00EFF0CF8E9305900A13052004EFF00F8ED7
:1037CC00814513053004EFF06F8DB9451305D00713
:1037DC00EFF0CF8CC16783A7073501452328F44848
:1037EC00C16783A74735232AF4488547A307F448C4
:1037FC00F2406244D2444249B249224A0561828075
:10380C003D45EFE0BFFE93070007631AF5029947A9
:10381C0085454945A306F448EFF04F882945EFE06C
:10382C001FCD930540044945EFF04F8793051007D2
:10383C004145EFF0AF8693054007454551BF3D45E7
:10384C00EFE0DFFA9307B0066314F5009D47C9B7A4
:10385C0013055007EFE09FF99307F0066317F50087
:10386C00B947A306F4487D5561B70145EFE01FF851
:10387C00930720026314F500BD47E5B7B767004016
:10388C009387071098478D66C169558F98C79843E1
:10389C0081449389C939558F98C3984FF576FD1695
:1038AC00758F98CF89472306F448114AB3873401A2
:1038BC0083C70700138787F92307F4481377F70F9B
:1038CC006364E90413055007EFE0DFF79307900EEC
:1038DC00E305F5E493077004E309F5E89307F006B4
:1038EC00E300F5F80145EFE0FFF593072002E3054F
:1038FC00F5F80145EFE01FF593074002E30EF5E6FE
:10390C008504E39544FB85B7938767F993F7F70F25
:10391C00E368F9FE3D45EFE0FFF293070007E3088B
:10392C00F5EE9307B006E31DF5FC0DB7411126C269
:10393C00B724002022C403C494D7B946B72700206B
:10394C00B306D4023723002003A7C7DB032343D7D6
:10395C00B71700209387476206C633076740338842
:10396C00D700231AE8A04183230CA8A0231BE8A0AE
:10397C00A30CC8A01305A8A11DCA95C9EF10204A15
:10398C009307200305043364F40237270020834790
:10399C0087D793061003A38C84D663E5F6008507BE
:1039AC00230CF7D6B240224492444101828023106A
:1039BC000500231105002312050023130500C9B7C8
:1039CC00371500204111130670068145130545ADCE
:1039DC0022C406C637240020EF10C045230804DAA1
:1039EC00EFF00F9801E585472308F4DAB240224442
:1039FC0041018280797122D437240020834714DB63
:103A0C0006D626D24AD04ECE52CC56CA5AC85EC61C
:103A1C0081CBB727002003C737DCA94763F8E7063B
:103A2C001545EFF0CFFF85451145EFE09FD3B76704
:103A3C00004098531367470098D3D84F136747003B
:103A4C00D8CF37E700E0B70702002320F710730048
:103A5C0050102320F718EFF00F9F9531C16703A684
:103A6C008735C16783A54734C16703A5C7355D3E5C
:103A7C00034514DB2254B25092540259F249624A63
:103A8C00D24A424BB24B45616FF06FF9B729002017
:103A9C00B727002003CA09DB03A9C7DBB71700202F
:103AAC0037040020B7050020B7140020138B07AE95
:103ABC00B7170020130444629385853F9384C4AEEA
:103ACC00938BC7C763080A0AB727002003A7C7DA76
:103ADC008567938777383307E94063EDE7084146FC
:103AEC002685EF10C0333146DE855A85EF10203322
:103AFC00232C244B0327C4508347045115452183A1
:103B0C00E207D98F850713D78700A306F450230744
:103B1C00E45013D70701E1832308F450A307E450C2
:103B2C00EFF0EFEF8347F44899CB8347D448154720
:103B3C00636FF70A0D44636EF40E638D871289452B
:103B4C004145EFE01FC2B7670040985385451145CA
:103B5C001367070198D3D84F13670701D8CFB7E77E
:103B6C0000E03707020023A0E710EFE09FBF7300CF
:103B7C005010F5BFB7574552938717444146854AB5
:103B8C0026852328F44A230A544B232C244BEF106C
:103B9C0000293146DE855A85EF10602893055006C2
:103BAC00138584FEEFE05F96A30AA4502181230BBA
:103BBC00A450377507009305001013050540EFE07E
:103BCC001FDA15E13775070013067006938584FE1E
:103BDC0013050540EFF00FBEB7270020238859DBF3
:103BEC0023A627DB01BFE3170AF0D93B21B7E9175E
:103BFC0093F7F70F0547E364F7F48D451305B0050C
:103C0C00EFE0DFC981451305C005EFE03FC993051F
:103C1C0000023545EFE09FC89305000213058005AF
:103C2C00EFE0DFC7C1452E85EFE05FC78145454515
:103C3C003DA8930520031305A004EFE03FC69305B0
:103C4C0020031305B004EFE07FC593052003130593
:103C5C00C004EFE0BFC4A28513057005EFE01FC4DC
:103C6C0091455145EFE09FC389451305E004EFE012
:103C7C00FFC2F1B5A94513053005EFE03FC28945F8
:103C8C0013058005EFE09FC1E54513059005EFE0B6
:103C9C00FFC091451305D007D9BF411106C622C4F8
:103CAC0026C2EFE05FA5FD57630AF502370400203A
:103CBC0013044462AA84130600048145130594443A
:103CCC00EF10401793974400A29783C74733A30480
:103CDC009448A304F44485472305F448B240224495
:103CEC00924441018280011126CAB70400209384BA
:103CFC00446206CE22CC4AC8138744338147C1465E
:103D0C000348E7006308080A034807006314A80A7D
:103D1C00139447003387840083470734BD46B38729
:103D2C00D702BDCD9387470691872300F734A301B3
:103D3C000734814733898400A300F934232EC93218
:103D4C0032C6EFE0CFF583470934232CA932930612
:103D5C00900532461307400663F9F6009306E0051A
:103D6C001307200363F3F6000147B387840013079E
:103D7C00A717239BE73283D7644463F4C7002393CC
:103D8C00C44483D744443D47B387E702B297918339
:103D9C002392F4446244F240D24442490561F5BD99
:103DAC0091872300F7348547A301F73483471734F1
:103DBC00850749B785074107E394D7F4E1BF7971CB
:103DCC00B727002022D403A407D806D626D24AD07F
:103DDC004ECE52CC56CA5AC81DC093B7250085E3A7
:103DEC008347050013071002AA846382E71E6362EF
:103DFC00F702FD1793F7F70F854A63FBFA06B250EB
:103E0C00225492540259F249624AD24A424B4561B9
:103E1C00828013070003E394E7FE9D47E3F1B7FEAE
:103E2C009945EFE06FEE83C7740003C76400A207E7
:103E3C00D98F6300F52637270020034717D7B727FC
:103E4C0000209387C7D6BA9783C707001307700261
:103E5C00E367F7FA61473387E702B71700209387C8
:103E6C004762BA9703D747D30507239AE7D241BFD6
:103E7C00B547E3F6B7F8B145EFE00FE983C7D400D7
:103E8C0003C7C400A207D98FE31BF5F603CA34009D
:103E9C0083C72400B7290020220A336AFA00231BA7
:103EAC004401EFE0CFDF83A7C9DB48CC2A8B372551
:103EBC0000201CD01546938564001305C5D6EF0071
:103ECC001076B72700203719002013094962A38800
:103EDC0007D6B7270020238407D6832789CE8326CD
:103EEC0009CD85072324F9CE63FBFA0479771307F0
:103EFC00078F158F85675A97938787380966BA9706
:103F0C0013060671636DF6028327C9CD3D46B38750
:103F1C00C702130640063307C702BA9737177A0051
:103F2C001307F7206344F70837F785FF130717DFEC
:103F3C0063C3E7084147B3C7E702232EF9CC8327B5
:103F4C0009D0232AD9CC232869CD231C49CD232081
:103F5C0009CE99C71146B305C10045453EC2F93299
:103F6C0083A7C9DB232009D0230E09D02322F9D241
:103F7C00034704008D476315F70091472300F400B5
:103F8C00034714009D4763EDE70283C74400B3D792
:103F9C00E740858BE39507E683474401E38107E619
:103FAC00230A040085472300F40091BDB7A707003E
:103FBC009387071259B7B767F8FF938707EEB5BF1A
:103FCC00BD47E3EBE7FC83C754006117C9B78347D0
:103FDC000400F917E39507E293B55501E39105E267
:103FEC00CD45EFE06FD283C7440103C73401A2076C
:103FFC00D98FE316F5E019469305240013852400A8
:10400C00EF80704DE31D05DE83C784001946938550
:10401C009400A300F40013058400EF00506083C7E4
:10402C00040103C7F4001946A207D98F03C7140172
:10403C00930524001305710042075D8F83C724018B
:10404C00E207D98F1CC88547230AF400856793873C
:10405C0027A22313010023140100231501002316AA
:10406C000100231701002312F100834714002303DE
:10407C00F100EF00D05AA9454800EFE0EFC8231734
:10408C00A100EFE0AFE0B1454800EFE0DFBE8D47A7
:10409C0019BF03C7240083471400E312F7D6372750
:1040AC000020034717D7B72700209387C7D6BA97A6
:1040BC0083C7070037170020A3020402230304025E
:1040CC00930670021307476263E5F602E146B38775
:1040DC00D702BA9783D607D385062398D7D283D62F
:1040EC0027D385062399D7D283D687D38506239CDD
:1040FC00D7D2832747CF9D46231307CEB387D7024A
:10410C009306401F8D83232AF7CE831747CE63D99E
:10411C00F6022312D7CE83C74400E38207CE194799
:10412C006385E7029306F00F05476387D702E39890
:10413C00E7CC8347540493E74700A302F404C1B1CE
:10414C00E3DB07FC231207CEF9B72300F400B7C753
:10415C00004023A0070065B1230A04002300E400FB
:10416C0079B91971A2DC37140020A6DACAD886DE18
:10417C00CED6D2D4D6D2DAD0DECEE2CC1304446280
:10418C0037290020834704128324C9DB1547638A2F
:10419C00E70A6364F7028D466388D7029146638F02
:1041AC00D708F6506654D6544659B659265A965ADC
:1041BC00065BF64B664C096182801D47E393E7FE74
:1041CC008D472300F412F1BFEFE04FCBEFE00FCDA2
:1041DC0019CD1306F100930500040808EFE0FFCE9B
:1041EC0019C50306F1009375F50F0808C93E37276A
:1041FC000020832747D62945B387F4406370F50226
:10420C0033D5A4029307803E83250413232297D62B
:10421C003375F502EFE06FCAEFD08FAD832704142E
:10422C009D8C856793878738E3FD97F69947230024
:10423C00F412B7C7004023A00700A5B72300E4126F
:10424C008DB7EFE0AFC38324C413EFE04FA5938485
:10425C00A40F637D950AEFE06FC419CD1306F1002E
:10426C00930500040808EFE05FC619C50306F100CA
:10427C009375F50F0808A136EFE0EFC783491412C8
:10428C00A947A30DF4CC230D34CDEFE04FA1832728
:10429C0004CD031744CE130945069384471FB30777
:1042AC00F5400325C4CD998C1307401FB325F502A7
:1042BC0037460F001306062481463385A702B389BF
:1042CC00E902EF50C06D896793870771CE94AA9469
:1042DC0063E8240FEFE0AF9C1309803E6364950EF6
:1042EC008347541837070020B726002093B71700D0
:1042FC00B307F040F59B91072306F75C03A7C6D5DF
:10430C000507637FF70C23AEE6D461BDB727002009
:10431C0083C487D6032704D0850493F4F40F238435
:10432C0097D68327C4CF05072320E4D08507232EF7
:10433C00F4CE9307300663F8E704832784D1114643
:10434C000C0885074145232CF4D03AC8EFF00FDE5A
:10435C0091470327C9DB230EF4D02320E4D2054771
:10436C00E380E7E6A947E3ED97E483576413056719
:10437C00130787388507231BF4128327C413BA97B6
:10438C00232EF412D5BDF54763F9E700832744D1FA
:10439C008507232AF4D08D476DBFA546894763F85E
:1043AC00E600032704D105072328E4D05DB7E3FB1F
:1043BC00E7FA8327C4D085072326F4D0854751BF5D
:1043CC00BE9439B73385A440637AA9009307C05DC6
:1043DC000100FD17F5FFEFE08F8C09B70100E5BF79
:1043EC00B70400209384446223AE06D4EFE02F8BF5
:1043FC0083A7044423ACA442A38A0442850723A0C8
:10440C00F4446138B727002003C717D7914663E6F9
:10441C00E62093061700A388D7D6B72700209387EA
:10442C00C7D6BA9703C5070083C98400230CA4120E
:10443C00EFD00F8C9307E02E0100FD17F5FFB72A84
:10444C00002003C90AD64E85130BF0FB62091359E1
:10445C008941EFD0EF8963456907094A854B0347CA
:10446C008411214919CB834794118507B3E7E702DF
:10447C00A30CF410A29703C9070F4A8503CC840040
:10448C00EFD00F879307E02E0100FD17F5FF83C9CE
:10449C000AD66285E20993D98941EFD06F8563CD45
:1044AC00690163137A198347841163810718834761
:1044BC009411A29703C9070F9307F00F6319F9160C
:1044CC00034584139304E02EEFD08F8203458413AD
:1044DC00EFD00F820100FD14F5FCEFD05FFC4169B9
:1044EC00832509342A8B03258414EF401024EF50C4
:1044FC00803083250934AA8A0325C414EF40F022A6
:10450C00EF50602F832509342A8A03250415EF40C8
:10451C00D021EF50402E83250934AA890325441558
:10452C00EF40B020EF50202DC16783A587332A8937
:10453C0003250416EF40701FEF50E02B8347141235
:10454C00A3085101A309410193F7F7032308F100D4
:10455C0093DA8A0093170501135A8A00A30A3101D2
:10456C00A30B210193D989001359890013D5174145
:10457C0023095101230A4101230B3101230C210191
:10458C001307008083464416AA876353E500BA8755
:10459C001397070141871306F07F6353E600B28738
:1045AC008982A30CF1003D4636876373D6003287AF
:1045BC00A187BD8B12075D8F230DE1003D6793072B
:1045CC00F00F130901011307C757AD4633069900C5
:1045DC00034606008504B18FBA9783C70700E3979B
:1045EC00D4FEA30DF100EFE06F8AB1454A85EFE0F0
:1045FC008FE8834744149309300685072302F4148B
:10460C00EFE0CF87EFD0BFE92A8AEFD05FE933051F
:10461C00454163F1A902814489A083250413035504
:10462C006413EFE08F8909B5054A15BD2149230CA8
:10463C00241379B5EFE08F86AA8461D91306F100B3
:10464C00930500024A85EFE05F8861D10306F10013
:10465C009375F50F4A85EFF08FF6EFD05FE43306D4
:10466C006541854503451412A9E08347841313075C
:10467C0070026366F7026147B387E702A29703D71C
:10468C0007D305072398E7D203D767D3130717F887
:10469C00239BE7D203D787D30507239CE7D2832735
:1046AC00C4CE814585072326F4CEEFF0CFE337C780
:1046BC0000401C43E59B93E787001CC3DDB482805C
:1046CC007971B787004006D622D426D24AD04ECE76
:1046DC0052CC03C9670003C777009377290089CFB1
:1046EC00937707033D8B25C78946630AD728B7877D
:1046FC00004009472383E7009377190085CBB787E0
:10470C000040A3810700B7270020238D07D4B717DB
:10471C000020238407CC3787004089472301F70208
:10472C002302F702BA8705472383E7001379490070
:10473C0063070900B787004011472383E700B25095
:10474C00225492540259F249624A456182801307FD
:10475C000003639CE71AB787004083D50701370431
:10476C000020130444622146130584514D2DB78754
:10477C00004029472381E70203478451B7250020D5
:10478C00AA86A388E5D4034794510355A451035832
:10479C00C451372600202308E6D4372700202317DE
:1047AC00A7D437250020231605D50358E451372507
:1047BC00002093872702231505D503C815D5137838
:1047CC00080663190810034606D5A5459377F60F1E
:1047DC0063E7C5043D668A071306462DB2979C43D2
:1047EC008287231C045089453685EFE00FD201B730
:1047FC008357E7D43727002093F7F707230DF7D417
:10480C00EFC09FD0EDB58357E7D48946A183638869
:10481C00D7088D46638BD70005476388E708B787B1
:10482C0000403D472381E702D9B50357E7D49317DE
:10483C0007011377C70FC1837DF393F7F70F3D671C
:10484C00939627001307073436978324073941675B
:10485C001307073ABA9703C407008357A5D463F626
:10486C0087000354A5D44204418093070004A28519
:10487C0063F38700BE859399050193D909012685B9
:10488C00CE85EFE08FC8B7270020CE9423AA97D40B
:10489C0033043441B7270020239C87D489BDBD64E1
:1048AC00130400029384C4694DBFBD6449449384CE
:1048BC00C46B65B78347446A230CF45085452DB708
:1048CC008357E7D4B337F0002302F46A8547A30279
:1048DC00F46A3DB703C715D5930500021377070695
:1048EC00631EB700034706D59305E00F1376F70F49
:1048FC00630AB7001307F00FE304E6F03D4723808B
:10490C00E700F5B3230C045055BF13070002639264
:10491C00E706372700208347A7D599CBB7870040F8
:10492C0083C637008D0789E60347A7D52380E700A8
:10493C00B729002003D489D50DC893070004A2849D
:10494C0063F38700BE84372A002003254AD5C204AE
:10495C00C180A6852AC6EFE04FBB3245058C239C4F
:10496C0089D42695232AAAD459B3B787004009477E
:10497C0055BDE39E07D6B7870040294765B5639EB2
:10498C000732B787004083C74700370400207D47B4
:10499C0013F6F70F130444626397E72AB715002048
:1049AC009385456203A7858EB75742439387573546
:1049BC00631BF7289385858E1305646A8D218354B8
:1049CC00C46A8357A46A0357046BC204DD8C8357F3
:1049DC00E46A4207232A946C5D8F8347546B232C23
:1049EC00E46C9306A00263E1F60AE54663E1F6087F
:1049FC008D466389D70AC9466384D7106380071C28
:104A0C0093075005A302F46C930730052303F46C51
:104A1C002304F46C93D784002305F46C93D704011E
:104A2C00A305F46C935787002307F46C9357070185
:104A3C0093062004A304946CA306E46CE180A30702
:104A4C00F46C61838547A303D46C2306946C230810
:104A5C00E46CA308F46CB54426869305546C1305DA
:104A6C004466752EB7870040238497029DA899173A
:104A7C0093F7F70FC146E3E5F6F8BD668A07938610
:104A8C00C62FB6979C4382879306A005E39AD7F668
:104A9C00214681451305546E712E99472303F46EFC
:104AAC00214631A8494681451305546E612693076A
:104ABC000007A302F46EA9472306F46E4946834708
:104ACC00446E638F070E8327046E638B070E0325DA
:104ADC00C46DEFE0EFDEB7870040130700042384BA
:104AEC00E70203C747021377C70F2382E702B78792
:104AFC00004003C747021377370F2382E702C5BE76
:104B0C00BD65130640029385056E1305546E012E88
:104B1C00130640026DB78D472303046EA303046E86
:104B2C002304046EA302F46E114651BFB7070002B2
:104B3C009387F707A302046E2313046E2324F46EE9
:104B4C002306046EB1BF8357C46B0347846B13D623
:104B5C008700A2073E968347746B42074206E20722
:104B6C00D98F0347A46B41822320C46ED98F03478E
:104B7C00946B26062207D98F232EF46C85472302CB
:104B8C00F46E35BF8357C46B8346846B2302046E6B
:104B9C0013D78700A2073E978347746BC206420760
:104BAC00E207D58F8346A46B41832320E46ED58F17
:104BBC008346946BA206D58F232EF46C014601B765
:104BCC0037150020130585C805C29307000463D36D
:104BDC00C7003E869305546E32C691243246B78781
:104BEC0000402384C702F5BD93075005A302F46C63
:104BFC00930730052303F46C2304F46C93D78400DF
:104C0C00A304946C2305F46C1307200493D70401BC
:104C1C00E180A305F46CA303E46C2306946CA30657
:104C2C00046C2307046CA307046C2308046CA3080E
:104C3C00046C3544228693051506D522B7870040AF
:104C4C002384870279BD8347446EE39207EA832766
:104C5C00046EE38E07E80327C46DFD172320F46E62
:104C6C000507232EE46CE39407E893075005A30291
:104C7C00F46C930730052303F46C2304F46C832742
:104C8C00446D13072004A303E46C13D78700A3041B
:104C9C00F46C2305E46C13D70701E183A305E46CE2
:104CAC002306F46CA306046C2307046CA307046CA2
:104CBC002308046CA308046C79BB13070002E39867
:104CCC00E7A2B70700209387476203C7476E49CF17
:104CDC0003A7076E51CB03A5C76D7D1723A0E76E05
:104CEC00050523AEA76C11CFEFE08FBDB787004051
:104CFC00130700042384E70203C747021377C70F87
:104D0C00EDBB13075005A382E76C13073005238313
:104D1C00E76C2384E76C03A7476D93062004A383F9
:104D2C00D76C354493568700A384E76C2385D76CE6
:104D3C009385576C935607011385476661832286CA
:104D4C00A385D76C2386E76CA386076C2387076C37
:104D5C00A387076C2388076CA388076CC920B787C7
:104D6C0000402384870249BF3787004083474702AE
:104D7C0093F7C70F93E727002302F7028DBA41116F
:104D8C0006C68A87B705002037C7ADDE9385455D1B
:104D9C001307F7EE98C9372700200327C7DBB8C5E0
:104DAC002147A386E5048DC3984398D1D843D8D125
:104DBC00984798D5D847D8D5984B98D9D84B98CDF3
:104DCC00984FDC4FD8C9DCD98A87DCCDA147238228
:104DDC00F50023AC050223AE050223A0050423A293
:104DEC0005041146D1050D45EFE05FB499673717FF
:104DFC000040938757AA1CCB01A0397106DE16DC44
:104E0C001ADA1ED82AD62ED432D236D03ACE3ECC8E
:104E1C0042CA46C872C676C47AC27EC08D372A830F
:104E2C0009CA83830500230073007D1605038505DD
:104E3C006DFA82802A8311C62300B3007D16050308
:104E4C0065FE82805171B717004086D71947A2D5ED
:104E5C00A6D3CAD1CECFD2CDD6CBDAC9DEC7E2C566
:104E6C00E6C3EAC16EDF98C3EFD0FFDD8C100145BD
:104E7C00EFD0DFB385648C1813850480EFD01FB39B
:104E8C0011468C1837750700EFD03FB0C657375412
:104E9C004C531304D46463878702A68537750700C7
:104EAC00EFD0FFAB11468C1837750700A2D8EFE096
:104EBC006F903775070009468C1811052318C10629
:104ECC00EFE04F8F37140020130444621306C02BFD
:104EDC008145130544A1EFF0FFF5372D0020032782
:104EEC00CDDBB7270020A38C07D6B7270020238C57
:104EFC0007D60146B72700208145054523AAE7D6EA
:104F0C00EFE0DFA2B7070020938C475D03A70C00EE
:104F1C00B7574457938777F4631FF77083A78C00B8
:104F2C0011450146850781452382AC0023A4FC0072
:104F3C00EFE0DF9FB71700401307000498C3B75783
:104F4C004457938777F423A0FC00B717004003C79E
:104F5C008700136717002384E700EFE07FA6BD6589
:104F6C0041469385C5678810EFF07FEBB71700209B
:104F7C00614681451385077B232C0416232E0416CA
:104F8C00232004182322041823240418EFF09FEA8A
:104F9C00B7170020614681451385877CEFF09FE9A8
:104FAC00B7170020614681451385077EEFF09FE817
:104FBC00B7170020614681451385877FEFF09FE787
:104FCC00B72700206146814513850781EFF09FE6E6
:104FDC00B72700206146814513858782EFF09FE556
:104FEC00C16703A90721C16703A7072FC16783A75F
:104FFC00C7309306000041468C10130584162322FB
:10500C00E422232AE4222322E424232ED420232660
:10501C00D422232ED4222324F422232CF42223243E
:10502C00F424232024232328242323202425EFF0D5
:10503C001FDF1306C006814513050495EFF09FDFB3
:10504C008327CDDB1306400481452322F498B71740
:10505C000020138547FF23242499232624992328F1
:10506C002499EFF03FDDC16783A7C736377507007A
:10507C0013060003232AF49E8327CDDB8C1813051B
:10508C000510232EF49EEFD05F904657B75745542A
:10509C00938707D56316F75AB71700203146CC18FB
:1050AC00138547FFEFF0BFD731460C011305C49DA4
:1050BC00EFF0FFD631466C011305849EEFF03FD61E
:1050CC003709002013094962130640028145130574
:1050DC00C930EFF03FD6930710102317F9309D67B6
:1050EC00854493870753230899302328F932EFD04E
:1050FC00AFCEB7970400232E049AA3079932938757
:10510C00073E230E949AB72400202328F932130665
:10511C000023930720038145138504872320F49CE7
:10512C002322049C2324049C2326049CEFF09FD070
:10513C00B7270020138507AA130600058145EFF059
:10514C007FCF1306400381451305C44CEFF09FCE6F
:10515C0093870487130710F8B7260020A38AE7006B
:10516C00938606AA93878703E398F6FE8327CDDB05
:10517C00B7140020372700201306003F8145138504
:10518C004435232EF7D8EFF0FFCA130704EB9387AF
:10519C0044359306E0FC23860700A385D700E1077E
:1051AC00E31BF7FEC144C16526869385C5F513053F
:1051BC00040FEFF0DFC68327CDDB130640038145D8
:1051CC001305C4CF230C9410232EF410EFF09FC6BC
:1051DC008327CDDB9304493313068015814526853F
:1051EC002322F4D2EFF01FC51306C002814513052C
:1051FC0004CDEFF03FC4930740062312F4CE996719
:10520C009387874C23160450130600228145854949
:10521C001305C90E2317F4502320045023220450E5
:10522C002324045023063451EFF0DFC01306400250
:10523C00814513050451EFF0FFBF13064002814571
:10524C0013054453EFF01FBF372600208347A6D722
:10525C001D476368F704139737002297AD46CE9726
:10526C00230CD754CE85896685699386264D138584
:10527C000980232ED754230DF6D6EFD08FCEB767E7
:10528C0000409853938909803367370198D3D84FDE
:10529C0033673701D8CFB7E700E03707020023A008
:1052AC00E710EFD07FE91306400481451305890A06
:1052BC00EFF05FB8C16783A70721854690082320CC
:1052CC00F90C232EF90A232CF90AC16703A787339B
:1052DC00C16783A78737B5451305C0022324E90CA2
:1052EC00232AF90C2326E90C232CF90C2328E90C8E
:1052FC00232EF90CEFD02F8B11E9834701051307EF
:10530C00F00F6382E7361947638FE73485469008C0
:10531C009305F0047945EFD00F8919E50347010592
:10532C0093070004630AF7348D469018A945794514
:10533C00EFD06F871DE10347010793078004631EBD
:10534C00F70003471107930740036318F70003475F
:10535C002107930730036303F7322314090A8D45A1
:10536C0013050020EFD0EFBF85454145EFD06FBF4F
:10537C00854513050040EFD0CFBE8D4A130A00209F
:10538C00B769004013050020EFD08FC51305400608
:10539C00EFD0EF951305400623A64901FD1AEFD077
:1053AC000F95E3910AFE37250020130545DAEFD05F
:1053BC005FBD7146814513058492EFF0BFA78567E9
:1053CC009843FD576309F700056758436305F700D9
:1053DC008547A300F49493090412130680048145B5
:1053EC004E85EFF03FA513052412EFD09FB9C1678E
:1053FC0083A70721881882DC2324F414B70704023E
:10540C0093871770BED8B7574C5393872765BEDA6E
:10541C00EFD0FFA391679387A7DC37270020834A3F
:10542C004943232EF7D6B727002023A037D9BD47F1
:10543C0063F8572583474413B337F0008607850775
:10544C002300F412EFE0AFA701C51D45EFD03FDDFF
:10545C00C16703A68735C16783A54734C16703A518
:10546C00C735B7240020EFE0EF9B83C704DB99E737
:10547C00EFD00FEF45E585472388F4DA8327894B76
:10548C000327CDDB1D8FBD67938707A663E8E7086D
:10549C00032709518347495131462183E207D98FAC
:1054AC00850713D78700A308F9502309E950930502
:1054BC00C94B13D707018818E183832A894C032A27
:1054CC00C94C8329094D8324494DA309E950230A6A
:1054DC00F950EFF0DF948327CDDB3146B70700207E
:1054EC009387873F8C181305896523A0570123A246
:1054FC00470123A43701C4C7EFF07F92B7270020E0
:10550C00238C07D8B7270020232C5901232E4901BF
:10551C00232039032322990223AA07D837750700C1
:10552C005D468C1813050520EFD02FC64657B7578C
:10553C004C539387D794631AF71A01478147554602
:10554C009418BA9683C606000507B58F93D6F70054
:10555C008607B697C207C183E314C7FE1A47931692
:10556C00870013D706016392E71883444107A947C4
:10557C0063F397008144372A0020B70700201146B7
:10558C009305510713058ADB2387975CEFF03F895E
:10559C0031469305910713058965EFF05F888549BE
:1055AC00B7270020A38837DB8D4783258ADB2300B0
:1055BC00F4128327CDDB01452328B4122320F414E5
:1055CC00230A3413A3009412EFD02F8FEFB05FF2A5
:1055DC00EFD0CF8A4E85EFD09FC4B7D70040354768
:1055EC002381E70025472380E700C16783A707399C
:1055FC003EDEB717004023A207008327CDDB232014
:10560C00045A1D47232CF4588327C4598507232E8D
:10561C00F458C1472386FC008327CDDBB727002035
:10562C0083C747DC6399E70CEFD06FDA13054006AC
:10563C00EFC0FFEB7DBF85472382FC006FF09F8F8F
:10564C00C16703A70737C16783A74737232EE49C9D
:10565C002320E49E2324F49E2326F49E2322E49EFE
:10566C002328F49EB1BC85472304F90A8547A3047B
:10567C00F90AEFC0FFCCE5B19147FDB78947EDB70B
:10568C00A689A687014A414783C6E70099E26F10B5
:10569C00902A050AC107E319EAFE69BB13065004F8
:1056AC00E36AF6D88D451305E0061306803E83C7E2
:1056BC00E9008DC383C71900639EB70083D7290007
:1056CC00B387A702B3C7D702C207C183636CF600C6
:1056DC002391F900C109E31C37FDA9BB23910901F2
:1056EC006F1010302391C900F5B7B7270020A3889D
:1056FC0007DA0D45CDB519476390E70683478492C9
:10570C009DC79386F7FF0327CDDB93F6F60F05466F
:10571C006363D6028327C4931D8FB7C70200938798
:10572C0007F263F6E700930740502314F492EFD08E
:10573C000FCA2945F5BD0D47E39BE7FE834714943B
:10574C00FDD71305401FEFC09FDA9967371700404C
:10575C00938757AA1CCB01A01547E38CE7E8CD47EC
:10576C002386FC008327CDDBEFC07FD3B726002038
:10577C0003A7C6D88567938777383307E54063F866
:10578C00E7728347E92E23A6A6D863820772834467
:10579C00D92E9604CA9483C784103ECA63890770B5
:1057AC00370B002031469385C40E13050B6CEFF0BC
:1057BC000FE731463305C9009385840FEFF02FE6D0
:1057CC008347D92E0325449F930BC49D8507BD8B1E
:1057DC00A306F92E8347E92EFD172307F92EC1677F
:1057EC0083A5C736EF303027AA85AA89EF30E0733E
:1057FC00B7170020938A47FF93070B6C2A8A3ECC7D
:10580C003E8B83A5CA004E85910AEF30007283A5AA
:10581C00CAFF110BEF20B05083A54A01AA84528510
:10582C00EF30A070AA852685EF20704F23A6AA0220
:10583C00AA850325CBFFEF301022232EABFEE3927B
:10584C005BFD8327C909032C490A3EC68327090A35
:10585C003EC883474418638707228325845A324500
:10586C00EF30701F8325C45AAA844245EF30B01E16
:10587C008325045B2A8A6285EF30F01D8347C416AA
:10588C00AA8A95C7930500004E85EF30006AAA8559
:10589C002ACE2685EF30301CF245AA845285EF3093
:1058AC00901BF2452A8A5685EF30F01AAA8A834754
:1058BC0084168DCBB7170020A6851385077BEFD0F8
:1058CC006FCEB7170020D285AA841385877CEFD0C2
:1058DC006FCDB7170020D6852A8A1385077EEFD0A7
:1058EC006FCCAA8A834794168DCBB7170020A68558
:1058FC001385877FEFC01F80B7270020D285AA842D
:10590C0013850781EFC00FFFB7270020D6852A8AA1
:10591C0013858782EFC00FFEAA8A8347A4169DC306
:10592C00A6851305C421EFC0BF84D285AA841305B4
:10593C00C422EFC0FF83D6852A8A1305C423EFC087
:10594C003F83AA8A8347B416B7190020938949620A
:10595C00B72D0020416B638F07128327C900A685E2
:10596C0026853ECE83270901832B49013ED0EF309B
:10597C00C05B2AD2D2855285EF30205BAA851255A6
:10598C00EF20F0392AD2D6855685EF30005AAA85F9
:10599C001255EF20D038EF10D005F2452AD22E85C3
:1059AC00EF30A05882552ACE2E85EF300058AA85AC
:1059BC007245EF20D036DE852ACE5E85EF30E0567C
:1059CC00AA857245B72B0020EF207035EF107002BE
:1059DC002ACE8325CB371255EF30804C6358050AFD
:1059EC00C16783A507217245EF30F0064167832517
:1059FC00C73106050581EF30A04A6359050883C6F7
:105A0C008BD83727002081EA83A6CDDB2322D7D879
:105A1C0085462384DBD8032747D883A7CDDB998F12
:105A2C001307C05D6378F706C16B83A50B2F268522
:105A3C0093040000EF30604FAA8503A5895AEF202C
:105A4C00102E83A50B2F23A4A95A5285EF30E04DBD
:105A5C00AA8503A5C95A268AEF20702C83A50B2F83
:105A6C0023A6A95A5685EF30404CAA8503A5095B9D
:105A7C00EF20F02A854723A8A95AA382F918930A84
:105A8C000000A9A8424AB244E28A15B523840BD877
:105A9C00A3820918C16B83A50B38B7070080FD17CB
:105AAC0033F59700EF30C03FB7070080FD17635404
:105ABC0005009304000083A50B3833F54701EF3044
:105ACC00203E63540500130A000083A50B38139580
:105ADC001A000581EF30C03CE34305FA8327841894
:105AEC00B245A6C885072324F4182E85D6CCD2CA75
:105AFC00EF30A043C245AA842E85EF300043AA851F
:105B0C002685EF20D021AA84E2856285EF30E04122
:105B1C00AA852685EF20B020EF10A06D8325C90043
:105B2C00AA8B2E85EF30604083250901AA8A2E8529
:105B3C00EF30A03FAA855685EF20701E83254901C2
:105B4C00AA8A2E85EF30603EAA855685EF20301D3F
:105B5C002ACEEF10006A8325CB37AA8A5E85EF30F8
:105B6C00203463500506C16783A587305685EF3016
:105B7C00806EC16783A5073006050581EF30403282
:105B8C00635105048347849A81EB83A7CDDB2326DD
:105B9C00F49A85472304F49AC16783A5473803A573
:105BAC00099BEF308038C16783A5C72EAA8A5E8512
:105BBC00EF30A037AA855685EF20701623A8A99A36
:105BCC0021A02384099A02CA83A509953245EF3096
:105BDC00806883A54995232EA908AA8A4245EF30EF
:105BEC00806783A589952320A90A2A8B6285EF30CB
:105BFC008066D2472322A90AAA8B639C073403AA86
:105C0C00CDDB03A549983305AA40EF408019C16745
:105C1C0083A58733EF20306C9305000023A24999AC
:105C2C00AA84EF30601F634AA046D247B704002015
:105C3C0083CA499B938444626395074A83A58998D8
:105C4C00C844EF30802E83A5C998C8C48848EF306B
:105C5C00C02D88C883A50999C848EF30002DC8C845
:105C6C0003AB040A03A5C40903AA440A63890A4ABC
:105C7C0083A5099583AA8995EF30E05D83A54995A5
:105C8C0023AEA4085A85EF30005D23A0A40AD68564
:105C9C005285EF30405C83C7A40A23A2A40A99CB97
:105CAC0083C7840A8D4563ECF54805476362F76446
:105CBC00638DE74A83A5C409416C2E85EF30E0263D
:105CCC0083A5040AAA8A2E85EF302026AA8556853C
:105CDC00EF20F00483A5440AAA8A2E85EF30E02435
:105CEC00AA855685EF20B00383254C212A8A83AAE6
:105CFC00CDDBEF30601283254C213325A000A38827
:105D0C00A4305285EF304011635FA06283C7D4305A
:105D1C0023AA543123AC043089CBB7170040238419
:105D2C000700A3860430EFC03F8B83C7E430A9E79C
:105D3C00B717004003C717021377B70FA380E7020A
:105D4C009307C05D0100FD17F5FFB70705029387A8
:105D5C001770BED8B747767193879712BEDAB7071C
:105D6C000403938727108818BEDCEFD04F8E85472D
:105D7C002387F430EFC05F8683A74432850723A2C4
:105D8C00F43283C7D4328DC783C7E43295E31D4701
:105D9C00B71700402384E7008947A386F430EFC08F
:105DAC00BF83B767004013070020D8C7238804308F
:105DBC00B727002003C747DC91476310F76483A51E
:105DCC00846503A5C409EF20807583A54994EF2051
:105DDC00007523A2A99483A5C4652A8B03A5040A84
:105DEC00EF20E07383A58994EF20607323A4A9941A
:105DFC0083A50466AA8A03A5440AEF20407283A5F2
:105E0C00C994EF20C071B727002023A6A99483D989
:105E1C0007DC37270020832647DB8509C20993D985
:105E2C000901239037DD83A7CDDB2A8A958F930652
:105E3C00200363F4F60283A7CDDB232AF7DA372796
:105E4C000020834727DC93C717002301F7DC63800E
:105E5C00075A13050020EFC0BF989307301F63F853
:105E6C003705C16983A5C9385A85EF20D04683A56B
:105E7C00C93823ACA4645685EF20F04583A5C938F6
:105E8C0023AEA4645285EF201045F054AC5423A0EB
:105E9C00A466A858EFD00FF9EFD04F99B727002080
:105EAC0003C517DB05051375F50FEFD04FB7832727
:105EBC00CDDB83445418B7270020370B0020B72BB9
:105ECC00002003CA47DC834ADB5C83C71BDA9A04D5
:105EDC00B7090020DD8C93B74A018607DD8C930748
:105EEC00CAFF93B717009389893F8A074146CE852D
:105EFC0013058414DD8CEFE09FF231469305045CAE
:105F0C0013058415EFE0BFF1C5472386FC008327FA
:105F1C00CDDBA30294169307FAFFB71400202302DB
:105F2C00541793F7F70F054593844462E36AF52CF5
:105F3C00EFE02FA38347041215470545E39DE726A1
:105F4C00B727002083C747DCE393A72809456F00D8
:105F5C00D02783A7CDDB83A4C99A1307803E858FF6
:105F6C006373F70C83A5C9955685EF20405B83A519
:105F7C00099623AEA994AA8A5A85EF20405A83A584
:105F8C00499623A0A9962A8B5E85EF204059AA8BAF
:105F9C0023A2A99603A589969307700C050523A443
:105FAC00A99663F2A708EF30D05FAA852AC656855A
:105FBC00EF207032B245AAD85A85EF20D031B245C5
:105FCC00AADA5E85EF203031C16703AB072FAADC5C
:105FDC00138C0995814B930A0107314A83270C00D6
:105FEC00110C3EC6B3877A018843B245910BEF3052
:105FFC008026DA85EF207073B245EF204052232EB5
:10600C00ACFEE39D4BFD83A7899B23AE099423A093
:10601C000996850723ACF99A854723A2099623A4F0
:10602C000996238AF99A83A7CDDB1307F07C858F19
:10603C00E377F7BC7245EF10C01BC16783A5472CF3
:10604C00AA84EF20705DE35CA0BAC16783A5873892
:10605C002685EF20F064E35405BAC16703A58730A9
:10606C00A685138B0995EF201027C16703AAC730AB
:10607C00AA8A938BC99583248B035685110BA6850D
:10608C00EF30601DD285EF20506AA685EF202049A5
:10609C00232AAB02E3916BFF9DB6C16783A5072151
:1060AC002685EF20F05FE35205B8138A0995938A91
:1060BC00C9958325CA012685110AEF20106783250F
:1060CC004A02EF20C045E2472322AA02AA85884350
:1060DC00EF306018E24788C391073ECCE39B4AFD42
:1060EC00A9B6E38D0AB4C16703AA4731938B09950E
:1060FC00014B314CB70700209387076CDA97884324
:10610C00D285110BEF207062AA8503A5CB01910BF0
:10611C00EF20E04023ACAB00E31E8BFD05B683A55E
:10612C008465EF30401383A5C46523AEA4085A855B
:10613C00EF30601283A5046623A0A40A91BE114718
:10614C00E39AE7B69946B000930580067945EFC00F
:10615C008FA5E31105B6C16703158104031AA104C9
:10616C00031BC10483AB87361DA09946B000814543
:10617C001305C002EFC02FA3E31E05B2C1670315C0
:10618C008104031AA104031BC10483AB0736EF304F
:10619C00806CDE85EF207059AA8AAAD85285EF3020
:1061AC00806BDE85EF2070582A8AAADA5A85EF3088
:1061BC00806ADE85EF20705783A5C40A2A8BAADC7F
:1061CC005685EF30400983A5840BEF20105683A52C
:1061DC00040B2AC65285EF30000883A5C40BEF20B0
:1061EC00D05483A5440B2AC85A85EF30C00683A52A
:1061FC00040CEF2090532ACAB2454245EF00507F61
:10620C0003C7940A8D476317F704938A840A014ADB
:10621C00930B0107314CB3864B0103AB060083A5EE
:10622C000A025A85EF20D0476354050023A06A0365
:10623C0083A5CA025A85EF20303E6354A00023A6E2
:10624C006A03110A910AE3188AFD83A7040E8507D5
:10625C0023A0F40EB2452E85EF20304DC2452A8B7B
:10626C002E85EF20904CAA855A85EF20402BD245E5
:10627C002A8B2E85EF20704BAA855A85EF20202A79
:10628C00EF00307703AB440E2A8C930500005A853F
:10629C00EF2090386356A00ADA856285EF20B07B38
:1062AC000605DA850581EF201003C16783A5472118
:1062BC00EF2090366353A00883A7840E1307400683
:1062CC00850723A4F40E6376F7002385040AA384C0
:1062DC00040AB247054723AAF95AC24723ACF95A14
:1062EC00D24723AEF95AB7270020A384E7D8D9B2F6
:1062FC009946B0007945EFC00F8BE31D059A835783
:10630C00810413D58700A2073E958357A10442054B
:10631C00418513DB8700A2073E9B8357C104420BC8
:10632C00135B0B4113DA8700A2073E9A420AC1673E
:10633C0083AB4736135A0A4199BD23A4040E51BFAF
:10634C0023A2840F79B783A74431B38AFA4023ACD4
:10635C0054319307400663F2570583C7D43091EB51
:10636C008547371700402304F700A386F430EFC0AD
:10637C00AFA603A784319307803E63F0E70203C7FF
:10638C00D4308947630BF700371700409D46230430
:10639C00D700A386F430EFC02FA483C7F432B1C367
:1063AC0003A7843183A7043363FDE7028547238663
:1063BC00F430B717004003C7170283C61702938740
:1063CC00170293E626002380D70083C6070093E6C6
:1063DC0016002380D700730050102380E70023861B
:1063EC00043083A78432850723A4F43259BAB767E3
:1063FC00004013070020D8C78DB4B727002083C7EF
:10640C0097D86387075A83C7440C6383075AEFB046
:10641C00CFEBFC54930500003E853ED0EF20D01FFF
:10642C006357A03283A7495B83AAC95B376B375F7D
:10643C003ECCE24583A7895B130B6BA82E853ECE21
:10644C00EF20B02EF2452A8A2E85EF20102EAA8539
:10645C005285EF20C00C2A8AD6855685EF20F02C69
:10646C00AA855285EF20A00B83254C21AA8D93DBA6
:10647C001D00EF20902BB30B7B41DE852AC6EF204D
:10648C00D02ADE85EF20702A416AAA8503258A2846
:10649C00EF20705CDE85EF205029AA8BAA8532454F
:1064AC00EF20B028DE85EF205028AA8503258A2806
:1064BC00EF20705ADE85EF205027EE85EF20F02676
:1064CC00C16783A7C72E2ADABE853ED2EF20501DA6
:1064DC00634F05269C4CD25583AD44023ECADC4C1E
:1064EC003EC89C503EC6C16703A50721EF20A05EA5
:1064FC00AA852AD46245EF205023A2552ACC724596
:10650C00EF20B022A2552ACE5685EF2010229255AC
:10651C002AD6025583AB0407EF203021DE85EFB07D
:10652C000F8083AA44082AD46245D685EF20B05246
:10653C00A255EF20901FD685EF10707E83AA840899
:10654C002ACC23A2A4087245D685EF20D050A255A0
:10655C00EF20B01DD685EF10907C2ACE23A4A40882
:10656C0083AAC4083255D685EF20F04EA255EF20F1
:10657C00D01BD685EF10B07AAA85AA8A23A6A408C8
:10658C003245EF20901AF2452AD46E85EF20F0198F
:10659C00AA852255EF20304CAA85EF105078E245A1
:1065AC002AD46E85EF2070182AD64245D685EF2066
:1065BC00D017AA853255EF20104AAA85EF103076F5
:1065CC00F2452AD64245EF205016E2452AD83245EC
:1065DC00EF20B015AA854255EF20F047AA85EF10A1
:1065EC001074A2552AD85245EF203014E245EF1012
:1065FC001073C2552ACC3245EF203013AA85624560
:10660C00EF10F071B2552ACC6E85EF201012AA85CE
:10661C006245EF205044B2552ACC5245EF20F01081
:10662C00F245EF10D06FA2552ACE6E85EF20F00FF9
:10663C00AA857245EF10B06EC2552ACE4245EF20A6
:10664C00D00EAA857245EF201041E2452ACE2E8548
:10665C00EF20B00DF2452ADC2E85EF20100DAA8517
:10666C006255EF10D06B2ADC83254C21EF20F00B08
:10667C00E2572A8C8583330BFB40DA85EF20F00A36
:10668C00DA85EF20900AAA8503258A28EF20B03CF2
:10669C00DA85EF2090092A8BAA856285EF20F00815
:1066AC00DA85EF209008AA8503258A28EF20B03AD6
:1066BC00DA85EF209007E255EF20300792552A8CAF
:1066CC00EF20007E63450508C2555245370B00800C
:1066DC007D1BEF209005D685EF1070642A8AB25589
:1066EC004245EF209004AA855285EF1050632A8A08
:1066FC00A2553245EF207003AA855285EF20B035A4
:10670C00D2553375AB00EF20003D83AA04082AD282
:10671C0093050000568503CA8409EF20A06A630F15
:10672C00050E1255B3755B01EF20F032C16783A5DE
:10673C0007303375AB00EF20206E6351A00E136A47
:10674C002A0093070000238C440923A8F40883AB88
:10675C00840103ABC40183AA040203AA4402B70751
:10676C0000209387873F23A0770123A2670123A4EE
:10677C00570123A64701D2855A85EF20007B2A8C2E
:10678C00D6855E85EF20607AAA856285EF20B02CD5
:10679C00AA85EF10D058AA85C844EF20D02B23A08F
:1067AC00A95CD2855685EF204078DA852A8C5E85E7
:1067BC00EF20A077AA856285EF107056AA85EF109E
:1067CC001056AA858848EF201029DE8523A2A95CE3
:1067DC005E85EF208075DA85AA8B5A85EF20E074F0
:1067EC00AA855E85EF203027D6852A8B5685EF202B
:1067FC00C073AA855A85EF201026AA8AD2855285A5
:10680C00EF20A072AA855685EF107051AA85C84852
:10681C00EF20702423A4A95C6FF06FE983A5040911
:10682C005E85EF10D04FC16783A5472823A8A40825
:10683C00EF20805E6356A000137ADAFF238C4409A4
:10684C0083C78409898BADE3624503AA8407E2857B
:10685C00EF206028D285EF201020416B83250B2F71
:10686C00EF20A06CD285EF10904BA8DC724503AAE8
:10687C00C407E285EF202026D285EF20D01D83258A
:10688C000B2FEF20806AD285EF107049E8DC12558F
:10689C00D685EF20501C83250B2FEF200069D68561
:1068AC00EF10F04723A0A408E2457245EF00501406
:1068BC002A8A0255DE85EFA09FC6C16783A5472FA4
:1068CC00AA8A5285EF206066D685EF2000662A8A58
:1068DC00EF00B016AA8A5285EF00F01C2A8B4245B5
:1068EC0093050000EF206064AA8B324593050000ED
:1068FC00EF20A0632A8C524593050000EF20E06244
:10690C002A8A930500006E85EF2020622ACC52451E
:10691C00D685EF208061DE85EF20F013E285EF2035
:10692C0090132ACEDA856E85EF202060AA857245F9
:10693C00EF20701288CC4245D685EF20005FD285BF
:10694C00EF10F03DE245EF10903D2ACE3245DA854E
:10695C00EF20A05DAA857245EF20F00FC8CC324520
:10696C00D685EF20805CE245EF20F00ED285EF104B
:10697C00103B2A8A4245DA85EF20205BAA85528596
:10698C00EF10F03988D0D6856E85EF20005AE2855D
:10699C00EF10F038DE85EF20100C2A8A5245DA858C
:1069AC00EF20A058AA855285EF107037C8D045B398
:1069BC00EFB0AF9169BB0D47639BE700B727002091
:1069CC0003C747DC89476314F700EFC05F8537675F
:1069DC0000408327CDDB8346445D58430946418BF9
:1069EC006386C61E6369D614639D06186318071464
:1069FC008546230AD45C2326F45C230B045C3DAA55
:106A0C008D47E316FAFC372A002083470ADA95EF04
:106A1C00094C930750022300841337C700401CC74E
:106A2C002304F900EFB09FC5832DCDDB856A938AD3
:106A3C007A388327CDDBB387B74163F4FA048547F3
:106A4C002300F41285472300FADAEFD08FF1834745
:106A5C004413B5DF03471412B70700202387E75C04
:106A6C0003270413B727002023ACE7DAB72700204D
:106A7C000547A388E7DAEFC06FDB23000ADA6FF073
:106A8C00EFCCEFB0BFC145C5900893050004881842
:106A9C00EFC0AFC349CD83470107639A8709856768
:106AAC001946938707B29305241213052105231861
:106ABC00F104231D0104230E0104EFE04FB69307EC
:106ACC001010AD458808231CF104EFB0FFA3A30DF3
