:100000009000000000000000D2010000D2010000BA
:1000100000000000000000000000000000000000E0
:1000200000000000000000000000000000000000D0
:1000300000000000000000000000000000000000C0
:10004000D2010000D2010000D2010000D201000064
:10005000D2010000D2010000D2010000D201000054
:10006000D2010000D2010000D2010000D201000044
:10007000D2010000D2010000D2010000D201000034
:10008000D2010000D2010000D2010000D201000024
:10009000971100009381419417610020130181762C
:1000A0001305401D970500209385C5F51706002010
:1000B000130646F563FAC5008322050023A0550008
:1000C00011059105E3EAC5FE17050020130585F328
:1000D00097050020938505F36377B500232005007D
:0C00E0001105E36DB5FEAD2801A0000085
:1000EC008567938707773305F50241112AC6B24716
:1000FC001387F7FF3AC699E3410182800100C5BF1F
:10010C00B71700409387070C9843411106C63D9BD7
:10011C0098C3B71700409387870C984329451367FA
:10012C00070198C3753FB717004003A5070DB240F0
:10013C0011810589134515004101828073700430CB
:10014C00B7E700E023A4070485679C430F10000069
:10015C00828701A0411106C622C426C24AC04D376F
:10016C0085679C4337F70600938707809387078042
:10017C006364F70011E1D937B71700409387070A7A
:10018C009843371400401304040B1367071098C3EB
:10019C00856437F906001C401305800C93E70710A3
:1001AC001CC03D3F1C401305800C93F7F7EF1CC09F
:1001BC00053F9C409387078093870780E36DF9FC8C
:0801CC00813771F94DBF01A05C
:040000030000009069
:00000001FF
